:020000040800F2
:10000000502300205D020008455300087F030008CC
:1000100041530008C50800081158000800000000FE
:100020000000000000000000000000006F02000857
:100030006D09000800000000CB02000849530008C9
:1000400077020008770200087702000877020008AC
:10005000770200087702000877020008770200089C
:100060007702000877020008690C00087702000890
:10007000770200087702000877020008770200087C
:10008000770200087702000877020008770200086C
:10009000770200087702000877020008810C000848
:1000A00077020008A55400087702000877020008CC
:1000B000770200087702000877020008770200083C
:1000C000770200087702000877020008770200082C
:1000D0007702000805580008770200087702000838
:1000E000710900087702000877020008770200080B
:1000F000D1540008B15400087702000877020008C4
:1001000077020008770200087702000877020008EB
:1001100077020008770200087702000877020008DB
:1001200077020008770200087702000877020008CB
:1001300077020008770200087702000877020008BB
:1001400077020008770200087702000877020008AB
:10015000770200087702000877020008770200089B
:10016000770200087702000877020008770200088B
:1001700077020008770200087702000800000000FC
:10018000770200087702000800F002F800F057F844
:1001900014A696E8000CB244B344DA4501D100F04D
:1001A0004EF8BAE80F000FA696E83000A5EB04055C
:1001B00004EB0607AAEB0704A7F101074FEA1515A0
:1001C0004FEA3414A4F10104AC4201D300F037F833
:1001D00013F0010F18BFFB1A43F0010300F001F800
:1001E000DBE7184774A8000094A80000103A24BF69
:1001F00078C878C1FAD8520724BF30C830C144BF8C
:1002000004680C6070470000704700000023002461
:1002100000250026103A28BF78C1FBD8520728BF16
:1002200030C148BF0B607047642900F09D810020F9
:1002300070471FB50AF0D0FA1FBD10B510BD00F011
:10024000E1FA1146FFF7F5FF00F012FB00F0FFFAAC
:1002500003B4FFF7F2FF03BC00F002FB094880473C
:1002600009480047FEE7FEE7FEE7FEE7FEE7FEE798
:10027000FEE7FEE7FEE7FEE704480549054A064BB0
:10028000704700009154000889010008501D0020AB
:1002900050230020501F0020501F0020EFF310803B
:1002A00072B6704780F310887047434A1368012B79
:1002B00004D04FF001031360404A1060404A1160BF
:1002C00040484FF0805101607047EFF3108272B6E2
:1002D0003948016851B34FF00001016037480168A7
:1002E00091B1EFF309811EF0100F08BF21ED108BC3
:1002F00021E9F00F4FF000041EF0100F08BF012499
:1003000041F8044D006801602D490968096808C971
:10031000B1E8F00F002B18BFB1EC108B81F3098806
:100320004EF0100E002B18BF2EF0100E82F3108826
:100330004EF0040E704722490860EFF3148222F059
:10034000040282F314881D494FF0000008601A4926
:100350004FF0010008601C484FF47F01D0F80020E6
:1003600041EA0201016017484FF0805101601748CF
:100370000068006880F3088861B662B670471EF0B6
:10038000040F0CBFEFF30880EFF3098020E9F00FB2
:1003900040F804ED40F804ED1EF0040F0CBF80F3AC
:1003A000088880F3098800B507F060F85DF804EB71
:1003B0004EF0040E70470000C418002038160020CC
:1003C0004016002004ED00E020ED00E008ED00E024
:1003D00053EA020C00F069802DE9F04B4FF0000663
:1003E000002B1FBFB3FA83F503FA05F424FA05F6D0
:1003F0005E4012BF1643B2FA82F502FA05F4C5F167
:1004000020051EBF22FA05FC44EA0C04203556EAFA
:10041000044C4FEA144418BF641C4FF000084FF01E
:100420000009904271EB030C39D3002919BFB1FACE
:1004300081F701FA07F6B0FA80F700FA07F6C7F17C
:1004400020071EBF20FA07FC46EA0C062037B6FB41
:10045000F4FCA7EB0507103F07F01F0BCBF12006BC
:100460002CFA06F60CFA0BFB44BFB3460026202FED
:10047000A4BF5E464FF0000B5BEA060C08BF4FF0CE
:10048000010B19EB0B0948EB0608ABFB027C06FBE2
:1004900002CC0BFB03CCC01B71EB0C01C1E70B467C
:1004A000024641464846BDE8F08B13B5084318BFE5
:1004B0004FF0FF300146AFF30080BDE81C407047AD
:1004C0000FB41CB50C0007AA009007D04142A1420E
:1004D00002D32044401E01E04FF0FF30074B7B4425
:1004E00069460190069800F06AF90021002C01D0BD
:1004F000009A11701CBC5DF814FB0000030300009F
:100500002DE9F0410E460446002020622046E168B5
:10051000884730B3252805D0D4E901219047206AC7
:10052000401CF2E7E168204600278847050018D004
:10053000A5F14100192802D820354FF40067324652
:10054000294620462760FFF76FFE40B1012804D0FE
:10055000F61D26F007060836D8E7361DD6E72846EA
:10056000DAE7206ABDE8F0812DE9F0410646002473
:1005700010687529314616A510D0AFF30080002809
:1005800002DA404213A507E031688A0701D512A5B7
:1005900002E0490704D511A5012401E0AFF3008072
:1005A00000210A2206F1240709E0B0FBF2FCB0FBAF
:1005B000F2F302FB1C00303078541846491C002826
:1005C000F3D123462A463046BDE8F04100F099B801
:1005D000000000002D0000002B00000020000000A3
:1005E00010B5203AC0F00B80B1E81850A0E81850C0
:1005F000B1E81850A0E81850203ABFF4F5AF5FEA10
:10060000027C24BFB1E81850A0E8185044BF18C9B4
:1006100018C0BDE810405FEA827C24BF51F8043B5B
:1006200040F8043B08BF7047D20728BF31F8023BAF
:1006300048BF11F8012B28BF20F8023B48BF00F843
:10064000012B704702F0FF0343EA032242EA024211
:1006500000F002B84FF000020429C0F0128010F040
:10066000030C00F01B80CCF1040CBCF1020F18BF8E
:1006700000F8012BA8BF20F8022BA1EB0C0100F021
:100680000DB85FEAC17C24BF00F8012B00F8012BF4
:1006900048BF00F8012B70474FF0000200B5134629
:1006A00094469646203922BFA0E80C50A0E80C5092
:1006B000B1F12001BFF4F7AF090728BFA0E80C5043
:1006C00048BF0CC05DF804EB890028BF40F8042B3C
:1006D00008BF704748BF20F8022B11F0804F18BFA9
:1006E00000F8012B704770477047704710B500F055
:1006F00081F8006810BD10B5044600F07BF8046076
:1007000010BD2DE9F0470D4699469246044600F18A
:1007100024080168880604D5E06921F010012160F1
:1007200000E00120A84201DD471B00E00027A1698D
:100730007A1902EB0900081AA0612078C00602D4D9
:100740002046AFF30080002608E0D4E901211AF822
:1007500006009047206A401C761C20624E45F4DB60
:100760002078C0060AD52046AFF3008006E0D4E921
:10077000012130209047206A401C2062381EA7F1DA
:100780000107F4DC07E0D4E9012118F805009047DF
:10079000206A401C2062281EA5F10105F3DC2046DA
:1007A000AFF300802078000602D50220BDE8F08774
:1007B0000120FBE701694A1C02610878704700B517
:1007C0008FB0CDE901310021059105497944CDE98A
:1007D000031011466846FFF793FE0FB000BD0000FE
:1007E000E5FFFFFFD1E900239A4202D2531C0B60C0
:1007F0001070704700487047800000200048704724
:10080000800000207546FFF7F9FFAE4605006946F7
:10081000534620F00700854618B020B5FFF72CFDA1
:10082000BDE820404FF000064FF000074FF00008F1
:100830004FF0000BAC46ACE8C009ACE8C009ACE82E
:10084000C009ACE8C00921F007018D46704710B51A
:100850000446AFF300802046BDE81040FFF7F8BC27
:1008600001491820ABBEFEE72600020070470000D9
:1008700080B582B0FFF712FD06F0C4FD07F078FAEC
:1008800007F02CFC07F07CFB4AF6B01046F2490159
:100890004FF0140C4FF00A0EC0F60000C0F6000135
:1008A00000224FF48063CDE900EC07F021FC07F053
:1008B000BDFD07F01BFC07F0E5FC07F0F7FB00208F
:1008C00002B080BDFEE700002DE9F04381B02DEDC0
:1008D000028BB0EE408AF0EE608A9FED150B8846E1
:1008E000814651EC110B53EC102B09F053FD9FED99
:1008F000120B53EC102B09F04DFD55EC184B224612
:100900002B4606460F4609F027FA41EC100B20460D
:10091000294632463B4689ED000B09F045FE41EC85
:10092000100B88ED000BBDEC028B01B0BDE8F0832D
:1009300014AE47E17A14CE3F000000000000E03F13
:1009400040F22C0220EAE070C2F20002B0F57A7F99
:10095000A8BF4FF47A7052F8212040F22463126845
:10096000C2F2000343F82100506370477047000053
:100970002DE9F04381B043F61447C4F2010738680B
:1009800040F2246840F2E0064004C2F20008C2F2DD
:10099000000605D43868C00467D401B0BDE8F08310
:1009A0003868400444BF4FF480403860EFF3108053
:1009B00072B6D8F80800002846D040F24840C2F28B
:1009C00000000068D0F82490B068A9EB0000B06186
:1009D000B06909F053FC9FED580B02460B4651ECF1
:1009E000100B09F06DFA9FED560B54EC105B2A4684
:1009F000234609F0CFFC41EC100B4CF6002286EDAB
:100A0000140B9FED510BC3F69A32B26153EC102BCD
:100A100009F056FA2A46234609F0BCFC9FED4C0B20
:100A200053EC102B09F0B6FC9FED4B0B53EC102B45
:100A300009F0B0FC02460B4609F08EF941EC100BB0
:100A400086ED0C0B0BE000BF9FED450B40F24840DC
:100A500086ED0C0BC2F200000068D0F82490C6F8B6
:100A6000089062B63868C00497D53868C00444BF9F
:100A70004FF480503860EFF3108072B6D8F80C0055
:100A8000002847D040F24840C2F200000068476AA0
:100A9000F068381AF061F06909F0F0FB9FED260B61
:100AA00002460B4651EC100B09F00AFA9FED240B9D
:100AB00054EC105B2A46234609F06CFC41EC100B09
:100AC0004CF6002286ED160B9FED1F0BC3F69A32F3
:100AD000F26153EC102B09F0F3F92A46234609F092
:100AE00059FC9FED1B0B53EC102B09F053FC9FEDB1
:100AF0001A0B53EC102B09F04DFC02460B4609F083
:100B00002BF941EC100B86ED0E0BF76062B601B0CD
:100B1000BDE8F0839FED120B40F2484086ED0E0BCE
:100B2000C2F200000068476AF76062B601B0BDE833
:100B3000F08300BF00BF00BF000000000000F03FD6
:100B40000000000000408F4000000000006078407E
:100B50000000000000002140192D4454FB210940F1
:100B60000000000000000000F0B581B0EFF310803D
:100B700072B640F22460C2F20000006840F2E00663
:100B80000028C2F2000647D040F24840C2F20000FE
:100B90000068476A3068381A3061306909F06EFBC6
:100BA0009FED250B02460B4651EC100B09F088F91E
:100BB0009FED230B54EC105B2A46234609F0EAFB19
:100BC00041EC100B4CF6002286ED100B9FED1E0B36
:100BD000C3F69A32326153EC102B09F071F92A46B0
:100BE000234609F0D7FB9FED1A0B53EC102B09F0AD
:100BF000D1FB9FED190B53EC102B09F0CBFB0246F8
:100C00000B4609F0A9F841EC100B86ED080B376094
:100C100062B601B0F0BD00BF9FED110B40F248403D
:100C200086ED080BC2F200000068476A376062B6C2
:100C300001B0F0BD00BF00BF000000000000F03FA9
:100C40000000000000408F4000000000006078407D
:100C50000000000000002140192D4454FB210940F0
:100C6000000000000000000043F61440C4F2010040
:100C70000168C90644BF10210160FFF775BF00007D
:100C800043F61440C4F201000168090644BF802104
:100C90000160F0B581B0EFF3108072B640F22460CD
:100CA000C2F20000406840F2E0060028C2F20006EE
:100CB00046D040F24840C2F200000068476A7068BF
:100CC000381A7061706909F0D9FA9FED250B024658
:100CD0000B4651EC100B09F0F3F89FED230B54EC8D
:100CE000105B2A46234609F055FB41EC100B4CF6ED
:100CF000002286ED120B9FED1E0BC3F69A32726135
:100D000053EC102B09F0DCF82A46234609F042FB8D
:100D10009FED190B53EC102B09F03CFB9FED180BCA
:100D200053EC102B09F036FB02460B4609F014F881
:100D300041EC100B86ED0A0B776062B601B0F0BD96
:100D40009FED110B40F2484086ED0A0BC2F2000005
:100D50000068476A776062B601B0F0BD00BF00BFAF
:100D6000000000000000F03F0000000000408F4045
:100D700000000000006078400000000000002140FA
:100D8000192D4454FB210940000000000000000020
:100D9000EFF3108072B600BFFEE7000070B5866DFD
:100DA000044600F03DF994F83510022928D1054693
:100DB0002068216C026822F016020260426922F06B
:100DC0008002426109B9A16C19B1016821F00801E2
:100DD0000160016821F00101016000BF2068006826
:100DE000C00715D000F01CF9401B0628F6D32020C0
:100DF0006065032084F83500002184F8341070BD4C
:100E0000802060650120002184F8341070BD00BF8F
:100E1000E06D3F2101FA00F0B060012084F8350058
:100E20000020002184F8341070BD000090F83510C7
:100E3000022909D1052180F835100068016821F0E8
:100E40000101016000207047802141650120704749
:100E5000B0B5044600F0E4F8054640F22000C2F2C6
:100E600000000078611C18BF044400BF00F0D8F8EF
:100E7000401BA042FAD3B0BD2DE9F04F83B000F182
:100E8000200200F13E4741F60045009207F1FF774E
:100E9000C4F2020508224FEAB726A84208BF07227B
:100EA00000254FF000084FF00009072E38BF4FEA29
:100EB000B72201920AE000BF09F1010908F1020816
:100EC000B9F1100F05F1040500F0A0800F680122B0
:100ED00002FA09FE17EA0E0AEED0D1F804C0032286
:100EE0000CF003077E1E02FA08F4012E6FEA040BD1
:100EF00012D88468CE6804EA0B0406FA08F6344374
:100F00008460446824EA0E06CCF3001404FA09F461
:100F10002643466004E000BF032F01D103271EE0F3
:100F2000C6688C6806EA0B0604FA08F42643022F0A
:100F3000C66014D16FF00302009E02EA590756F80A
:100F400007C005F01C040F220B69A2402CEA020224
:100F5000A3401A43F251D1F804C00CF00307026811
:100F600007FA08F302EA0B021A431CF4403F02603E
:100F7000A2D0002243F644030292C4F202031A688C
:100F800043F6004442F480421A601A68C4F2010435
:100F900002F480420292029A29F003024FF6084CB2
:100FA0002244CFF6FF7C52F80C3005F00C070F26D8
:100FB000BE40B343019E06FA07F73B4342F80C30AC
:100FC00022684B6842EA0A07DE0358BF22EA0A0792
:100FD000276062689E0342EA0A0758BF22EA0A07AE
:100FE0006760A268DE0242EA0A0743F60C4658BF71
:100FF00022EA0A07A760C4F2010632689B0242EAAD
:101000000A0758BF22EA0A07376055E703B0BDE870
:10101000F08F0000002A08BF0904816170470000BA
:1010200041F64850C2F2000000687047002804BF33
:1010300001207047F0B581B0044690F83D0028B912
:10104000002084F83C00204600F09EFE242084F816
:101050003D002068016821F001010160016841F450
:1010600000410160016821F40041016001F0A2F833
:10107000636848F2A16CC0F2010C40F60011C0F2A6
:101080003D0163453CBF48F28041C0F21E018842E9
:1010900002D2012001B0F0BD4DF68361C4F21B31D4
:1010A000A0FB01122168970CD1F804E04FF496766A
:1010B0002EF03F0545EA92454D60774348F63816D5
:1010C0000D6AC0F24106A7FB067625F03F0763458F
:1010D00038BF960C721C3A430A62CA6948F2A0668D
:1010E0004CF6FF77C0F20106B34222EA07020BD8A2
:1010F00001385B00B0FBF3F001306FF31F300428C0
:1011000098BF04201BE000BFA768013857B119271A
:101110007B43B0FBF3F001306FF31F3070B100F58B
:10112000804007E003EB4303B0FBF3F001306FF3C3
:101130001F3018B100F5004001E000BF012010434E
:10114000C8610868D4E9072320F0C00010431843A1
:101150000860886848F2FF3204F10C0790438CCF96
:1011600018431043A6698860C86820F0FF00384320
:101170003043C860086840F001000860002020216A
:10118000206484F83D10206384F83E0001B0F0BD77
:101190002DE9F04182B01F46164688460446FFF707
:1011A0003FFF94F83D1020291ED105462068816933
:1011B000890715D5FFF734FF401B1928F6D9002001
:1011C0002021206384F83D1084F83E00216C41F01A
:1011D0002001216484F83C00022002B0BDE8F081C7
:1011E00094F83C10012903D1022002B0BDE8F0813F
:1011F000012184F83C100168C90703D1016841F05E
:1012000001010160016821F400610160222184F87C
:101210003D10102184F83E1000212164666267852C
:10122000618D21850021CFF6FF71E162E16A0268DC
:1012300011F5803F42F48062026018BF012919D184
:10124000016841F4807101604169089EC90724D199
:10125000711C18D0002E00F0C58000BFFFF7E0FE23
:10126000401BB04200F2C08020684169C907F5D038
:1012700013E000BF0829E3D0216B1129E0D0E3E798
:101280004169C90709D14169C90706D14169C9073F
:1012900004BF41695FEAC171F2D02169B1F5804FA5
:1012A00008D148F00101C9B201614169890740F1E3
:1012B000C68001E1062101EAD81707F1F0010161BA
:1012C0004169090732D44169721C14D0490500F103
:1012D000E980002E00F01082FFF7A2FE401BB04212
:1012E00000F20C822068416909071FD44169490551
:1012F000F2D5D7E04169490500F1D4804169090779
:1013000014D44169490500F1CD80416909070DD424
:101310004169490500F1C6804169090706D4416960
:10132000490500F1BF8041690907E3D55FFA88F1FB
:1013300001614169890739D44169721C4FEA415101
:1013400014D0002900F1AE80002E00F0D581FFF707
:1013500067FE401BB04200F2D181206841698907D5
:1013600024D441694905F2D59CE000BF002900F171
:1013700099804169890719D44169490500F1928032
:101380004169890712D44169490500F18B8041699F
:1013900089070BD44169490500F1848041698907B7
:1013A00004D441694905E4D57CE000BF00210191E6
:1013B00041690191816901910199016841F480714C
:1013C00001604169C90734D1711C28D056B1FFF7BB
:1013D00027FE401BB04207D820684169C907F6D0F4
:1013E00027E000BFFFF71CFE00202021206384F8C7
:1013F0003D1084F83E00216C41F0200121642168F9
:1014000084F83C000868C00544BF4FF400702064B5
:10141000012002B0BDE8F0814169C90709D14169E5
:10142000C90706D14169C90704BF41695FEAC171B3
:10143000F2D047F0F1010161416989073CD441696B
:10144000721C4FEA415113D000292BD4002E00F01A
:101450005381FFF7E5FD401BB04200F24F81206849
:101460004169890728D441694905F2D51AE000BFCE
:10147000002917D4416989071ED44169490511D44F
:101480004169890718D4416949050BD44169890725
:1014900012D44169490505D4416989070CD44169D1
:1014A0004905E7D5016841F4007101606FF480617E
:1014B0004161042023E100BF218DD9B1022911D05F
:1014C00001292DD1026822F480620260002201927B
:1014D0004269019282690192019A026842F40072A3
:1014E000026028E0026822F480620260026842F42E
:1014F000006218E000210191416901918169019127
:101500000199016841F400710160202084F83D00D8
:10151000002084F83E0084F83C0002B0BDE8F08171
:10152000026842F4806202600022019242690192E4
:1015300080690190019888B2032817D802283FD00B
:10154000012851D1002E00F099802068014651F801
:10155000142F520600F196800868C00600F1F28050
:10156000FFF75EFD401BB042EFD9E0E086B100BF5F
:101570002068014651F8142F52060ED40868C006A0
:1015800000F1E080FFF74CFD401BB042F0D9CEE007
:1015900020684169490640F1C3800069616A0870AA
:1015A000606A218D01300139606221852268638D76
:1015B000013B638553695B0770D51169017064E075
:1015C00020684169490745D4711C6BD0002E00F09A
:1015D000CD80FFF725FD401BB04200F2C980206896
:1015E00041694907F5D535E02068416949070ED4BE
:1015F000711C65D0002E00F0B980FFF711FD401B73
:10160000B04200F2B580206841694907F5D501680C
:1016100021F4806101600069616A0870606A218D4F
:1016200001300139606221852068618D0139618551
:10163000416949070ED4711C50D0002E00F09680ED
:10164000FFF7EEFC401BB04200F292802068416937
:101650004907F5D5016841F4007101600069616ACC
:101660000870606A2268411C6162218D0139218500
:10167000618D013961851169417006E02068416919
:1016800049064DD50069616A0870606A218D013094
:10169000013960622185608D0138608508047FF41E
:1016A0004AAF32E741694907D4D4416949075CBF71
:1016B00041695FEA4171CDD441694907F2D5C9E773
:1016C00041694907A3D4416949075CBF41695FEAA1
:1016D00041719CD441694907F2D598E741694907AE
:1016E000B8D4416949075CBF41695FEA4171B1D42F
:1016F00041694907F2D5ADE7FFF792FC20200021B0
:101700002022216384F83D2084F83E10226C10438F
:10171000206484F83C10012002B0BDE8F08100BFD5
:1017200050F8141FC90601460CD4FFF779FC0020BD
:101730002021206384F83D1084F83E00206C40F0A6
:1017400020000AE06FF010000860002020212063D4
:1017500084F83D1084F83E00206C2064002084F85A
:101760003C00012002B0BDE8F08100BFFFF758FC4B
:1017700000202021206384F83D1084F83E00216C75
:1017800041F02001216484F83C00012002B0BDE852
:10179000F08100002DE9F04381B01F4616468846CF
:1017A0000446FFF73DFC94F83D1020291ED1054664
:1017B00021688869800715D5FFF732FC401B19287E
:1017C000F6D900202021206384F83D1084F83E00E3
:1017D000216C41F02001216484F83C00022001B01A
:1017E000BDE8F08394F83C00012803D1022001B049
:1017F000BDE8F083012084F83C000868C00703D1ED
:10180000086840F001000860086820F40060086083
:10181000212084F83D00102084F83E000020206440
:1018200066626785608D20850020CFF6FF70E062DC
:10183000E06A10F5803F18BF012819D1086840F40C
:10184000807008604869DDF82090C00723D119F145
:10185000010016D0B9F1000F00F07E80FFF7E0FB29
:10186000401B48457AD821684869C007F6D012E085
:101870000828E3D0206B1228E0D0E3E74869C007CE
:1018800009D14869C00706D14869C00704BF486943
:101890005FEAC070F2D02069B0F5804F02D1FE201F
:1018A00039E000BF062000EAD810F030086148692E
:1018B00000072FD4486919F1010214D040057DD4E6
:1018C000B9F1000F00F03681FFF7AAFB401B484535
:1018D00000F232812168486900071BD4486940053D
:1018E000F2D56BE04869400568D44869000711D417
:1018F0004869400562D4486900070BD4486940052F
:101900005CD44869000705D44869400556D4486945
:101910000007E7D5FF2000EA080008614869800752
:1019200056D4486919F101024FEA40502CD00028E2
:1019300044D4B9F1000F00F0FD80FFF771FB401BAC
:10194000484500F2F98021684869800740D4486919
:101950004005F2D532E000BFFFF762FB00202021F6
:10196000206384F83D1084F83E00216C41F0200192
:101970002164216884F83C000868C00544BF4FF426
:10198000007020640EE100BF002817D4486980076A
:101990001ED44869400511D44869800718D44869A5
:1019A00040050BD44869800712D44869400505D426
:1019B000486980070CD448694005E7D5086840F4B9
:1019C000007008606FF4806048610420B5E000BFDB
:1019D000002000904A6900928A690092009A228D44
:1019E000002A00F0998009F101080A4652F8143FD4
:1019F0001B0637D4B8F1000F18D0B9F1000F00F072
:101A0000AD8000BF1068400500F1B080FFF708FB13
:101A1000401B484500F2A78021680A4652F8140F7F
:101A200000064FF00000EDD51CE000BF13685B0519
:101A300000F19C8013681B0614D413685B0500F149
:101A4000958013681B060DD413685B0500F18E802A
:101A500013681B0606D413685B0500F187801368C2
:101A60001B06E3D5676A3A4612F8013B0B616262D6
:101A7000628D013A6285268D0A46A6F1010CA4F812
:101A800028C052F8143F5B070DD55FEA0C430AD01B
:101A90007B78A6F1020C0B61BB1C6362638D013B7A
:101AA0006385A4F828C013685B0731D4B8F1000F30
:101AB00016D0B9F1000F51D01068400556D4FFF789
:101AC000AFFA401B48454ED821680A4652F8140F19
:101AD00040074FF00000EFD5B4F828C018E000BF71
:101AE00013685B0542D413685B0711D413685B0568
:101AF0003CD413685B070BD413685B0536D41368BA
:101B00005B0705D413685B0530D413685B07E7D522
:101B10005FEA0C427FF469AF0A6842F400720A601F
:101B2000202184F83D1084F83E0084F83C0001B088
:101B3000BDE8F083FFF774FA202000212022216302
:101B400084F83D2084F83E10226C1043206484F811
:101B50003C10012001B0BDE8F08300BF10684005D3
:101B600004D4FFF75DFA202004E000BF6FF480602A
:101B70001060042000212022216384F83D2084F895
:101B80003E10226C1043206484F83C10206C042822
:101B900008D12068016841F400710160012001B0A2
:101BA000BDE8F083012001B0BDE8F0832DE9F043EA
:101BB00083B0994616460F460446FFF731FA94F86B
:101BC0003D1020291ED1054620688169890715D559
:101BD000FFF726FA401B1928F6D9002020212063A0
:101BE00084F83D1084F83E00216C41F0200121640E
:101BF00084F83C00022003B0BDE8F08394F83C1068
:101C0000012903D1022003B0BDE8F083012284F84A
:101C10003C200368DDE90B180A9ADB0703D103684F
:101C200043F001030360036823F400630360212091
:101C300084F83D00402084F83E0000202064626269
:101C40006185608D394620850020CFF6FF70E06207
:101C5000204632464B46CDE9008501F03BFF18B1E6
:101C6000012003B0BDE8F083208D002850D020680B
:101C700008F10106014651F8142F12062CD49EB12A
:101C8000B8F1000F5AD000BF086840055ED4FFF7D6
:101C9000C7F9401B404556D82068014651F8142F1B
:101CA0001206F1D518E000BF0A6852054ED40A6842
:101CB000120611D40A68520548D40A6812060BD4D9
:101CC0000A68520542D40A68120605D40A68520509
:101CD0003CD40A681206E7D5626A114611F8013B46
:101CE0000361238D6162591E2185678D013F6785E0
:101CF00047697F070AD50F0408D051780161911C0C
:101D00006162991E2185628D013A62850904B1D113
:101D1000204641462A4602F015F838BB2068016883
:101D200041F400710160202084F83D00002084F817
:101D30003E0084F83C0003B0BDE8F083086840052D
:101D400004D4FFF76DF9202004E000BF6FF4806039
:101D50000860042000212022216384F83D2084F8BB
:101D60003E10226C1043206484F83C10206C042840
:101D70007FF476AF2068016841F4007101600120B2
:101D800003B0BDE8F0830000B0B586B0006845F64A
:101D90000001C4F2000100248842CDE90444CDE9E9
:101DA000024401942CD045F20041C4F20001884263
:101DB0004FD143F630050094C4F20205286801A90A
:101DC00040F002002860286800F0020000900098AF
:101DD000C02001901220CDE90204032004900420C9
:101DE000059040F20040C4F20200FFF745F800946D
:101DF000286940F400102861286900F4001026E0EA
:101E000043F630050094C4F20205286801A940F0A9
:101E100002002860286800F00200009000984FF44B
:101E2000406001901220CDE90204032004900420B8
:101E3000059040F20040C4F20200FFF71DF8009444
:101E4000286940F480002861286900F4800000902F
:101E5000009806B0B0BD000040F2200041F64851A5
:101E6000C2F20000C2F2000100780A681044086063
:101E70007047000080B543F60040C4F202000168DC
:101E800041F400710160016841F480610160016802
:101E900041F480710160032000F0AAF80F2000F0E7
:101EA00005F800F04BF8002080BD000010B586B0AA
:101EB00001462D200022002400F06EF82D2000F0B5
:101EC00059F843F640000194C4F20200016841F45D
:101ED000807101600068694600F48070019001988B
:101EE00001A800F047F900F065F94DF68361400064
:101EF000C4F21B31A0FB01014FF0FF3000EB914118
:101F000040F2004042F20002C2F20000C4F20002BD
:101F100040F2E733C0E90021C0E90243046100F068
:101F200005FC18B1012006B010BD00BF40F2004012
:101F3000C2F2000000F00AFD06B010BD82B0002021
:101F400043F640010190C4F202014A6842F4804223
:101F50004A604A6802F480420192019A009008683F
:101F600040F080500860086800F0805000900098B1
:101F700002B07047002848BF704700F01F010122DF
:101F800002FA01F11C2202EAD0004EF20012CEF257
:101F9000000281507047000010B54EF60C5CCEF286
:101FA000000CDCF80030C3F3022E8EF00704042C82
:101FB00028BF0424BEF103034FF0FF3E0EFA04F4E1
:101FC00038BF0023A14399400EFA03F39A4311430B
:101FD00000F00F0200F160430901043A03F5644385
:101FE0006244002848BF02F10C03197010BD0000C4
:101FF0004EF60C51CEF200010A684FF6FF031A406C
:1020000060F30A2242F0806040F0FD700860704783
:10201000002804BF012070472DE9F04143F608086D
:10202000C4F202080446D8F8F8030D4600F0070091
:10203000884207D288F8F853D8F8F80300F0070070
:10204000A84277D12068810717D5410705D5D8F870
:10205000001041F4E051C8F80010010705D5D8F888
:10206000001041F46041C8F80010D8F80010A268D0
:1020700021F0F0011143C8F80010C00740D1D8F892
:10208000F80300F00700A84207D988F8F853D8F8F9
:10209000F80300F00700A8424CD12068410707D59B
:1020A000D8F80010E26821F4E0511143C8F800109C
:1020B000000708D5D8F80000216920F4604040EA04
:1020C000C100C8F8000000F09DF8D8F800104AF6EA
:1020D0009802C1F30311C0F60002515C40F22802DD
:1020E00020FA01F140F22400C2F200000068C2F2BE
:1020F00000021160FFF7DAFE0020BDE8F08100BFAA
:102100006068811E022907D258F8081C89015CBF4B
:102110000120BDE8F08111E0012807D158F8081C22
:1021200089035CBF0120BDE8F08107E058F8081C76
:10213000890703D40120BDE8F08100BFD8F8001062
:1021400021F003010843C8F80000FEF769FF0646C6
:1021500041F28837D8F80000616800F00C00B0EB5D
:10216000810F8CD0FEF75CFF801BB842F2D90320B0
:10217000BDE8F0810F22026043F60802C4F20202B9
:10218000136803F003034360136803F0F0038360F4
:10219000136803F4E053C360D2F800C04FF4E05377
:1021A00003EADC030361D2F8F80300F007000860DB
:1021B0007047000040F2280043F60801C2F2000018
:1021C000C4F20201006809684AF6A802C1F382213C
:1021D000C0F60002515CC8407047000040F2280081
:1021E00043F60801C2F20000C4F202010068096867
:1021F0004AF6A802C1F34231C0F60002515CC84061
:102200007047000010B543F60404C4F2020460688D
:1022100000F00C0008280BD0042819BF42F200403F
:10222000C0F2F40047F64000C0F27D1010BD00BFC0
:10223000206821682368490247F64001C0F27D11F9
:1022400000F03F02C3F388105CBF42F20041C0F2CD
:10225000F401A1FB00010023FEF7BAF82168022275
:10226000C1F3014102EB4101B0FBF1F010BD0000F0
:10227000002804BF012070472DE9F04182B00446D8
:10228000007843F60006C007C4F202060CD0B0681E
:1022900000F00C00042840F081803068800303D5F2
:1022A0006068002800F06881207880071BD5B0683E
:1022B00010F00C0F09D0B06800F00C00082840F0B6
:1022C00087807068400200F183803068800703D502
:1022D000E068012840F050813068216920F0F80062
:1022E00040EAC10030602078000713D4207840070E
:1022F0002AD4A569002D00F03A81B06800F00C00E6
:10230000082840F0A580012D40F00E81012002B088
:10231000BDE8F0816069002800F082800020C4F2EE
:1023200047200121C0F8801EFEF77AFE054600BF57
:10233000706F8007DAD4FEF773FE401B0228F7D9CE
:10234000032002B0BDE8F081306C5FEAC0080AD417
:1023500000200190306C40F080503064306C00F010
:1023600080500190019847F20007C4F200073868D6
:10237000C00547D4386840F480703860FEF750FEDE
:10238000054600BF3868C0053CD4FEF749FE401B37
:102390000228F7D9032002B0BDE8F081B06800F050
:1023A0000C00082803D1706840023FF576AF6168E1
:1023B0003068B1F5803F07D0B1F5A02F40F09A808A
:1023C00040F480203060306840F4803030609AE023
:1023D000E068002840F20000C4F247205CD00121F0
:1023E0000160FEF71DFE0546306880073FF574AFBB
:1023F000FEF716FE401B0228F6D9032002B0BDE806
:10240000F08100BFA168306F012905D0052955D1A1
:1024100040F004003067306F40F00100306756E054
:102420000020C4F247200021C0F8801EFEF7F8FD0E
:10243000054600BF706F80077FF558AFFEF7F0FDCF
:10244000401B0228F6D9032002B0BDE8F08100BF8E
:102450000027C4F2472700203866FEF7E1FD022D71
:1024600005460DD13068800140F18A80FEF7D8FD25
:10247000401B02284FF00300F4D902B0BDE8F08100
:102480003068800173D5FEF7CBFD401B02284FF06A
:102490000300F5D9F1E700BF00210160FEF7C0FDA0
:1024A000054600BF306880077FF51DAFFEF7B8FD19
:1024B000401B02284FF00300F4D9DEE720F00100B2
:1024C0003067306F002920F0040030677AD0FEF7C3
:1024D000A7FD054641F28837306F800700F1848000
:1024E000FEF79EFD401BB842F6D9032002B0BDE8BE
:1024F000F08100BF20F4803030603068002920F483
:10250000802030607AD0FEF78BFD0546306880036E
:102510003FF5CAAEFEF784FD401B6428F6D90320C0
:1025200002B0BDE8F08100BF7068E16900F480028C
:102530008A4221D1216A00F03F028A421CD147F62B
:10254000C071626A0140B1EB821F15D1A16A4FF6DA
:10255000FF73C903994300F44032A1F580318A42E8
:102560000AD1E16A00F07060B0EB016F04D1002085
:1025700002B0BDE8F08100BF012002B0BDE8F081EB
:1025800004F11C052FCD084340EA8210D9034FF611
:10259000FF729143A1F5803140EA05600843706005
:1025A00001203866FEF73CFD044600BF306880011C
:1025B000DDD4FEF735FD001B02284FF00300F5D9EE
:1025C0005BE700BFFEF72CFD054641F2883700BFF0
:1025D000306F800708D5FEF723FD401BB8424FF04F
:1025E0000300F5D949E700BFB8F1000F3FF581AE10
:1025F000306C20F0805030647BE600BFFEF710FDA9
:10260000054600BF306880037FF54EAEFEF708FD3B
:10261000401B64284FF00300F4D92EE770470000F8
:102620007047000090F83C20012A04BF0220704748
:10263000B0B501F108053CCDD1E900CE23F47C53BF
:1026400022F470521A432EF4F0431A432CF4E04360
:102650001A4324F4C0431A432A43C96922F480422E
:10266000036811435964002180F83C100020B0BD7C
:1026700090F83C20012A4FF0020254D010B580F8A7
:102680003D200268D2F804E0D2F808C00C682EF0B1
:102690007003234341F2FF74C4F20004A24253606A
:1026A0000EDC40F2FF73C4F200039A4216DCB2F172
:1026B000804F2BD040F20043C4F2000324E000BF5F
:1026C00040F2FF33C4F201039A4213DC41F60003E7
:1026D000C4F200039A4219D0002313E040F600032D
:1026E000C4F200039A4211D040F60043C4F2000342
:1026F0000AE000BF44F20003C4F201039A4205D08D
:1027000040F20043C4F201039A4204D149682CF01C
:102710008003194391600121002280F83D1080F868
:102720003C20BDE81040104670470000002804BF60
:102730000120704710B5044690F83D0028B90020EC
:1027400084F83C00204600F01FF8022084F83D0089
:102750002068211D02F0C2FE012084F8460084F8A2
:102760003E0084F83F0084F8400084F8410084F87B
:10277000420084F8430084F8440084F8450084F85B
:102780003D00002010BD000080B582B0006840F21E
:10279000FF31C4F20101884220DD40F20041C4F261
:1027A000010188423CD044F20041C4F20101884258
:1027B00058D044F60001C4F20101884272D10020D1
:1027C000019043F64400C4F20200016841F4802104
:1027D0000160006800F4802062E000BFB0F1804F2B
:1027E0004ED00021C4F2010188425BD1002001904B
:1027F00043F64400C4F202000168002241F00101E6
:1028000001600068012100F0010001900198192089
:10281000FFF7C2FB192002B0BDE88040FFF7AABB5A
:102820000020019043F64400C4F202000168002237
:1028300041F0020101600068002100F002000190F7
:1028400001982C20FFF7A8FB2C20FFF793FB2D20ED
:102850000F210022FFF7A0FB2D2002B0BDE8804031
:10286000FFF788BB0020019043F64400C4F2020049
:10287000016841F400310160006800F400300FE0AD
:102880000020019043F64400C4F2020050F8041CFA
:1028900041F0010140F8041C50F8040C00F0010064
:1028A0000190019802B080BD90F83D1001291CBF35
:1028B00001207047022180F83D10006841F2FF714D
:1028C000C4F2000188420DDC40F2FF71C4F2000145
:1028D000884215DCB0F1804F2AD040F20041C4F2AA
:1028E000000123E040F2FF31C4F20101884213DC11
:1028F00041F60001C4F20001884219D0002113E022
:1029000040F60001C4F20001884211D040F60041B7
:10291000C4F200010AE000BF44F20001C4F2010168
:10292000884205D040F20041C4F20101884206D13C
:10293000816801F00701062904BF00207047016883
:1029400041F00101016000207047000090F83D1047
:1029500001291CBF01207047022180F83D1000684A
:1029600041F2FF72C168C4F20002904241F00101DD
:10297000C1600DDC40F2FF71C4F20001884215DC39
:10298000B0F1804F2AD040F20041C4F2000123E0B0
:1029900040F2FF31C4F20101884213DC41F600012C
:1029A000C4F20001884219D0002113E040F6000172
:1029B000C4F20001884211D040F60041C4F2000187
:1029C0000AE000BF44F20001C4F20101884205D0D0
:1029D00040F20041C4F20101884206D1816801F051
:1029E0000701062904BF00207047016841F001017A
:1029F000016000207047000090F83C20012A4FF051
:102A000002026CD080B580F83D20D0F800C04FF6AF
:102A10007772DCF8083023EA0202CCF808200B6851
:102A20004F2B29DC1F2B45DD202B46D0302B44D0EB
:102A3000402B40F0AF80D1F804E0C968DCF82030CA
:102A4000DCF8202022F00102CCF82020DCF818204D
:102A500022F0F00242EA011123F00A0242EA0E02D9
:102A6000CCF81810CCF82020DCF8081041F0470111
:102A700021F0300128E000BF6F2B33DDB3F5005F9C
:102A800074D0B3F5805F21D0702B40F08380D1E902
:102A900001E3C968DCF8082043EA0E0322F47F4210
:102AA00043EA01211143CCF80810DCF8081041F08A
:102AB000770109E00BB1102B6CD1DCF8081021F084
:102AC0007001194341F00701CCF8081000220121E0
:102AD00080F83D10002180F83C10BDE88040104691
:102AE000704700BF502B21D0602B53D1D1F804E0A8
:102AF000C968DCF8203023F01003CCF82030DCF873
:102B00001830DCF8202023F4704322F0A00243EABE
:102B1000013142EA0E12CCF81810CCF82020DCF873
:102B2000081041F0670121F01001CDE7D1F804E071
:102B3000C968DCF82030DCF8202022F00102CCF853
:102B40002020DCF8182022F0F00242EA011123F0E4
:102B50000A0242EA0E02CCF81810CCF82020DCF869
:102B6000081041F0570121F02001ADE7D1E901E360
:102B7000C968DCF8082043EA0E0322F47F4243EAE6
:102B800001211143CCF80810DCF8081041F4804111
:102B90009AE700BF01229AE780B590F83E2090F8AE
:102BA0003F3090F842E090F843C004290AD0B9B908
:102BB000012A4FF0010208BFBEF1010F34D01046C8
:102BC00080BD00BF012B4FF0010208BFBCF1010F17
:102BD000F5D1022180F83F1080F8431000681EE014
:102BE000012A4FF0010208BF012BE8D1BEF1010F0D
:102BF000E5D1BCF1010FE2D1022280F83E2080F83D
:102C00003F2080F8422080F8432091B10068016A9B
:102C100021F001010162016A41F00101016210210C
:102C20006FF0100209E000BF022180F83E1080F82A
:102C30004210006801216FF00102036A1A4002622B
:102C4000026A114301620168002241F00101016042
:102C5000104680BD7047000010B501680446086941
:102C6000800744BFC8685FEA807039D408694007AC
:102C700044BFC8685FEA40703ED40869000744BF9B
:102C8000C8685FEA007045D40869C00644BFC868D8
:102C90005FEAC0604AD40869C0071CBFC8685FEA21
:102CA000C07051D10869000644BFC8685FEA00607F
:102CB00052D40869400644BFC8685FEA406053D4F4
:102CC0000869800646BFC8685FEA806010BD6FF083
:102CD000200220460A61BDE81040FFF7A1BC00BFFA
:102CE0006FF002000861012020778869800743D0D7
:102CF0002046FFF7AFFF45E06FF0040008610220B7
:102D00002077886910F4407F40D02046FFF7A2FF6B
:102D100042E000BF6FF00800086104202077C86916
:102D200080073DD02046FFF795FF3FE06FF0100091
:102D3000086108202077C86910F4407F3AD0204607
:102D4000FFF788FF3CE000BF6FF0010008612046FC
:102D500000F0AEFA2168A5E76FF080000861204618
:102D6000FFF75CFC2168A4E76FF040000861204693
:102D700000F04AFB2168A3E7204600F0B5F82046A2
:102D800000F00CFA2168002020776FE7204600F061
:102D9000ABF8204600F002FA2168002020776CE7AB
:102DA000204600F0A1F8204600F0F8F92168002044
:102DB000207769E7204600F097F8204600F0EEF90A
:102DC00021680020207766E780B586B0006844F26D
:102DD000FF31C4F2010188424FF000010591CDE9B5
:102DE0000311CDE9011125DC40F20041C4F20101DB
:102DF00088423DD044F20001C4F20101884270D102
:102E00000020009043F63000C4F20200016841F057
:102E1000100101600068022100F01000009000988D
:102E20002020019041F20040C4F20200A0F5806031
:102E30004EE000BF44F20041C4F20101884231D0AB
:102E400044F60001C4F2010188424AD100200090FA
:102E500043F63000C4F20200016841F02001016035
:102E60000068022100F020000090009880202AE0F5
:102E70000020009043F63000C4F20200016841F0E7
:102E8000040101600068022100F004000090009835
:102E90004020019041F20040C4F20200A0F54060E1
:102EA00016E000BF0020009043F63000C4F202009C
:102EB000016841F0200101600068032100F020005A
:102EC000009000984020019041F20040C4F20200BE
:102ED000049103210222059101A9CDE90222FDF707
:102EE000CBFF06B080BD00007047000090F83C307A
:102EF000012B04BF022070474FEAB202032A00F2FE
:102F0000FF802DE9F043DFE802F003B13F7F00BF0F
:102F1000036840F200461A6A43F4806522F0010219
:102F20001A621C6A1A46D3F804C052F818EF8F6868
:102F300024F00204C4F20106B54244EA070405D1B4
:102F4000CF6824F00C0427F004073C430F68B54217
:102F500006D1D1E905582CF440762E4346EA080CF8
:102F60002EF073063743C3F804C09F614F680969A8
:102F70005F631C629F6947F008079F619F6927F0A4
:102F800004079F61B1E000BF036840F200481A6A7D
:102F900043F4806522F480721A621C6A1A46D3F8E0
:102FA00004C052F81CEF8F6824F40074C4F20108C6
:102FB000454544EA072408D1CF6840F2FF463F0266
:102FC00024F4406427EA06063443D1F800904545CE
:102FD00006D1D1E905562CF440572E4347EA061C8A
:102FE0002EF0730747EA0907C3F804C0DF614F6892
:102FF0000969DF631C62DF6947F00807DF61DF6989
:1030000027F00407DF6170E0036840F200451A6AA8
:1030100043F4806722F480521A621A46D3F820C023
:103020005C6852F81C8FD1F800E08E68C4F201058C
:10303000AF4204D14D6924F4804444EA85142CF451
:10304000005747EA063728F4E64646EA0E265C6053
:10305000DE614E6809691E641F62DF6947F400671C
:10306000DF61DF6927F48067DF613DE0036840F2DC
:1030700000481A6A43F4806522F010021A621C6A42
:103080001A46D3F804C052F818EF8F6824F02004D1
:10309000C4F20108454544EA071407D1CF686FF030
:1030A000400624F0C00406EA07163443D1F8009025
:1030B000454506D1D1E905562CF440672E4347EA31
:1030C000860C2EF4E64747EA0927C3F804C09F613F
:1030D0004F6809699F631C629F6947F400679F619D
:1030E0009F6927F480679F61090213681943116083
:1030F0000021BDE8F043002280F83C2008467047DC
:103100000121002280F83C2008467047002804BFB7
:103110000120704710B5044690F83D0028B9002002
:1031200084F83C00204600F01FF8022084F83D009F
:103130002068211D02F0D2F9012084F8460084F8AD
:103140003E0084F83F0084F8400084F8410084F891
:10315000420084F8430084F8440084F8450084F871
:103160003D00002010BD0000006844F20001C4F2E0
:103170000101884218BF704781B00020009043F6DB
:103180004400C4F20200016841F48031016000682B
:1031900000F480300090009801B070477047000044
:1031A000C1B1042908D0082914BF41224022825C01
:1031B000012A05D016E000BF3F22825C012A11D10E
:1031C0000222082910D0042914BF80F8412080F879
:1031D0003F200BE090F83E20012A03D1022280F824
:1031E0003E2003E00120704780F84020006801F095
:1031F0001F010122036A02FA01F123EA01020262BD
:10320000026A114341F2FF72C4F20002904201626D
:103210000CDC40F2FF71C4F20001884214DCB0F112
:10322000804F37D040F2004116E000BF40F2FF313E
:10323000C4F20101884215DC41F60001C4F200012C
:10324000884227D0002115E040F60001C4F20001B9
:1032500088421FD040F60041C4F20001884219D0D4
:103260001FE000BF44F20001C4F20101884211D006
:1032700040F20041C4F20101884212D1416C40F297
:10328000004340F48062C4F2010341F400419A42D9
:10329000416406D1816801F00701062904BF0020BE
:1032A0007047016841F00101016000207047000093
:1032B00000680021C4F20101884209D042F20001F5
:1032C000C4F20001884218BF7047FEF7C5BD00BFB9
:1032D000B0B52DED048BEFF3108072B640F248408C
:1032E000C2F20000006840F2F005C2F200054CF6A0
:1032F000FF13406A2968C3F69A3348F29F629942E5
:1033000040F2E001C0F20102C2F200010CD90C68E7
:10331000041B944208D99FED380B40F20014C2F20E
:103320000004086084ED000B6C689C420CD94C686A
:10333000041B944208D99FED300B40F20014C2F2F6
:103340000004486084ED020BAC689C420CD98C6888
:10335000041B944208D99FED280B40F20014C2F2DE
:103360000004886084ED040BED689D420CD9CB68A5
:10337000C31A934208D9C8609FED1F0B40F200109A
:10338000C2F2000080ED060B40F24012C2F20002D1
:1033900092ED120B92ED149B51EC100B9FED180B5C
:1033A00055EC104B22462B4606F0F4FF41EC180B6F
:1033B00051EC190B22462B4606F0ECFF41EC110BA9
:1033C000B0EE480AF0EE680A05F0E8FF41F6445016
:1033D000C2F2000001684CF2503201310160016814
:1033E0009142BDEC048BBDE8B040A4BF0021016058
:1033F00062B6704700BF00BF000000000000000080
:1034000000000000000059407047000070470000B5
:1034100070470000B0B582B001680A68CC684B699B
:1034200002F02F05202D04F0200505D125B102B0B2
:10343000BDE8B04002F0F2B85FEA027C1EBF03F0C4
:10344000010E04F4907313EB0E0341D1036BD50608
:1034500018D5012B16D114F0100313D000220192BD
:103460000A6801924A680192019A496949064BD457
:10347000818DC28DC38D002B18BF914240F0F28127
:1034800002B0B0BD13062DD514F080032AD090F8F9
:103490003D20212AF4D18268B2F5805F03D1026910
:1034A000002A00F06382026A531C036212784A60A9
:1034B000C28C013A1304C284E2D1C86820F08000B3
:1034C000C860C86840F04000C86002B0B0BD00BF2E
:1034D000D30718BF14F4807340F0CE80530700F177
:1034E000D180D6E05206CBD514F04002C8D0CA68CD
:1034F00022F04002CA60202180F83D1002B0BDE8F1
:10350000B04000F0D7BA00BF826B11684B689DB223
:10351000002DB5D0818D8D42B2D2C385D269B2F56E
:10352000807F00F0A180016851E8031F026821F448
:10353000807142E80313DBB1016851E8031F0268A0
:1035400021F4807142E8031393B1016851E8031F2D
:10355000026821F4807142E803134BB1016851E81D
:10356000031F026821F4807142E80313002BDAD1B3
:10357000016851E8051F026821F0010142E80513C6
:10358000BBB3016851E8051F026821F0010142E860
:10359000051373B3016851E8051F026821F00101AA
:1035A00042E805132BB3016851E8051F026821F0BA
:1035B000010142E80513002BDAD11AE0016851E855
:1035C000051F026821F0400142E80513DBB10168E4
:1035D00051E8051F026821F0400142E8051393B14C
:1035E000016851E8051F026821F0400142E8051317
:1035F0004BB1016851E8051F026821F0400142E823
:103600000513002BDAD1202180F83E100021016340
:10361000016851E8031F026821F0100142E803131A
:10362000DBB1016851E8031F026821F0100142E894
:10363000031393B1016851E8031F026821F01001E0
:1036400042E803134BB1016851E8031F026821F0FF
:10365000100142E80313002BDAD1816B04460846BF
:10366000FDF79CFBA18D2046C28D891A89B202B05C
:10367000BDE8B040FFF7CABE036C43F0010303642A
:10368000530706D5BEF1000F03D0036C43F00203CD
:103690000364930706D5BEF1000F03D0036C43F01B
:1036A00004030364BCF1000F06D55EEA050303D0F2
:1036B000036C43F008030364036C002B3FF4E0AE9B
:1036C000920605D525B1044601F0A8FF21682046E1
:1036D0004969026C01F0400102F00802891800F00B
:1036E000B98000BF016851E8031F026821F490719E
:1036F00042E80313BBB3016851E8031F026821F4D9
:10370000907142E8031373B3016851E8031F026824
:1037100021F4907142E803132BB3016851E8031FB1
:10372000026821F4907142E80313002BDAD11AE009
:10373000016851E8051F026821F0010142E8051304
:10374000DBB1016851E8051F026821F0010142E880
:10375000051393B1016851E8051F026821F00101CA
:1037600042E805134BB1016851E8051F026821F0DA
:10377000010142E80513002BDAD1016B012924D1A4
:10378000016851E8031F026821F0100142E80313A9
:10379000DBB1016851E8031F026821F0100142E823
:1037A000031393B1016851E8031F026821F010016F
:1037B00042E803134BB1016851E8031F026821F08E
:1037C000100142E80313002BDAD1202180F83E10CB
:1037D0000021016301684969490640F1C18001681F
:1037E00051E8051F026821F0400142E80513DBB1F2
:1037F000016851E8051F026821F0400142E8051305
:1038000093B1016851E8051F026821F0400142E8C8
:1038100005134BB1016851E8051F026821F0400112
:1038200042E80513002BDAD1816B002900F0988063
:1038300045F21162C0F60002044608460A65FDF72B
:10384000F5FA00283FF41CAEA06B016D02B0BDE894
:10385000B04008470446FFF7DBFD0020206402B0BB
:10386000B0BD00BF891A00BF026852E8032F036889
:1038700022F4907243E80325BDB3026852E8032F97
:10388000036822F4907243E8032575B3026852E896
:10389000032F036822F4907243E803252DB30268D6
:1038A00052E8032F036822F4907243E80325002DA9
:1038B000DAD11AE0026852E8052F036822F001020B
:1038C00043E80525DDB1026852E8052F036822F0C0
:1038D000010243E8052595B1026852E8052F036807
:1038E00022F0010243E805254DB1026852E8052F98
:1038F000036822F0010243E80525002DDAD12022D9
:1039000080F83E2000220263026852E8032F036819
:1039100022F0100243E80325DDB1026852E8032FCC
:10392000036822F0100243E8032595B1026852E8CB
:10393000032F036822F0100243E803254DB102680B
:1039400052E8032F036822F0100243E80325002DFC
:10395000DAD189B202B0BDE8B040FFF757BD00BF71
:1039600002B0BDE8B040FFF753BD00BF026A32F8B5
:10397000023B6FF35F234B60026299E5002804BFAE
:103980000120704710B5044690F83D0028B900208A
:1039900084F83C00204600F021F8242084F83D0003
:1039A0002068C16821F40051C160204601F0B6FED4
:1039B0002068016921F490410161416921F02A01E7
:1039C0004161C16841F40051C160002020212064A0
:1039D00084F83D1084F83E1010BD000080B586B01C
:1039E00041F200010068C4F2010100228842059200
:1039F000CDE903220292019202D006B080BD00BF41
:103A000043F630000092C4F20200436943F0100311
:103A10004361436903F010030093009B0092036825
:103A200043F001030360006800F00100009000987B
:103A30004FF4C06001900220CDE902020120049001
:103A40000720059001F5704001A9FDF715FA252022
:103A500018210022FEF7A0FA2520FEF78BFA06B007
:103A600080BD00007047000090F83D30202B0BD146
:103A700000294FF0010318BF002A01D118467047F2
:103A800090F83C30012B03D102231846704700BF49
:103A90000162002321218284C284036480F83D10E6
:103AA000016880F83C30C86840F08000C860184663
:103AB00070470000006841F20001C4F20101884231
:103AC00018BF704740F24010C2F20000006904F0D5
:103AD000A7B800002DE9F04381B004460068904685
:103AE0000268099D42F4807202604269089E99460C
:103AF000D2070F461DD1711C11D0002E00F0D080CE
:103B0000FDF78EFA401BB04200F2CC80206841697C
:103B1000C907F5D00DE000BF4169C90709D1416966
:103B2000C90706D14169C90704BF41695FEAC1718C
:103B3000F2D007F0FE0101614169890736D441697D
:103B4000721C1CD0490510D4002E00F0E78000BF85
:103B5000FDF766FA401BB04200F2E280206841693E
:103B6000890723D441694905F2D5016841F4007100
:103B700001606FF4806141610420D2E04169490530
:103B8000F3D44169890711D441694905EDD44169EC
:103B900089070BD441694905E7D44169890705D4F0
:103BA00041694905E1D441698907E7D500210091C0
:103BB000014651F8142F00924A680092009A0A6850
:103BC00012061ED4002E00F08580721C53D10A68A4
:103BD000520500F187800A68120612D40A6852055D
:103BE00000F180800A6812060BD40A68520579D465
:103BF0000A68120605D40A68520573D40A681206C8
:103C0000E5D5B9F1010F23D04FEA18210161014632
:103C100051F8142F12061BD4002E5BD0721C3AD11F
:103C20000A6852055ED40A68120611D40A68520561
:103C300058D40A6812060BD40A68520552D40A688E
:103C4000120605D40A6852054CD40A681206E7D554
:103C50005FFA88F10161002001B0BDE8F08300BF88
:103C6000FDF7DEF9401BB04239D82068014651F813
:103C7000142F1206C5D408684005F1D532E000BF04
:103C8000FDF7CEF9401BB04229D82068014651F813
:103C9000142F1206DCD408684005F1D522E000BFDD
:103CA000FDF7BEF900202021206384F83D1084F840
:103CB0003E00216C41F020012164216884F83C0021
:103CC0000868C00544BF4FF400702064032001B0B1
:103CD000BDE8F0830868400504D4FDF7A1F9202071
:103CE00004E000BF6FF480600860042000212022FF
:103CF000216384F83D2084F83E10226C1043206438
:103D000084F83C10206C042817D12068016841F425
:103D100000710160012001B0BDE8F083FDF780F97A
:103D2000202000212022216384F83D2084F83E10C9
:103D3000226C1043206484F83C10012001B0BDE8DF
:103D4000F083000070B50368044653F8140F400771
:103D500037D40E46F1B1701C24D100BF186840055D
:103D600032D4186840072CD4186840052CD4186841
:103D7000400726D41868400526D41868400720D488
:103D80001868400520D4186840074FF0000048BF6D
:103D900070BDE3E71868400516D4FDF741F920200F
:103DA00016E000BF154600BF186840050CD4FDF7AB
:103DB00037F9401BB042F2D8236853F8140F40077C
:103DC000F2D5002070BD00BF6FF480601860042041
:103DD00000212022216384F83D2084F83E10226CCB
:103DE00010432064012084F83C1070BD70B540F28F
:103DF000D840C2F2000000210026FFF7D1F940F2BE
:103E00002050C2F200000021FFF7CAF940F27030E2
:103E1000C2F200000021FFF7C3F940F2B830C2F24D
:103E200000000021FFF7BCF940F2401043F23332AA
:103E300045F2555445F25655C2F200004FF080410C
:103E4000C3F6D3724FF03333C4F20104C5F25555B3
:103E5000C0E90861C0E90A32C0E90C543C200021E5
:103E6000582201F0FDFD0A20FCF7F2FF3C20012161
:103E7000002201F0F5FD0A20FCF7EAFF3C200221B8
:103E8000002201F0EDFD0A20BDE87040FCF7E0BF24
:103E90002DE9F04F81B02DED0A8BADF59E3DFAB0C6
:103EA000CDE90A3200220291002616A9C3F6F0726B
:103EB000002300BFCF18CE5003F5A073B3F5FA5F0F
:103EC000C7E90126C7E90326C7E90526C7E907268A
:103ED000C7E90926C7E90B26C7E90D26C7E90F265A
:103EE000C7E91126C7E91326C7E91526C7E917262A
:103EF000C7E91926C7E91B26C7E91D26C7E91F26FA
:103F0000C7E92126C7E92326C7E92526C7E92726C9
:103F1000C7E92926C7E92B26C7E92D26C7E92F2699
:103F2000C7E93126C7E93326C7E93526C7E9372669
:103F3000C7E93926C7E93B26C7E93D26C7E93F2639
:103F4000C7E94126C7E94326C7E94526C7E9472609
:103F5000C7E94926C7E94B26C7E94D26C7F83C21E2
:103F6000A8D1DDF82C900C90A9F10101B9F1010F55
:103F7000039109F003010491C0F2648303990329BA
:103F800002D24FF0000A5BE14FF6FC71C7F6FF71F9
:103F900000F110080A9801EA090113914101C000DB
:103FA0004FF0000A1291159018ED040B98ED001BCC
:103FB00018ED028B59EC115B56EC107B28464946F4
:103FC0003A463346CDF850A088ED080B88ED0A8BB1
:103FD00088ED0C1B06F0DEF941EC100B54EC18AB2D
:103FE000284649465246234688ED060B06F0D2F98C
:103FF00041EC100B504621463A46334688ED040BFF
:1040000006F0C8F941EC100B384631463A463346C3
:1040100088ED020B06F0BEF941EC100B504621462C
:104020005246234608ED040B06F0B4F941EC100BA0
:10403000284649462A464B4608ED020B06F0AAF9E7
:1040400041EC100B159888ED000B08EB000B1BEDF5
:10405000040B9BED001B1BED028B59EC11AB56ECD6
:10406000107B504649463A4633468BED080B8BEDA4
:104070000A8B8BED0C1B06F08DF941EC100B54EC08
:10408000185B504649462A4623468BED060B06F040
:1040900081F941EC100B284621463A4633468BED18
:1040A000040B06F077F941EC100B384631463A46DE
:1040B00033468BED020B06F06DF941EC100B2846F0
:1040C00021462A4623460BED040B06F063F941EC2A
:1040D000100B5046494652464B460BED020B06F07C
:1040E00059F941EC100B15988BED000B0BEB00060A
:1040F00016ED040B96ED001B16ED028B59EC11AB7F
:104100005BEC107B504649463A465B4686ED080B11
:1041100086ED0A8B86ED0C1B06F03CF941EC100B8A
:1041200054EC185B504649462A46234686ED060B5A
:1041300006F030F941EC100B284621463A465B4622
:1041400086ED040B06F026F941EC100B3846594673
:104150003A465B4686ED020B06F01CF941EC100B6B
:10416000284621462A46234606ED040B06F012F99E
:1041700041EC100B5046494652464B4606ED020BA9
:1041800006F008F941EC100B159886ED000B06447B
:1041900016ED040B96ED001B16ED028B59EC11ABDE
:1041A0005BEC107B504649463A465B4686ED080B71
:1041B00086ED0A8B86ED0C1B06F0ECF841EC100B3B
:1041C00054EC185B504649462A46234686ED060BBA
:1041D00006F0E0F841EC100B284621463A465B46D3
:1041E00086ED040B06F0D6F841EC100B3846594624
:1041F0003A465B4686ED020B06F0CCF841EC100B1C
:10420000284621462A46234606ED040B06F0C2F84E
:1042100041EC100B5046494652464B4606ED020B08
:1042200006F0B8F8DDF850A041EC100B13980AF135
:10423000040A5045129886ED000B80447FF4B4AE1A
:1042400004990C9A002900F005810A980AFB00F0F5
:1042500002EBC00494ED000B94ED041B94ED028B73
:104260005BEC118B55EC106B4046594632462B46A1
:1042700084ED0C0B84ED0E8B84ED101B06F08AF898
:1042800041EC100B57EC189B404659464A463B46BA
:1042900084ED0A0B06F07EF841EC100B48463946D7
:1042A00032462B4684ED080B06F074F841EC100BF7
:1042B0003046294632462B4684ED060B06F06AF856
:1042C00041EC100B484639464A463B4684ED000B0C
:1042D00006F060F841EC100B4046049D59464246FA
:1042E0005B4684ED020B06F055F80C9A41EC100B7E
:1042F000012D84ED040B00F0AD800A990AF1010054
:10430000484302EBC00797ED000B97ED041B97EDB8
:10431000028B5BEC118B55EC106B404659463246D4
:104320002B4687ED0C0B87ED0E8B87ED101B06F0EF
:1043300031F841EC100B54EC189B404659464A4664
:10434000234687ED0A0B06F025F841EC100B484692
:10435000214632462B4687ED080B06F01BF841EC50
:10436000100B3046294632462B4687ED060B06F0E9
:1043700011F841EC100B484621464A46234687ED8A
:10438000000B06F007F841EC100B40465946424638
:104390005B4687ED020B05F0FDFF41EC100B049826
:1043A0000C9A022887ED040B54D00A990AF10200F6
:1043B000484302EBC00797ED000B97ED041B97ED08
:1043C000028B5AEC118B55EC106B4046514632462D
:1043D0002B4687ED0C0B87ED0E8B87ED101B05F040
:1043E000D9FF41EC100B54EC189B404651464A460D
:1043F000234687ED0A0B05F0CDFF41EC100B484634
:10440000214632462B4687ED080B05F0C3FF41ECF1
:10441000100B3046294632462B4687ED060B05F039
:10442000B9FF41EC100B484621464A46234687ED2A
:10443000000B05F0AFFF41EC100B404651464246E1
:10444000534687ED020B05F0A5FF0C9A41EC100BCB
:1044500087ED040BDDF82C90B9F1010FC0F2F2806A
:104460000A980128C0F2EE8003980A990028A1F169
:104470000100079000F090814FF6FC70C7F6FF70C6
:10448000023000EA090013900801129009EB49007C
:104490000DF1280EA2F120064FEAC00A21F0030018
:1044A0000EF5125E01F003074FEA49154FEA0914B1
:1044B00040424FEAC9030EF1080B06EBC10C4FF066
:1044C000000914970EE000BF159E129A139909F186
:1044D000020916440EF1100E0BF1100B894594449D
:1044E00000F05C81079900220329159619D37146C3
:1044F000374600BF07F1200696EC080BCE1881ED79
:10450000000B86ED001B0E19043A203786ED002BB8
:1045100001EB0A062944904286ED003BEAD1149F44
:1045200052428FB30AA901F5125101EBC9080A9949
:104530000C9E09FB01F106EBC10101EBC20696EDF1
:10454000000B0B9E012F02FB06F608EBC60686ED5C
:10455000000B19D0561C01EBC60797ED000B0B9F03
:104560007E43149F08EBC606022F86ED000B0BD08E
:10457000023201EBC20191ED000B0B99514308EBA4
:10458000C10181ED000B00BF0799032904D24FF050
:10459000000807BB98E700BF00226746594600BFE6
:1045A00007F1200696EC080BCE1881ED000B86ED86
:1045B000001B0E19043A203786ED002B01EB0A068A
:1045C0002944904286ED003BEAD1149FC2F10008D5
:1045D000002F3FF479AF0AA90A9E49F0010201F5C4
:1045E000125101EBC20172430C9E012F06EBC20275
:1045F00002EBC80696ED000B0B9E08FB06F601EBDE
:10460000C60686ED000B3FF45FAF08F1010602EB32
:10461000C60797ED000B0B9F7E43149F01EBC60668
:10462000022F86ED000B3FF44FAF08F1020602EBBC
:10463000C60292ED000B0B9A724301EBC20181EDB1
:10464000000B41E70DF1200E0EF508500DF1180E8C
:104650000A9A0EF5FC5101F013FD0C9C049DB9F172
:10466000010FC0F2918003989DED168B032803D2B1
:104670000026002D4DD187E00298203CA0F12007B4
:104680004FF6FC70C7F6FF7000EA0900C0F10008A1
:10469000002556EC18AB494694ED080B524651ECF8
:1046A000100B334604F1200907F1200B05F072FED0
:1046B00041EC100B524687ED080B94ED0A0B334684
:1046C00051EC100B05F066FE41EC100B524687EDE5
:1046D0000A0B94ED0C0B334651EC100B05F05AFE0F
:1046E00041EC100B524687ED0C0B94ED0E0B33464C
:1046F00051EC100B05F04EFE41EC100B043D87ED24
:104700000E0BA8455F464C46C6D16E420C9C049DDC
:10471000D5B304EBC60090ED000B029858EC189B43
:1047200000EBC60751EC100B4A46434605F032FE3B
:1047300041EC100B012D87ED000B25D0701C04EB14
:10474000C00191ED000B02994A4601EBC00751EC04
:10475000100B434605F01EFE41EC100B022D87EDB9
:10476000000B11D0B01C04EBC00191ED000B0299BD
:104770004A4601EBC00651EC100B434605F00AFE19
:1047800041EC100B86ED000B0DF59E3D7AB0BDECB3
:104790000A8B01B0BDE8F08F4FF000090B9BDDF8EC
:1047A00030A0D80764D00DF1280E0A9B0EF51250E8
:1047B00000EBC90C09FB03F00AEBC00E079803F0ED
:1047C0000308032806D200200B9BB8F1000F2BD161
:1047D0004EE000BF0B99AEF1200201EB41004FEA21
:1047E000C00923F003004F010E014542C800002418
:1047F000614600BF02F1200393EC080B0B1881ED1A
:10480000000B83ED001B8B19043C203283ED002B41
:1048100001EB09033944A54283ED003BEAD1604234
:104820000B9BB8F1000F23D00EEBC00191ED000BF4
:1048300000FB03F10CEBC101B8F1010F81ED000B9E
:1048400016D0411C0EEBC10292ED000B59430CEB4C
:10485000C101B8F1020F81ED000B09D002300EEB5F
:10486000C00191ED000B58430CEBC00080ED000B34
:10487000012B40F05D810798002800F079820A98AA
:104880000DF1200E20F00101129100F0030120F043
:1048900003000EF50858AAF12002C0F10009A8F1A2
:1048A000180600241092159109E000BF139E12987B
:1048B00002341036844208F1100800F05A820DF1DB
:1048C000280E0EF5125000EBC40090ED008B0798F7
:1048D000CDE91364032803D20026002942D185E0E4
:1048E0001098002790ED080B54EC185B00F1200A9B
:1048F00090ED0AAB90ED0CBB90ED0E9B53EC102BA2
:104900002846214605F046FD41EC100B53EC1A2BCE
:104910002846214686ED060B06F1200B05F03AFDF0
:1049200041EC100B53EC1B2B2846214686ED080B5F
:1049300005F030FD41EC100B53EC192B28462146B5
:1049400086ED0A0B05F026FD41EC100B043F86EDC9
:104950000C0BB9455E465046C4D1DDE914417E4298
:10496000002943D00DF1200E0EF5085000EBC40ACB
:104970000C985BEC185B00EBC60090ED000B284632
:1049800053EC102B59460AEBC60705F003FD41EC2A
:10499000100B159987ED000B012927D00C99701C7D
:1049A00001EBC00191ED000B0AEBC00753EC102B9B
:1049B0002846594605F0EEFC41EC100B159987EDA1
:1049C000000B022912D00C99B01C01EBC00191ED33
:1049D000000B0AEBC00653EC102B2846594605F095
:1049E000D9FC41EC100B159986ED000B0DF1280E4A
:1049F00044F001020EF5125000EBC20090ED008B66
:104A00000798032804D20027002949D14EE700BFA8
:104A1000DDF830B000274FF0000A11920BEB0A00CE
:104A200090ED000B54EC185B90ED02AB90ED04BBE5
:104A300090ED069B53EC102B2846214608EB0A0606
:104A400005F0A8FC41EC100B53EC1A2B284621462C
:104A500086ED020B05F09EFC41EC100B53EC1B2B7A
:104A60002846214686ED040B05F094FC41EC100B22
:104A700053EC192B2846214686ED060B05F08AFCDF
:104A800041EC100B043FB9450AF1200A86ED080BF2
:104A9000C4D1DDE91441119A7F4200293FF406AFE9
:104AA0000DF1200E0EF5085000EBC20A0C985BECDD
:104AB000185B00EBC70090ED000B284653EC102B61
:104AC00059460AEBC70605F065FC41EC100B159939
:104AD00086ED000B01293FF4E9AE0C99781C01EB3F
:104AE000C00191ED000B0AEBC00653EC102B2846D9
:104AF000594605F04FFC41EC100B159986ED000B63
:104B000002293FF4D3AE0C99B81C01EBC00191ED22
:104B1000000B0AEBC00653EC102B2846594605F053
:104B200039FC41EC100B159986ED000BBEE600BF79
:104B3000981E0D9003980A9900F0030220F00300DC
:104B4000159048010DF1280E08900EF512502030F6
:104B50000990D800059001EB41004FEAC00B4FEAE5
:104B600001191F46CE000023109214960AE000BFE0
:104B7000069B0998059901330B9F534508440990FA
:104B800000F098810DF1280E03FB07F00EF512518D
:104B9000069301EBC0030DF1200EDDF830800EF519
:104BA000085193ED008BDDF828A001EBC000002137
:104BB0004746CDE90E030BE00E981299119F00EBCA
:104BC000C1000131514507F1080780ED009BCFD0AE
:104BD00008EBC10090ED000B1291139053EC102BD9
:104BE00051EC180B05F0D6FB41EC190B0D98119701
:104BF000032805D20127109A1399002A62D1DBE716
:104C0000DDF824804E46D946DDF820B04FF0000A8A
:104C1000149818ED060B384490ED001B18ED04CBEA
:104C200018ED02BB98ED00AB53EC112B51EC100BBF
:104C300005F0B0FB53EC192B05F08EF80446B819BB
:104C400090ED000B0D4653EC102B51EC1C0B05F0B6
:104C5000A1FB22462B4605F07FF8044607EB09002E
:104C600090ED000B0D4653EC102B51EC1B0B05F097
:104C700091FB22462B4605F06FF85F4497ED000B41
:104C800004460D4653EC102B51EC1A0B05F082FB39
:104C900022462B4605F060F841EC190B15980AF1F5
:104CA000040A504508F12008B2D10AF10107DDF8E5
:104CB0003080DDF828A0CB46B146109A1399002A1F
:104CC0003FF47AAF0F9800EBC70090ED000B07FBA5
:104CD0000AF001EBC00090ED001B51EC100B53ECFF
:104CE000112B05F057FB53EC192B05F035F8109AF2
:104CF000139B41EC190B012A3FF45EAF0D460F994F
:104D00000446781C01EBC00100FB0AF003EBC00075
:104D100091ED000B90ED001B51EC100B53EC112B9F
:104D200005F038FB22462B4605F016F8109A139B27
:104D300041EC190B022A3FF43FAF0D460F99044690
:104D4000B81C01EBC00100FB0AF003EBC00091EDC1
:104D5000000B90ED001B51EC100B53EC112B05F0E8
:104D600019FB22462B4604F0F7FF41EC190B23E711
:104D700000240A980B9FC00700F09C800DF1280EBC
:104D80000EF5125000EBC40090ED008B07980DF16A
:104D9000200E03280A980EF5085101EBC40A00F012
:104DA000030401D2002647E020F00300DDF8308044
:104DB0001594C0F1000B002559EC184B002600BFDC
:104DC00008EB060090ED000B90ED02AB90ED04BBFC
:104DD00090ED069B53EC102B204649460AEB060744
:104DE00005F0D8FA41EC100B53EC1A2B204649463B
:104DF00087ED000B05F0CEFA41EC100B53EC1B2BAA
:104E00002046494687ED020B05F0C4FA41EC100B31
:104E100053EC192B2046494687ED040B05F0BAFAEE
:104E200041EC100B043DAB4506F1200687ED060B67
:104E3000C6D10B9F159C6E42E4B30C9858EC185BDE
:104E400000EBC60090ED000B284653EC102B4146BA
:104E50000AEBC60705F09EFA41EC100B012C87ED1A
:104E6000000B0B9F26D00C99701C01EBC00191ED3B
:104E7000000B0AEBC00753EC102B2846414605F007
:104E800089FA41EC100B022C87ED000B0B9F11D01F
:104E90000C99B01C01EBC00191ED000B0AEBC006B0
:104EA00053EC102B2846414605F074FA41EC100BE8
:104EB00086ED000B0DF1200E0EF508500DF1180EC9
:104EC0000A9C0EF5FC5529462246B94601F0D8F851
:104ED000012C11D10DF5E05E03989EEDE68BDDF817
:104EE00010B0032880F024810026BBF1000F40F0B1
:104EF0007381FFF7B2BB00BF0798A71E00F0030243
:104F000020F0030015904FEA4910089005F12000A9
:104F10000D90E000069009EB49004FEAC00B4FEA04
:104F2000091A4FEAC908002309971092CDF850805A
:104F30000EE000BF079B0A9C0D98069901330DF106
:104F4000180EA34208440EF5FC550D903FF485ABB6
:104F500003FB04F0079305EBC0030C9993ED008B62
:104F60000DF1280E01EBC00000210EF51255CDE920
:104F70000E030BE00E981299119D00EBC100013158
:104F8000494505F1080580ED009BD3D00DF1280EB1
:104F90000EF5125000EBC10090ED000B1291139032
:104FA00053EC102B51EC180B05F0F4F941EC190BF4
:104FB000032F119506D20124109A1399002A61D16A
:104FC000D8E700BF0D9FD046DA46DDF820B00024B8
:104FD000A94600BF149817ED060B484490ED001B3E
:104FE00017ED04CB17ED02BB97ED00AB53EC112B83
:104FF00051EC100B05F0CEF953EC192B04F0ACFE7C
:10500000054609EB080090ED000B0E4653EC102B03
:1050100051EC1C0B05F0BEF92A46334604F09CFE09
:10502000054609EB0A0090ED000B0E4653EC102BE1
:1050300051EC1B0B05F0AEF92A46334604F08CFE0A
:10504000D94499ED000B05460E4653EC102B51EC5C
:105050001A0B05F09FF92A46334604F07DFE41EC19
:10506000190B15980434A04207F12007B2D1DDF8DE
:105070002C90099F0134D346C246109A1399002AF6
:105080003FF478AF0F9800EBC40090ED000B04FBE9
:1050900009F001EBC00090ED001B51EC100B53EC3C
:1050A000112B05F077F953EC192B04F055FE109AEB
:1050B000139B41EC190B012A3FF45CAF0E460F998C
:1050C0000546601C01EBC00100FB09F003EBC000CA
:1050D00091ED000B90ED001B51EC100B53EC112BDC
:1050E00005F058F92A46334604F036FE109A139B11
:1050F00041EC190B022A3FF43DAF0E460F990546CD
:10510000A01C01EBC00100FB09F003EBC00091ED16
:10511000000B90ED001B51EC100B53EC112B05F024
:1051200039F92A46334604F017FE41EC190B21E702
:105130000C990DF1280EA1F120064FF6FC71C7F66F
:10514000FF710EF5125001EA09012038C1F1000883
:10515000002557EC184B00BF90ED080B00F120091B
:1051600090ED0AAB90ED0CBB90ED0E9B53EC102B29
:105170002046394606F1200A05F00CF941EC100BE7
:1051800053EC1A2B2046394686ED080B05F002F940
:1051900041EC100B53EC1B2B2046394686ED0A0BD5
:1051A00005F0F8F841EC100B53EC192B204639466A
:1051B00086ED0C0B05F0EEF841EC100B043D86ED8E
:1051C0000E0BA84556464846C6D1DDF82C906E42D7
:1051D000BBF1000F3FF441AA0DF1280E0EF5125855
:1051E00008EBC60090ED000B0C9854EC185B00EB3C
:1051F000C60753EC102B2846214605F0CBF841ECAE
:10520000100B0498DDF82C90012887ED000B3FF47B
:1052100024AA701C08EBC00191ED000B0C9953EC13
:10522000102B01EBC0072846214605F0B3F841ECEE
:10523000100B0498DDF82C90022887ED000B3FF44A
:105240000CAAB01C08EBC00191ED000B0C9953ECBB
:10525000102B01EBC0062846214605F09BF841ECD7
:10526000100B86ED000BFFF7F8B9000080B540F297
:10527000802045F20041C2F20000C4F2000148F271
:10528000A06200234FF4804CC0F2010280E80E00BF
:10529000C0E9033CC0E90533C0E90733FBF7C6FEAC
:1052A000002808BF80BDBDE88040FBF771BD00004D
:1052B00080B540F2D42045F60001C2F20000C4F2ED
:1052C000000148F2A06200234FF4804CC0F20102BA
:1052D00080E80E00C0E9033CC0E90533C0E90733AC
:1052E000FBF7A4FE002808BF80BDBDE88040FBF7A7
:1052F0004FBD000080B540F2685041F20001C2F29B
:105300000000C4F2010100234FF00C0C4FF4E13215
:1053100080E80E00C0E90333C0E905C3C361FEF7AE
:105320002DFB002818BFFBF733FD252002210022AA
:10533000FCF732FE2520BDE88040FCF71BBE0000D4
:10534000FEE70000FEE7000080B502F083F903F0FD
:105350000BF9BDE8804002F08BB9000070B592B047
:1053600006AC20463021FBF797F9002543F64000B4
:105370000595CDE90355CDE901550095C4F202002C
:105380000168022641F080510160006800F0805001
:105390000090009847F200000095C4F200000168F8
:1053A00041F480410160006800F480400090009862
:1053B0000120099010200A9008200E90A820CDE925
:1053C0000F060420119020460696CDE90C65FCF7E7
:1053D0004FFF28B1EFF3108072B600BFFEE700BFA9
:1053E0000F20CDE901064FF48050CDE9040001A85B
:1053F00005210395FCF70CFE20B1EFF3108072B687
:10540000FEE700BF12B070BD80B543F60400C4F2E1
:105410000200416801F00C0242F20041082AC0F289
:10542000F40107D0042A21D147F64001C0F27D11D2
:105430001CE000BFD0F800C00368026803F03F031F
:10544000C2F3881E5FEA4C2247F64002C0F27D128A
:1054500058BF0A46B2FBF3F102680223C2F30142CD
:105460000EFB01F103EB4202B1FBF2F140F2280224
:10547000C2F20002116040684AF69803C0F30310BC
:10548000C0F60003185C21FA00F0106080BD000037
:105490004EF68850CEF20000016841F470010160C0
:1054A0007047000040F22830C2F20000FDF7D4BB84
:1054B00080B540F2D840C2F20000FDF7CDFB40F2CB
:1054C0000040C2F20000BDE88040FDF7C5BB00000F
:1054D00040F2D840C2F20000FDF7BEBB10B540F666
:1054E000FF3E0368C4F2000E40F2004C7045C4F267
:1054F000010C25DCB0F1804F2FD040F20042C4F205
:105500000002904229D040F60002C4F2000290420C
:1055100023D041F6FF72C4F20002904227DC7045AE
:105520003ADCB0F1804F5BD040F20042C4F200029E
:10553000904255D040F60002C4F200024EE000BF97
:1055400040F60042C4F20002904206D0604504D00A
:105550000022C4F201029042DBD14A6823F07003BA
:10556000134341F6FF72C4F200029042D7DD43F6C6
:10557000FF72C4F20102904220DC42F20002C4F247
:10558000000290422CD00022C4F20102904227D0A7
:10559000604525D028E000BF40F60042C4F200027A
:1055A00090421DD041F60002C4F20002904217D092
:1055B00041F60042C4F2000210E000BF44F20002D3
:1055C000C4F2010290420BD044F60002C4F2010280
:1055D000904205D044F20042C4F20102904203D14D
:1055E000CA6823F44073134323F080024B69D1F857
:1055F00000E08C681A430260C46240F48062C0F824
:1056000028E0624504BF096901630121416110BDC1
:10561000806B0021C185C184FDF7FABE81B090F88E
:105620003E10222921D183680246B3F5805F09D15B
:1056300052F8281F52F8183C002B63D003685B68AF
:105640000AE000BF52F8281F13B90369002BF5D0F8
:1056500003685B6803F07F030B7011680131116010
:10566000C18D01390A04C18502D001B0704700BF65
:105670000168CA6822F02002CA60CA6822F48072F7
:10568000CA604A6922F001024A61202180F83E1076
:10569000016B01293ED10021016300BF016851E87F
:1056A000031F026821F0100142E80313DBB1016817
:1056B00051E8031F026821F0100142E8031393B17F
:1056C000016851E8031F026821F0100142E803134A
:1056D0004BB1016851E8031F026821F0100142E854
:1056E0000313002BDAD101680A68D20606D500221E
:1056F00000920A680092496800910099818D01B07A
:10570000FDF784BE026852686FF35F2221F8022B16
:105710008162A5E701B0FEF7A5B90000B0B5044667
:10572000006804F108030ECB0569194325F44055C0
:105730002A4302616269E3691143C268194349F26D
:105740000C639A431143C1604169A26921F440711D
:1057500041F20043114340F48062C4F201039A42D3
:10576000416103D1FCF73AFD02E000BFFCF722FDE6
:10577000E1694FF69C7563681922C0F6FF75B1F5B3
:10578000004FA0FB02011FD15A00DB0FFAF720FEE9
:1057900048F21F51C5F2EB11A0FB01235A0905F194
:1057A000805302FB0300322303EBC000A0FB010186
:1057B0004FF4F87000EA111000EB0210C1F342112F
:1057C000084421688860B0BD9A009B0FFAF700FE7C
:1057D00048F21F51C5F2EB11A0FB01235A0902FB4D
:1057E0000500322303EB0010A0FB0101F02000EACA
:1057F000511000EB0210C1F3431108442168886086
:10580000B0BD000040F26850C2F20000FDF702BED9
:10581000FEE70000002804BF00207047C1B209B1B4
:1058200001200CE010F47F4102D0090A092006E0B3
:1058300010F47F0107BF010E1920090C11204AF650
:10584000B002C0F60002515C08447047000000003E
:1058500070B52DED028B84B040F24016B0EE418A57
:10586000C2F20006F0EE618A86ED101B40F21020B5
:105870009FED3B1BC2F200000021C0E90E11C0E900
:105880001011C0E91211C0E91411C0E90611C0E9F4
:105890000811C0E90A11C0E90C1151EC100B53ECCE
:1058A000112B86ED0E0B04F00BFB96ED060B53EC63
:1058B000102B04F06FFD41EC110BB0EE480A06F11D
:1058C000480006F15001F0EE680AFAF7FDFF96ED88
:1058D000140B002000F04CF896ED140B012000F0A2
:1058E00047F896ED120B022000F042F896ED120BED
:1058F000032000F03DF89FED1C0B96ED148B54EC4B
:10590000105B51EC180B2A46234604F050FF58B99F
:105910008DED028B9DF80F0080F080008DF80F0058
:105920009DED020B86ED140B96ED128B2A4651EC81
:10593000180B234604F03BFF58B98DED008B9DF802
:10594000070080F080008DF807009DED000B86EDCC
:10595000120B04B0BDEC028B70BD00BF00BF00BFD6
:105960000000000000806640000000000000000011
:105970002DE9F04F81B09FED381B55EC104B57ECE3
:10598000116B82462046294632463B4604F016FFFC
:10599000E0B940F20004C2F2000404EB8A0554F8B6
:1059A0002A00298A40F270260122C2F20006FBF783
:1059B00031FB54F82A00698A0022FBF72BFB4FF0D9
:1059C000FF3046F82A0001B0BDE8F08F40F2000039
:1059D000C2F2000000EB8A0B50F82A803BF8109FBF
:1059E0002046294632463B4604F0E1FED0B940F25B
:1059F0007024404649460022C2F20004FBF70AFB2D
:105A000040F20000C2F2000050F82A00BBF8021079
:105A100001220125FBF7FEFA44F82A5001B0BDE847
:105A2000F08F00BF4046494600220024FBF7F2FAFF
:105A300040F20000C2F2000050F82A00BBF8021049
:105A40000022FBF7E7FA40F27020C2F2000040F8B3
:105A50002A4001B0BDE8F08F000000000000000007
:105A600080B584B00B4601468DF80F2040F2D42259
:105A700040F28020C2F20002C2F200003C2908BFBE
:105A800010464FF0010E0DF10F024FF0640CCDE9FE
:105A9000002E1A460123CDF808C0FCF787F804B0A1
:105AA00080BD00002DE9F04F9FB040F268204AF61B
:105AB0008B614BF62F2240F60008C2F20000C4F2C0
:105AC0004E01CAF2E822C4F20208C0E90021FCF744
:105AD000D1F9FFF743FC002443F63000CDE913442D
