:020000040800F2
:10000000982200206D020008B93500088F0300080F
:10001000B5350008610E0008793A000800000000BC
:100020000000000000000000000000007F02000847
:10003000610F000800000000DB020008BD35000869
:10004000870200088702000887020008870200086C
:10005000870200088702000887020008870200085C
:100060003110000887020008E91000088702000824
:10007000870200088702000887020008870200083C
:10008000870200088702000887020008870200082C
:10009000870200088702000887020008A1110008F3
:1000A000870200088702000887020008870200080C
:1000B00087020008870200088702000887020008FC
:1000C00087020008870200088702000887020008EC
:1000D000870200086D3A00088702000887020008BE
:1000E000650F0008870200088702000887020008E1
:1000F000393700081937000887020008870200080E
:1001000087020008870200088702000887020008AB
:10011000870200088702000887020008870200089B
:10012000870200088702000887020008870200088B
:10013000870200088702000887020008870200087B
:10014000870200088702000887020008870200086B
:10015000870200088702000887020008870200085B
:10016000870200088702000887020008870200084B
:1001700087020008870200088702000800000000CC
:10018000870200088702000800F002F800F05FF81C
:1001900014A696E8000CB244B344DA4501D100F04D
:1001A00056F8BAE80F000FA696E83000A5EB040554
:1001B00004EB0607AAEB0704A7F101074FEA1515A0
:1001C0004FEA3414A4F10104AC4201D300F03FF82B
:1001D00013F0010F18BFFB1A43F0010300F001F800
:1001E000DBE718474876000068760000103A24BF25
:1001F00078C878C1FAD8520724BF30C830C144BF8C
:1002000004680C6070470000704700000023002461
:1002100000250026103A28BF78C1FBD8520728BF16
:1002200030C148BF0B607047662907F0D2810020BB
:1002300070471FB507F0BBF900F074FC0400002004
:10024000002106F00BFDE0601FBD10B510BD00F0F1
:1002500069FD1146FFF7EDFF00F0D8FD00F087FDC6
:1002600003B4FFF7F2FF03BC00F0C8FD0948804764
:1002700009480047FEE7FEE7FEE7FEE7FEE7FEE788
:10028000FEE7FEE7FEE7FEE704480549054A064BA0
:10029000704700000537000889010008981C0020FD
:1002A00098220020981E0020981E0020EFF3108056
:1002B00072B6704780F310887047434A1368012B69
:1002C00004D04FF001031360404A1060404A1160AF
:1002D00040484FF0805101607047EFF3108272B6D2
:1002E0003948016851B34FF0000101603748016897
:1002F00091B1EFF309811EF0100F08BF21ED108BB3
:1003000021E9F00F4FF000041EF0100F08BF012488
:1003100041F8044D006801602D490968096808C961
:10032000B1E8F00F002B18BFB1EC108B81F30988F6
:100330004EF0100E002B18BF2EF0100E82F3108816
:100340004EF0040E704722490860EFF3148222F049
:10035000040282F314881D494FF0000008601A4916
:100360004FF0010008601C484FF47F01D0F80020D6
:1003700041EA0201016017484FF0805101601748BF
:100380000068006880F3088861B662B670471EF0A6
:10039000040F0CBFEFF30880EFF3098020E9F00FA2
:1003A00040F804ED40F804ED1EF0040F0CBF80F39C
:1003B000088880F3098800B504F0D6F95DF804EBED
:1003C0004EF0040E70470000101800208415002025
:1003D0008C15002004ED00E020ED00E008ED00E0C9
:1003E00053EA020C00F069802DE9F04B4FF0000653
:1003F000002B1FBFB3FA83F503FA05F424FA05F6C0
:100400005E4012BF1643B2FA82F502FA05F4C5F156
:1004100020051EBF22FA05FC44EA0C04203556EAEA
:10042000044C4FEA144418BF641C4FF000084FF00E
:100430000009904271EB030C39D3002919BFB1FABE
:1004400081F701FA07F6B0FA80F700FA07F6C7F16C
:1004500020071EBF20FA07FC46EA0C062037B6FB31
:10046000F4FCA7EB0507103F07F01F0BCBF12006AC
:100470002CFA06F60CFA0BFB44BFB3460026202FDD
:10048000A4BF5E464FF0000B5BEA060C08BF4FF0BE
:10049000010B19EB0B0948EB0608ABFB027C06FBD2
:1004A00002CC0BFB03CCC01B71EB0C01C1E70B466C
:1004B000024641464846BDE8F08B13B5084318BFD5
:1004C0004FF0FF300146AFF30080BDE81C4070479D
:1004D0000FB41CB50C0007AA009007D04142A142FE
:1004E00002D32044401E01E04FF0FF30074B7B4415
:1004F00069460190069800F0FAFA0021002C01D01C
:10050000009A11701CBC5DF814FB0000230600006B
:100510002DE9F0474FF0000A89460446C0F820A0B4
:100520002046E1688847002876D0252806D0D4E9FF
:1005300001219047206A401C2062F1E7E1682046D3
:1005400000258847C4F81CA006460027C4F818A058
:100550002A2E09D0304606F079FB38B304EB870821
:10056000303EC8F8186019E059F8041B204604EB27
:1005700087029161E1688847012F064618D1E0693A
:10058000002820DA25F020051DE0D8F8180000EB3F
:10059000800006EB40003038C8F818002046E168BB
:1005A0008847064606F052FB0028EED1012F0AD0FC
:1005B0002E2E08D12046E16888477F1C0646022F70
:1005C00045F02005C4DBA069002803DA404245F06D
:1005D0000105A061E80701D025F01005B6B1A6F12C
:1005E0004100192802D8203645F400654A463146B4
:1005F000204625604D46FFF717FE58B1012806D06A
:10060000ED1D25F0070000F1080989E704E005F178
:10061000040985E730468AE7206ABDE8F08702F0E2
:10062000FF0343EA032242EA024200F002B84FF01D
:1006300000020429C0F0128010F0030C00F01B80AF
:10064000CCF1040CBCF1020F18BF00F8012BA8BFBD
:1006500020F8022BA1EB0C0100F00DB85FEAC17C81
:1006600024BF00F8012B00F8012B48BF00F8012B34
:1006700070474FF0000200B5134694469646203965
:1006800022BFA0E80C50A0E80C50B1F12001BFF44B
:10069000F7AF090728BFA0E80C5048BF0CC05DF8B1
:1006A00004EB890028BF40F8042B08BF704748BFFF
:1006B00020F8022B11F0804F18BF00F8012B704773
:1006C0007047704770472DE9FF4F0C461E464FF0AC
:1006D000FF378BB0D2E90001DDF860800A908A46CE
:1006E000C1F30A5505B93D46002108464FF0000008
:1006F000BAF1000F00F4400005DA00EB80004FF47F
:10070000400101EA50004FEA9059B9F1010F00DDB4
:10071000B9460A9850EA4A000ED044F61050A5F2A5
:10072000FF3545432F14B8F1000F1ED07542291E26
:100730001EDDC9F100021CE0B8F1010F4FF000000E
:1007400001D0302103E0F24305E02154401CB042C7
:10075000FBDB30460022002121540B99C1F80880B0
:10076000C1E900200FB0BDE8F08FBD1B6D1CDEE7B6
:100770004A4600DA694206A800F05EFA06AB93E842
:10078000070003AB83E8070050460A9905F07EFE98
:100790008DE80700A0F500501F3800900398002D49
:1007A0000ADD42F21F014A460844002303A90390D0
:1007B000684606F0E7F809E0A0F500504A461F3801
:1007C000002303A90390684606F0F1F88DE80700BE
:1007D0000004000C03D04FF0FF30410800E0104649
:1007E000B8F1000F03D00022009215461EE0751EDE
:1007F00005D400F09BF9303262556D1EF9D5B34631
:100800000122084302D000227F1C04E02078302817
:1008100001D100227F1E002A099784D01DE0112DEE
:1008200007DA00F083F9303262556D1C50EA01029C
:10083000F5D1084302D00098C8B10EE00021681E2F
:1008400005E0235C625C63542254401E491C8142D3
:10085000F7DBAB46A81B401E0990002004F80B00F4
:100860000B98099AC0F80880C0E9002B7AE7112696
:100870004FF0000857E72DE9F04F88460446D21D97
:1008800022F0070191B0D1E90001CDE90A0106F09B
:10089000C5F902460B98C00F01D02D2007E0206853
:1008A000810701D52B2002E0202101EAC000032AA4
:1008B000099001D0072A05DB03464146204600F097
:1008C0007BF90BE12078800601D5E06900E0062085
:1008D000B8F1650F814606D0B8F1660F18D0B8F1AF
:1008E000670F70D131E00020B9F1110F009001DBEA
:1008F000112301E009F101030AAA01A90CA8FFF7DD
:10090000E2FEDDE90C70002609F10105834647E0AF
:1009100001204B4600904FF000470AAA01A90CA8FD
:10092000FFF7D1FEDDE90DB00C995D46002610B948
:1009300009F101000D18B9EB050003D4C0F1FF3631
:1009400009F10105A5EB09002BE0B9F1010F01DA6E
:100950004FF001090020B9F1110F0090484601DD68
:10096000112300E003460AAA01A90CA8FFF7ABFE79
:10097000DDE90C704D4600268346207800070AD436
:10098000AB4500DA5D4601A8012D04DD411911F8DF
:10099000011C302907D04F4502DA17F1040F04DAA1
:1009A000012082460FE06D1EEEE7002F02DCED1BFA
:1009B0003E4403E0781CA84200DD7D1CB81B00F11A
:1009C000010A4FF000472078000703D4AA4501DB55
:1009D0004FF0FF3A0021B7F1004F0DF143088DF8B9
:1009E000431024D002202B23002F01DA7F422D2335
:1009F0000A21021EA0F1010000DC5FB197FBF1FCAF
:100A000097FBF1F201FB1C7C17460CF1300C08F847
:100A100001CDEEE7A8F1010003702188090501D599
:100A2000452100E06521A0F1010800F8011C0998AA
:100A30000FA9A1EB0807FF1D00B10120411901EB2F
:100A4000EA70A1693844081A401EA0612078C006E7
:100A500002D42046AFF30080099828B1D4E90121DF
:100A60009047206A401C20622078C00622D520468C
:100A7000AFF300801EE0002E04DBB34502DD01A8C9
:100A8000805D00E03020D4E901219047206A401CBD
:100A90002062761CAAF101005FEA000A0AD100F088
:100AA00041F8C0680168405CD4E901219047206AA0
:100AB000401C2062281EA5F10105DCDC07E0D4E91A
:100AC000012118F8010B9047206A401C2062381E53
:100AD000A7F10107F3DC2046AFF30080032011B03B
:100AE00041E6000001694A1C02610878704700B5C0
:100AF0008FB0CDE901310021059105497944CDE957
:100B0000031011466846FFF703FD0FB000BD00005B
:100B1000E5FFFFFFD1E900239A4202D2531C0B608C
:100B20001070704700487047B000002030B5B0F139
:100B30000A0271F100034FEA900E4EEA817EB0EB9B
:100B40000E0061EB91014FEA101E4EEA017E10EBA0
:100B50000E0041EB11114FEA102E4EEA016E10EB20
:100B60000E0041EB11214FEA104E4EEA014E10EB00
:100B70000E0041EB1141401841F100014FEAD00055
:100B800040EA41704FEAD1014FEA810444EA90748F
:100B900010EB800544EB01046D1944EB0404521B77
:100BA000A3414FF0000348BF0A3200D530BD401CBE
:100BB00041F1000130BD00002DE9F0411F4604461F
:100BC00003260168072A01F4006004DB08B116A5BA
:100BD00005E016A503E008B115A500E015A521F074
:100BE00010002060A069C01EA0610FB1401EA0616E
:100BF0002046AFF300804FB1D4E901213846904739
:100C0000206A401C2062C01C206206E0206AFAE7CD
:100C1000D4E9012115F8010B9047761EF8D2204641
:100C2000AFF30080BDE8F0814E414E006E616E0072
:100C3000494E4600696E66002DE9F047814616462A
:100C40008AB0354878440DC88DE80D0032487844A4
:100C5000801C03AC0DC884E80D0041F69B300844AD
:100C6000372190FBF1F290FBF1F5A5F1800501FB36
:100C700012041B3C02D56442012000E00020DFF892
:100C800098A080460027FA44AAF1BE0A0EE0E007C9
:100C90000AD03246684607EB470101230AEB81017F
:100CA00005F085FE8DE8070064107F1C002CEED156
:100CB000194F7F44AE3F19E0E80715D007EB041049
:100CC0000DF1180A90E80E008AE80E00C068F042A4
:100CD00001D1981908903246012306A903A805F00E
:100CE00066FE03AB83E807006D10641C002DE3D1A2
:100CF0004FF0010332466946B8F1000F03A802D055
:100D000005F040FE01E005F052FEC9E90001C9F816
:100D100008200AB0BDE8F0870C6A00000048704760
:100D2000900000207546FFF7F9FFAE4605006946C2
:100D3000534620F00700854618B020B5FFF7A4FA07
:100D4000BDE820404FF000064FF000074FF00008CC
:100D50004FF0000BAC46ACE8C009ACE8C009ACE809
:100D6000C009ACE8C00921F007018D46704710B5F5
:100D70000446AFF300802046BDE81040FFF770BA8C
:100D800030B44FF0013C50F8042B51F8043BCCFA3E
:100D900052F4D51A20D1FCB950F8042B51F8043B79
:100DA000CCFA52F4D51A17D1B4B950F8042B51F833
:100DB000043BCCFA52F4D51A0ED16CB950F8042B7E
:100DC00051F8043BCCFA52F4D51A05D1002CDAD0F4
:100DD00030BC4FF00000704729BAB1FA81F111F030
:100DE0001801D1F120008440F2D1CA40CB4012F06A
:100DF000FF0213F0FF0330BCD01A704701491820DE
:100E0000ABBEFEE7260002007047000080B582B04E
:100E1000FFF74CFA03F074FC04F028F904F0DCFA54
:100E200004F02CFA47F2847043F631714FF0140C41
:100E30004FF00A0EC0F60000C0F6000100224FF489
:100E40008063CDE900EC04F0D1FA04F06DFC04F00D
:100E5000CBFA04F095FB04F0A7FA002002B080BDA5
:100E6000FEE70000F0B581B00C46F8B140F2000694
:100E7000C2F2000606EB8405024656F8240035F857
:100E8000101F012A2EDB002200F020FB56F8240060
:100E900069880122012500F019FB40F2C810C2F256
:100EA000000040F8245001B0F0BD00BF40F2000542
:100EB000C2F2000505EB840655F82400318A0022B1
:100EC000002700F003FB55F82400718A002200F08F
:100ED000FDFA40F2C810C2F2000040F8247001B0E0
:100EE000F0BD00BF012200F0F1FA56F82400698835
:100EF000002200F0EBFA40F2C810C2F200004FF0FE
:100F0000FF3140F8241001B0F0BD000010B5002101
:100F10000446FFF7A7FF20460121FFF7A3FF204665
:100F20000221FFF79FFF20460321BDE81040FFF795
:100F300099BF000040F23C0220EAE070C2F20002D9
:100F4000B0F57A7FA8BF4FF47A7052F8212040F2B2
:100F500070531268C2F2000343F8210050637047D7
:100F60007047000043F61440C4F2010001684904D0
:100F700044BF4FF4804101600168090444BF4FF44D
:100F800000410160B0B540F60044C4F202042046BE
:100F90004FF4804100F094FA054620464FF400419A
:100FA00000F08EFA40F2F001C2F200014B7840EA04
:100FB0004500002BC5B208BF012D31D0012B08BF61
:100FC000032D2DD0032B08BF022D29D0022B08BFE3
:100FD0005FEA006224D085F002021A434FF001025A
:100FE00020D083F0020C85F0030444EA0C04B4FA28
:100FF00084F4640901BF83F0030C85F0010444EA22
:101000000C04B4FA84F408BF5FEA54140AD183F0E4
:1010100001032B43B3FA83F35B0903D14870B0BDDE
:101020004FF0FF324B691A444A614870B0BD00006E
:1010300043F61440C4F201000168490744BF04218B
:101040000160B0B541F60004C4F202042046042158
:1010500000F036FA05462046102100F031FA40F241
:10106000F001C2F200018B7845EA4000002BC5B2C6
:1010700008BF012D32D0012B08BF032D2ED0032B2A
:1010800008BF022D2AD0022B08BF5FEA006225D0DC
:1010900085F002021A434FF0FF3220D083F0020C99
:1010A00085F0030444EA0C04B4FA84F4640901BF33
:1010B00083F0030C85F0010444EA0C04B4FA84F4D0
:1010C00008BF5FEA54140AD183F001032B43B3FA3B
:1010D00083F35B0903D18870B0BD00BF01228B6927
:1010E0001A448A618870B0BD43F61440C4F201000E
:1010F0000168C90644BF10210160B0B541F6000483
:10110000C4F202042046042100F0DAF90546204624
:10111000102100F0D5F940F2F001C2F200018B7805
:1011200045EA4000002BC5B208BF012D32D0012B8B
:1011300008BF032D2ED0032B08BF022D2AD0022B6F
:1011400008BF5FEA006225D085F002021A434FF023
:10115000FF3220D083F0020C85F0030444EA0C0433
:10116000B4FA84F4640901BF83F0030C85F0010430
:1011700044EA0C04B4FA84F408BF5FEA54140AD1B8
:1011800083F001032B43B3FA83F35B0903D1887027
:10119000B0BD00BF01228B691A448A618870B0BD5E
:1011A00043F61440C4F201000168090644BF8021DF
:1011B00001600168C90544BF4FF480710160B0B59A
:1011C00041F20004C4F202042046802100F078F9C4
:1011D000054620464FF4807100F072F940F2F001AC
:1011E000C2F200010B7845EA4000002BC5B208BFEF
:1011F000012D31D0012B08BF032D2DD0032B08BFAB
:10120000022D29D0022B08BF5FEA006224D085F0AE
:1012100002021A434FF0FF321FD083F0020C85F018
:10122000030444EA0C04B4FA84F4640901BF83F0B3
:10123000030C85F0010444EA0C04B4FA84F408BFFA
:101240005FEA541409D183F001032B43B3FA83F30B
:101250005B0902D10870B0BD01220B691A440A6112
:101260000870B0BDEFF3108072B600BFFEE700005B
:1012700070B5866D044600F02FF994F835100229F8
:1012800028D105462068216C026822F0160202600F
:10129000426922F08002426109B9A16C19B101686A
:1012A00021F008010160016821F00101016000BF27
:1012B00020680068C00715D000F00EF9401B062812
:1012C000F6D320206065032084F83500002184F8DF
:1012D000341070BD802060650120002184F8341036
:1012E00070BD00BFE06D3F2101FA00F0B060012049
:1012F00084F835000020002184F8341070BD00000F
:1013000090F83510022909D1052180F835100068C0
:10131000016821F0010101600020704780214165D2
:10132000012070472DE9F04F83B000F1200200F159
:101330003E4741F60045009207F1FF77C4F20205EF
:1013400008224FEAB726A84208BF072200254FF01F
:1013500000084FF00009072E38BF4FEAB72201926C
:101360000AE000BF09F1010908F10208B9F1100F04
:1013700005F1040500F0A0800F68012202FA09FEC1
:1013800017EA0E0AEED0D1F804C003220CF00307CE
:101390007E1E02FA08F4012E6FEA040B12D884684C
:1013A000CE6804EA0B0406FA08F634438460446805
:1013B00024EA0E06CCF3001404FA09F4264346602E
:1013C00004E000BF032F01D103271EE0C6688C682C
:1013D00006EA0B0604FA08F42643022FC66014D16D
:1013E0006FF00302009E02EA590756F807C005F0A5
:1013F0001C040F220B69A2402CEA0202A3401A43EC
:10140000F251D1F804C00CF00307026807FA08F3A0
:1014100002EA0B021A431CF4403F0260A2D00022F1
:1014200043F644030292C4F202031A6843F60044EE
:1014300042F480421A601A68C4F2010402F4804245
:101440000292029A29F003024FF6084C2244CFF68A
:10145000FF7C52F80C3005F00C070F26BE40B3435A
:10146000019E06FA07F73B4342F80C3022684B68AE
:1014700042EA0A07DE0358BF22EA0A0727606268C9
:101480009E0342EA0A0758BF22EA0A076760A26879
:10149000DE0242EA0A0743F60C4658BF22EA0A0770
:1014A000A760C4F2010632689B0242EA0A0758BFED
:1014B00022EA0A07376055E703B0BDE8F08F000065
:1014C0000069084018BF012070470000002A08BFCB
:1014D000090481617047000041F69040C2F20000AB
:1014E00000687047002804BF01207047F0B581B044
:1014F000044690F83D0028B9002084F83C002046BE
:1015000000F0A2F8242084F83D002068016821F052
:1015100001010160016841F400410160016821F4AA
:101520000041016000F078FA636848F2A16CC0F2F3
:10153000010C40F60011C0F23D0163453CBF48F28A
:101540008041C0F21E01884202D2012001B0F0BDEC
:101550004DF68361C4F21B31A0FB01122168970C88
:10156000D1F804E04FF496762EF03F0545EA924517
:101570004D60774348F638160D6AC0F24106A7FB66
:10158000067625F03F07634538BF960C721C3A4338
:101590000A62CA6948F2A0664CF6FF77C0F20106FB
:1015A000B34222EA07020BD801385B00B0FBF3F02C
:1015B00001306FF31F30042898BF04201BE000BFE8
:1015C000A768013857B119277B43B0FBF3F001300E
:1015D0006FF31F3070B100F5804007E003EB430369
:1015E000B0FBF3F001306FF31F3018B100F500408D
:1015F00001E000BF01201043C8610868D4E9072357
:1016000020F0C000104318430860886848F2FF3299
:1016100004F10C0790438CCF18431043A6698860EF
:10162000C86820F0FF0038433043C860086840F0C5
:101630000100086000202021206484F83D10206310
:1016400084F83E0001B0F0BDB0B586B045F200416F
:101650000068C4F20001002488420594CDE90344E7
:101660000294019402D006B0B0BD00BF43F630052D
:101670000094C4F20205286840F00200286028683F
:1016800000F0020000900098C02001901220CDE9E7
:101690000204032004900420059001F5D83001A92C
:1016A000FFF740FE0094286940F400102861286983
:1016B00000F400100090009806B0B0BD40F2200089
:1016C00041F69041C2F20000C2F2000100780A68BF
:1016D000104408607047000080B543F60040C4F233
:1016E0000200016841F400710160016841F4806109
:1016F0000160016841F480710160032000F0AAF8E4
:101700000F2000F005F800F04BF8002080BD00002D
:1017100010B586B001462D200022002400F06EF89E
:101720002D2000F059F843F640000194C4F2020065
:10173000016841F4807101600068694600F48070BE
:101740000190019801A800F047F900F065F94DF605
:1017500083614000C4F21B31A0FB01014FF0FF3058
:1017600000EB914140F2043042F20002C2F200006C
:10177000C4F2000240F2E733C0E90021C0E90243AD
:10178000046100F005FC18B1012006B010BD00BFD7
:1017900040F20430C2F2000000F084FC06B010BD3C
:1017A00082B0002043F640010190C4F202014A6871
:1017B00042F480424A604A6802F480420192019AEF
:1017C0000090086840F080500860086800F0805081
:1017D0000090009802B07047002848BF704700F0A2
:1017E0001F01012202FA01F11C2202EAD0004EF28E
:1017F0000012CEF2000281507047000010B54EF684
:101800000C5CCEF2000CDCF80030C3F3022E8EF03C
:101810000704042C28BF0424BEF103034FF0FF3E4D
:101820000EFA04F438BF0023A14399400EFA03F3E3
:101830009A43114300F00F0200F160430901043A9A
:1018400003F564436244002848BF02F10C03197099
:1018500010BD00004EF60C51CEF200010A684FF6A2
:10186000FF031A4060F30A2242F0806040F0FD70EE
:1018700008607047002804BF012070472DE9F0413F
:1018800043F60808C4F202080446D8F8F8030D46E7
:1018900000F00700884207D288F8F853D8F8F80318
:1018A00000F00700A84277D12068810717D54107CB
:1018B00005D5D8F8001041F4E051C8F80010010730
:1018C00005D5D8F8001041F46041C8F80010D8F8E8
:1018D0000010A26821F0F0011143C8F80010C00701
:1018E00040D1D8F8F80300F00700A84207D988F8DB
:1018F000F853D8F8F80300F00700A8424CD120684C
:10190000410707D5D8F80010E26821F4E0511143EF
:10191000C8F80010000708D5D8F80000216920F4A5
:10192000604040EAC100C8F8000000F09DF8D8F817
:10193000001047F26C62C1F30311C0F60002515C63
:1019400040F2280220FA01F140F22400C2F2000025
:101950000068C2F200021160FFF7DAFE0020BDE865
:10196000F08100BF6068811E022907D258F8081C68
:1019700089015CBF0120BDE8F08111E0012807D199
:1019800058F8081C89035CBF0120BDE8F08107E01E
:1019900058F8081C890703D40120BDE8F08100BF76
:1019A000D8F8001021F003010843C8F80000FFF741
:1019B00093FD064641F28837D8F80000616800F0D0
:1019C0000C00B0EB810F8CD0FFF786FD801BB84276
:1019D000F2D90320BDE8F0810F22026043F608022D
:1019E000C4F20202136803F003034360136803F0B8
:1019F000F0038360136803F4E053C360D2F800C0BF
:101A00004FF4E05303EADC030361D2F8F80300F07B
:101A1000070008607047000040F2280043F6080104
:101A2000C2F20000C4F202010068096847F27C6259
:101A3000C1F38221C0F60002515CC840704700002B
:101A400040F2280043F60801C2F20000C4F202018D
:101A50000068096847F27C62C1F34231C0F60002B7
:101A6000515CC8407047000010B543F60404C4F24E
:101A70000204606800F00C0008280BD0042819BF8D
:101A800042F20040C0F2F40047F64000C0F27D1080
:101A900010BD00BF206821682368490247F6400155
:101AA000C0F27D1100F03F02C3F388105CBF42F228
:101AB0000041C0F2F401A1FB00010023FEF790FCFD
:101AC00021680222C1F3014102EB4101B0FBF1F0B8
:101AD00010BD0000002804BF012070472DE9F0412F
:101AE00082B00446007843F60006C007C4F202063E
:101AF0000CD0B06800F00C00042840F08180306801
:101B0000800303D56068002800F068812078800792
:101B10001BD5B06810F00C0F09D0B06800F00C00B5
:101B2000082840F087807068400200F183803068A8
:101B3000800703D5E068012840F0508130682169B2
:101B400020F0F80040EAC10030602078000713D48C
:101B5000207840072AD4A569002D00F03A81B068AA
:101B600000F00C00082840F0A580012D40F00E8107
:101B7000012002B0BDE8F0816069002800F0828099
:101B80000020C4F247200121C0F8801EFFF7A4FC0A
:101B9000054600BF706F8007DAD4FFF79DFC401B3D
:101BA0000228F7D9032002B0BDE8F081306C5FEA6B
:101BB000C0080AD400200190306C40F0805030649E
:101BC000306C00F080500190019847F20007C4F299
:101BD00000073868C00547D4386840F48070386022
:101BE000FFF77AFC054600BF3868C0053CD4FFF714
:101BF00073FC401B0228F7D9032002B0BDE8F08136
:101C0000B06800F00C00082803D1706840023FF56E
:101C100076AF61683068B1F5803F07D0B1F5A02F8D
:101C200040F09A8040F480203060306840F480308A
:101C300030609AE0E068002840F20000C4F24720DB
:101C40005CD001210160FFF747FC05463068800742
:101C50003FF574AFFFF740FC401B0228F6D9032084
:101C600002B0BDE8F08100BFA168306F012905D046
:101C7000052955D140F004003067306F40F0010075
:101C8000306756E00020C4F247200021C0F8801ED3
:101C9000FFF722FC054600BF706F80077FF558AF45
:101CA000FFF71AFC401B0228F6D9032002B0BDE85A
:101CB000F08100BF0027C4F2472700203866FFF7F5
:101CC0000BFC022D05460DD13068800140F18A8061
:101CD000FFF702FC401B02284FF00300F4D902B0CA
:101CE000BDE8F0813068800173D5FFF7F5FB401B3C
:101CF00002284FF00300F5D9F1E700BF0021016091
:101D0000FFF7EAFB054600BF306880077FF51DAF8F
:101D1000FFF7E2FB401B02284FF00300F4D9DEE797
:101D200020F001003067306F002920F00400306798
:101D30007AD0FFF7D1FB054641F28837306F800734
:101D400000F18480FFF7C8FB401BB842F6D903209E
:101D500002B0BDE8F08100BF20F480303060306810
:101D6000002920F4802030607AD0FFF7B5FB0546CB
:101D7000306880033FF5CAAEFFF7AEFB401B642816
:101D8000F6D9032002B0BDE8F08100BF7068E169B8
:101D900000F480028A4221D1216A00F03F028A4287
:101DA0001CD147F6C071626A0140B1EB821F15D1A8
:101DB000A16A4FF6FF73C903994300F44032A1F5BD
:101DC00080318A420AD1E16A00F07060B0EB016FA5
:101DD00004D1002002B0BDE8F08100BF012002B0B4
:101DE000BDE8F08104F11C052FCD084340EA8210C4
:101DF000D9034FF6FF729143A1F5803140EA0560A7
:101E00000843706001203866FFF766FB044600BF98
:101E100030688001DDD4FFF75FFB001B02284FF024
:101E20000300F5D95BE700BFFFF756FB054641F21B
:101E3000883700BF306F800708D5FFF74DFB401B88
:101E4000B8424FF00300F5D949E700BFB8F1000FE1
:101E50003FF581AE306C20F0805030647BE600BFEF
:101E6000FFF73AFB054600BF306880037FF54EAEB2
:101E7000FFF732FB401B64284FF00300F4D92EE734
:101E8000704700007047000090F83C20012A04BF12
:101E900002207047B0B501F108053CCDD1E900CE74
:101EA00023F47C5322F470521A432EF4F0431A4365
:101EB0002CF4E0431A4324F4C0431A432A43C9696B
:101EC00022F48042036811435964002180F83C10D9
:101ED0000020B0BD90F83C20012A4FF0020254D0FF
:101EE00010B580F83D200268D2F804E0D2F808C0AE
:101EF0000C682EF07003234341F2FF74C4F2000417
:101F0000A24253600EDC40F2FF73C4F200039A4217
:101F100016DCB2F1804F2BD040F20043C4F2000334
:101F200024E000BF40F2FF33C4F201039A4213DC05
:101F300041F60003C4F200039A4219D0002313E0D3
:101F400040F60003C4F200039A4211D040F6004369
:101F5000C4F200030AE000BF44F20003C4F201032C
:101F60009A4205D040F20043C4F201039A4204D1E0
:101F700049682CF08003194391600121002280F808
:101F80003D1080F83C20BDE810401046704700002E
:101F9000002804BF0120704710B5044690F83D00AA
:101FA00028B9002084F83C00204600F01FF80220E9
:101FB00084F83D002068211D01F0C4FB012084F855
:101FC000460084F83E0084F83F0084F8400084F81E
:101FD000410084F8420084F8430084F8440084F807
:101FE000450084F83D00002010BD000080B584B09D
:101FF000006844F60001C4F20101884240D044F276
:102000000041C4F20101884228D040F20041C4F2EC
:102010000101884243D10020039043F64400C4F2FA
:1020200002000168002241F0020101600068002105
:1020300000F00200039003982C20FFF7DFFB2C2018
:10204000FFF7CAFB2D200F210022FFF7D7FB2D2021
:1020500004B0BDE88040FFF7BFBB00BF0020029086
:1020600043F64400C4F20200016841F4003101600B
:10207000006800F400300290029804B080BD00BFF8
:102080000020019043F64400C4F20200016841F4CC
:1020900080210160006800F480200190019804B064
:1020A00080BD000090F83D1001291CBF0120704741
:1020B000022180F83D10006841F2FF72C168C4F24D
:1020C0000002904241F00101C1600DDC40F2FF715D
:1020D000C4F20001884215DCB0F1804F2AD040F2F2
:1020E0000041C4F2000123E040F2FF31C4F20101DB
:1020F000884213DC41F60001C4F20001884219D085
:10210000002113E040F60001C4F20001884211D022
:1021100040F60041C4F200010AE000BF44F20001B1
:10212000C4F20101884205D040F20041C4F201012D
:10213000884206D1816801F00701062904BF00200A
:102140007047016841F00101016000207047000004
:1021500090F83C20012A4FF002026CD080B580F844
:102160003D20D0F800C04FF67772DCF8083023EA43
:102170000202CCF808200B684F2B29DC1F2B45DD11
:10218000202B46D0302B44D0402B40F0AF80D1F8EC
:1021900004E0C968DCF82030DCF8202022F00102DD
:1021A000CCF82020DCF8182022F0F00242EA0111DD
:1021B00023F00A0242EA0E02CCF81810CCF82020D4
:1021C000DCF8081041F0470121F0300128E000BFA1
:1021D0006F2B33DDB3F5005F74D0B3F5805F21D092
:1021E000702B40F08380D1E901E3C968DCF8082056
:1021F00043EA0E0322F47F4243EA01211143CCF863
:102200000810DCF8081041F0770109E00BB1102B41
:102210006CD1DCF8081021F07001194341F007017E
:10222000CCF808100022012180F83D10002180F830
:102230003C10BDE880401046704700BF502B21D0B5
:10224000602B53D1D1F804E0C968DCF8203023F0CA
:102250001003CCF82030DCF81830DCF8202023F410
:10226000704322F0A00243EA013142EA0E12CCF898
:102270001810CCF82020DCF8081041F0670121F09C
:102280001001CDE7D1F804E0C968DCF82030DCF8B3
:10229000202022F00102CCF82020DCF8182022F0C7
:1022A000F00242EA011123F00A0242EA0E02CCF8DF
:1022B0001810CCF82020DCF8081041F0570121F06C
:1022C0002001ADE7D1E901E3C968DCF8082043EA61
:1022D0000E0322F47F4243EA01211143CCF8081097
:1022E000DCF8081041F480419AE700BF01229AE728
:1022F000002804BF012070472DE9F047044690F8FC
:102300003D000D4628B9002084F83C00204600F02E
:1023100049F8022084F83D00206844F207028168F1
:1023200091438160211D01F00DFA20684FF6FF787E
:1023300081688269D0F820C0D5E9003ED5E9026AFB
:1023400043EA0109AB6922EA080246EA03234FF691
:10235000FC46B343D5E9076742EA0A0229691A43F2
:1023600042EA062242EA01112CF0AA026B6942EA13
:102370000E0241EA073142EA0312C0F80890816177
:102380000262012084F8460084F83E0084F83F0091
:1023900084F8420084F8430084F83D000020BDE842
:1023A000F087000080B586B0006840F2FF71C4F28B
:1023B000000188424FF000010591CDE90311CDE9FC
:1023C00001112BDCB0F1804F56D040F20041C4F235
:1023D0000001884240F09C80002143F630000091CB
:1023E000C4F20200026942F002020261026902F0D4
:1023F00002020092009A0091026842F0020202601A
:102400000068022200F00200009000983020019045
:102410000020C4F2020000F5806070E040F6000188
:10242000C4F20001884247D00021C4F20101884271
:102430006ED1002043F630010090C4F202014A69D7
:1024400042F001024A614A6902F001020092009AD8
:1024500000900868012240F010000860086800F051
:102460001000009000984FF4206001900020C4F20A
:10247000020000F5805041E0002043F6300100905A
:10248000C4F202010A6942F001020A610A6902F01B
:1024900001020092009A00900868012240F00100B9
:1024A00008600868032100F00100009000980020F7
:1024B0000191C4F2020022E0002043F630010090B6
:1024C000C4F202010A6942F004020A610A6902F0D8
:1024D00004020092009A00900868022240F008006E
:1024E0000860086800F00800009000984FF4405021
:1024F00001900020C4F2020000F540600321022395
:1025000002930023CDE9033101A90592FEF70AFFEA
:1025100006B080BD80B590F83E2090F83F3090F82E
:1025200042E090F843C004290AD0B9B9012A4FF01B
:10253000010208BFBEF1010F34D0104680BD00BFBC
:10254000012B4FF0010208BFBCF1010FF5D10221B0
:1025500080F83F1080F8431000681EE0012A4FF019
:10256000010208BF012BE8D1BEF1010FE5D1BCF19A
:10257000010FE2D1022280F83E2080F83F2080F84F
:10258000422080F8432091B10068016A21F00101E6
:102590000162016A41F00101016210216FF0100235
:1025A00009E000BF022180F83E1080F84210006868
:1025B00001216FF00102036A1A400262026A1143AC
:1025C00001620168002241F001010160104680BDF6
:1025D0007047000010B5016804460869800744BFD1
:1025E000C8685FEA807039D40869400744BFC8688A
:1025F0005FEA40703ED40869000744BFC8685FEADC
:10260000007045D40869C00644BFC8685FEAC0606E
:102610004AD40869C0071CBFC8685FEAC07051D1BE
:102620000869000644BFC8685FEA006052D40869C0
:10263000400644BFC8685FEA406053D4086980061A
:1026400046BFC8685FEA806010BD6FF02002204678
:102650000A61BDE81040FFF715BC00BF6FF0020033
:102660000861012020778869800743D02046FFF762
:10267000AFFF45E06FF00400086102202077886911
:1026800010F4407F40D02046FFF7A2FF42E000BF99
:102690006FF00800086104202077C86980073DD0EA
:1026A0002046FFF795FF3FE06FF01000086108201B
:1026B0002077C86910F4407F3AD02046FFF788FFA2
:1026C0003CE000BF6FF001000861204600F0B0FA66
:1026D0002168A5E76FF0800008612046FFF7D0FB76
:1026E0002168A4E76FF040000861204600F0B4FBC9
:1026F0002168A3E7204600F0B5F8204600F00CFA68
:102700002168002020776FE7204600F0ABF82046D4
:1027100000F002FA2168002020776CE7204600F0E4
:10272000A1F8204600F0F8F921680020207769E739
:10273000204600F097F8204600F0EEF921680020CE
:10274000207766E780B586B0006844F2FF31C4F2B6
:10275000010188424FF000010591CDE90311CDE957
:10276000011125DC40F20041C4F2010188423DD054
:1027700044F20001C4F20101884270D100200090AF
:1027800043F63000C4F20200016841F0100101601C
:102790000068022100F010000090009820200190B5
:1027A00041F20040C4F20200A0F580604EE000BF9C
:1027B00044F20041C4F20101884231D044F60001E4
:1027C000C4F2010188424AD10020009043F6300053
:1027D000C4F20200016841F020010160006802219A
:1027E00000F020000090009880202AE00020009057
:1027F00043F63000C4F20200016841F004010160B8
:102800000068022100F00400009000984020019030
:1028100041F20040C4F20200A0F5406016E000BFA3
:102820000020009043F63000C4F20200016841F03D
:10283000200101600068032100F020000090009852
:102840004020019041F20040C4F2020004910321B3
:102850000222059101A9CDE90222FEF763FD06B02F
:1028600080BD00007047000090F83C30012B04BF91
:10287000022070474FEAB202032A00F2FF802DE9DE
:10288000F043DFE802F003B13F7F00BF036840F28E
:1028900000461A6A43F4806522F001021A621C6A3B
:1028A0001A46D3F804C052F818EF8F6824F00204D7
:1028B000C4F20106B54244EA070405D1CF6824F00A
:1028C0000C0427F004073C430F68B54206D1D1E958
:1028D00005582CF440762E4346EA080C2EF0730679
:1028E0003743C3F804C09F614F6809695F631C6286
:1028F0009F6947F008079F619F6927F004079F6160
:10290000B1E000BF036840F200481A6A43F48065F2
:1029100022F480721A621C6A1A46D3F804C052F874
:102920001CEF8F6824F40074C4F20108454544EAA2
:10293000072408D1CF6840F2FF463F0224F44064E8
:1029400027EA06063443D1F80090454506D1D1E97F
:1029500005562CF440572E4347EA061C2EF0730709
:1029600047EA0907C3F804C0DF614F680969DF63FC
:102970001C62DF6947F00807DF61DF6927F00407A1
:10298000DF6170E0036840F200451A6A43F4806733
:1029900022F480521A621A46D3F820C05C6852F8BA
:1029A0001C8FD1F800E08E68C4F20105AF4204D15B
:1029B0004D6924F4804444EA85142CF4005747EA16
:1029C000063728F4E64646EA0E265C60DE614E686D
:1029D00009691E641F62DF6947F40067DF61DF6910
:1029E00027F48067DF613DE0036840F200481A6A1F
:1029F00043F4806522F010021A621C6A1A46D3F86A
:102A000004C052F818EF8F6824F02004C4F20108C3
:102A1000454544EA071407D1CF686FF0400624F01B
:102A2000C00406EA07163443D1F80090454506D1A4
:102A3000D1E905562CF440672E4347EA860C2EF464
:102A4000E64747EA0927C3F804C09F614F68096950
:102A50009F631C629F6947F400679F619F6927F429
:102A600080679F6109021368194311600021BDE866
:102A7000F043002280F83C200846704701210022E4
:102A800080F83C2008467047002804BF01207047AA
:102A900010B5044690F83D0028B9002084F83C00A9
:102AA000204600F01FF8022084F83D002068211D18
:102AB00000F048FE012084F8460084F83E0084F8C7
:102AC0003F0084F8400084F8410084F8420084F814
:102AD000430084F8440084F8450084F83D00002059
:102AE00010BD0000006844F20001C4F201018842F8
:102AF00018BF704781B00020009043F64400C4F234
:102B00000200016841F480310160006800F4803007
:102B10000090009801B0704770470000C1B10429CF
:102B200008D0082914BF41224022825C012A05D026
:102B300016E000BF3F22825C012A11D1022208293F
:102B400010D0042914BF80F8412080F83F200BE00A
:102B500090F83E20012A03D1022280F83E2003E0B3
:102B60000120704780F84020006801F01F01012219
:102B7000036A02FA01F123EA01020262026A1143C6
:102B800041F2FF72C4F20002904201620CDC40F29A
:102B9000FF71C4F20001884214DCB0F1804F37D0DD
:102BA00040F2004116E000BF40F2FF31C4F20101E3
:102BB000884215DC41F60001C4F20001884227D0AA
:102BC000002115E040F60001C4F2000188421FD048
:102BD00040F60041C4F20001884219D01FE000BF56
:102BE00044F20001C4F20101884211D040F20041D8
:102BF000C4F20101884212D1416C40F2004340F41A
:102C00008062C4F2010341F400419A42416406D15A
:102C1000816801F00701062904BF002070470168A0
:102C200041F0010101600020704700000000000039
:102C3000006840F20041C4F20101884208D042F22B
:102C40000001C4F20001884218BF7047FEF736BD8C
:102C50002DE9F04F87B040F2F009C2F20009D9F82F
:102C6000184040F22C00C9F81C40D9F810A0C2F25C
:102C70000000C9F820A0D9F81480C068C9F82480E1
:102C800000689FED6B1B416A53EC112B0491C9F84E
:102C9000281000214162C9F81810C9F81010C9F8AD
:102CA000141099ED020B51EC100B04F023FA029072
:102CB000B4F1FF3F0191DCBF6442C9F81C4000EE53
:102CC000104AB8EEC00A10EE100A89ED0B0A04F0A3
:102CD000FDFB9FED590B53EC102B1546039304F0AD
:102CE000ADF89FED570B53EC102B17461E4604F022
:102CF00001FA9FED550B53EC102B06921C4604F085
:102D0000F9F99FED530B53EC102B05929B4604F001
:102D1000F1F902460B4603F0E9FF03F0B5FFBAF103
:102D2000FF3FC9F83C00DCBFCAF1000AC9F820A087
:102D300000EE10AAB8EEC00A10EE100A89ED0C0AD7
:102D400004F0C4FBDDE9013204F078F83A4633467A
:102D500004F0D0F9069A2346A24604F0CBF9059A6E
:102D60005B4604F0C7F902460B4603F0BFFF03F0D1
:102D70008BFFB8F1FF3FC9F84000DCBFC8F1000885
:102D8000C9F8248000EE108AB8EEC00A10EE100ACE
:102D900089ED0D0A04F09AFB039C2A46234604F0B1
:102DA0004DF83A46334604F0A5F9069A534604F026
:102DB000A1F9059A5B4604F09DF902460B4603F023
:102DC00095FF03F061FF049A4EF661218A42114695
:102DD000C9F84400A2BF4FF6FF70411AC9F8281085
:102DE00000EE101AB8EEC00A10EE100A89ED0E0AB5
:102DF00004F06CFB2A46234604F020F83A4633469A
:102E000004F078F9069A534604F074F9059A5B4683
:102E100004F070F902460B4603F068FF03F034FF3C
:102E2000C9F8480007B0BDE8F04F704700BF00BFC9
:102E30000000000000004A400000000000609840D0
:102E40000000000000408F400000000000001A4019
:102E5000192D4454FB2109407047000070470000C1
:102E600070470000B0B582B001680A68CC684B6951
:102E700002F02F05202D04F0200505D125B102B068
:102E8000BDE8B04000F0FEBC5FEA027C1EBF03F06C
:102E9000010E04F4907313EB0E0341D1036BD506BE
:102EA00018D5012B16D114F0100313D00022019273
:102EB0000A6801924A680192019A496949064BD40D
:102EC000818DC28DC38D002B18BF914240F0F281DD
:102ED00002B0B0BD13062DD514F080032AD090F8AF
:102EE0003D20212AF4D18268B2F5805F03D10269C6
:102EF000002A00F06382026A531C036212784A605F
:102F0000C28C013A1304C284E2D1C86820F0800068
:102F1000C860C86840F04000C86002B0B0BD00BFE3
:102F2000D30718BF14F4807340F0CE80530700F12C
:102F3000D180D6E05206CBD514F04002C8D0CA6882
:102F400022F04002CA60202180F83D1002B0BDE8A6
:102F5000B04000F0D7BA00BF826B11684B689DB2D9
:102F6000002DB5D0818D8D42B2D2C385D269B2F524
:102F7000807F00F0A180016851E8031F026821F4FE
:102F8000807142E80313DBB1016851E8031F026856
:102F900021F4807142E8031393B1016851E8031FE3
:102FA000026821F4807142E803134BB1016851E8D3
:102FB000031F026821F4807142E80313002BDAD169
:102FC000016851E8051F026821F0010142E805137C
:102FD000BBB3016851E8051F026821F0010142E816
:102FE000051373B3016851E8051F026821F0010160
:102FF00042E805132BB3016851E8051F026821F070
:10300000010142E80513002BDAD11AE0016851E80A
:10301000051F026821F0400142E80513DBB1016899
:1030200051E8051F026821F0400142E8051393B101
:10303000016851E8051F026821F0400142E80513CC
:103040004BB1016851E8051F026821F0400142E8D8
:103050000513002BDAD1202180F83E1000210163F6
:10306000016851E8031F026821F0100142E80313D0
:10307000DBB1016851E8031F026821F0100142E84A
:10308000031393B1016851E8031F026821F0100196
:1030900042E803134BB1016851E8031F026821F0B5
:1030A000100142E80313002BDAD1816B0446084675
:1030B000FEF7DEF8A18D2046C28D891A89B202B0D2
:1030C000BDE8B040FFF7CABE036C43F001030364E0
:1030D000530706D5BEF1000F03D0036C43F0020383
:1030E0000364930706D5BEF1000F03D0036C43F0D1
:1030F00004030364BCF1000F06D55EEA050303D0A8
:10310000036C43F008030364036C002B3FF4E0AE50
:10311000920605D525B1044600F0B4FB216820468F
:103120004969026C01F0400102F00802891800F0C0
:10313000B98000BF016851E8031F026821F4907153
:1031400042E80313BBB3016851E8031F026821F48E
:10315000907142E8031373B3016851E8031F0268DA
:1031600021F4907142E803132BB3016851E8031F67
:10317000026821F4907142E80313002BDAD11AE0BF
:10318000016851E8051F026821F0010142E80513BA
:10319000DBB1016851E8051F026821F0010142E836
:1031A000051393B1016851E8051F026821F0010180
:1031B00042E805134BB1016851E8051F026821F090
:1031C000010142E80513002BDAD1016B012924D15A
:1031D000016851E8031F026821F0100142E803135F
:1031E000DBB1016851E8031F026821F0100142E8D9
:1031F000031393B1016851E8031F026821F0100125
:1032000042E803134BB1016851E8031F026821F043
:10321000100142E80313002BDAD1202180F83E1080
:103220000021016301684969490640F1C1800168D4
:1032300051E8051F026821F0400142E80513DBB1A7
:10324000016851E8051F026821F0400142E80513BA
:1032500093B1016851E8051F026821F0400142E87E
:1032600005134BB1016851E8051F026821F04001C8
:1032700042E80513002BDAD1816B002900F0988019
:1032800043F67902C0F60002044608460A65FEF7D6
:1032900037F800283FF41CAEA06B016D02B0BDE80A
:1032A000B04008470446FFF7DBFD0020206402B071
:1032B000B0BD00BF891A00BF026852E8032F03683F
:1032C00022F4907243E80325BDB3026852E8032F4D
:1032D000036822F4907243E8032575B3026852E84C
:1032E000032F036822F4907243E803252DB302688C
:1032F00052E8032F036822F4907243E80325002D5F
:10330000DAD11AE0026852E8052F036822F00102C0
:1033100043E80525DDB1026852E8052F036822F075
:10332000010243E8052595B1026852E8052F0368BC
:1033300022F0010243E805254DB1026852E8052F4D
:10334000036822F0010243E80525002DDAD120228E
:1033500080F83E2000220263026852E8032F0368CF
:1033600022F0100243E80325DDB1026852E8032F82
:10337000036822F0100243E8032595B1026852E881
:10338000032F036822F0100243E803254DB10268C1
:1033900052E8032F036822F0100243E80325002DB2
:1033A000DAD189B202B0BDE8B040FFF757BD00BF27
:1033B00002B0BDE8B040FFF753BD00BF026A32F86B
:1033C000023B6FF35F234B60026299E5002804BF64
:1033D0000120704710B5044690F83D0028B9002040
:1033E00084F83C00204600F021F8242084F83D00B9
:1033F0002068C16821F40051C160204600F0C2FA83
:103400002068016921F490410161416921F02A019C
:103410004161C16841F40051C16000202021206455
:1034200084F83D1084F83E1010BD000080B586B0D1
:1034300041F200010068C4F20101002288420592B5
:10344000CDE903220292019202D006B080BD00BFF6
:1034500043F630000092C4F20200436943F01003C7
:103460004361436903F010030093009B00920368DB
:1034700043F001030360006800F001000090009831
:103480004FF4C06001900220CDE9020201200490B7
:103490000720059001F5704001A9FDF743FF2520A5
:1034A00002210022FEF7AAF92520FEF795F906B0C1
:1034B00080BD00007047000090F83D30202B0BD1FC
:1034C00000294FF0010318BF002A01D118467047A8
:1034D00090F83C30012B03D102231846704700BFFF
:1034E0000162002321218284C284036480F83D109C
:1034F000016880F83C30C86840F08000C860184619
:1035000070470000006841F20001C4F201018842E6
:1035100018BF704740F24010C2F20000806801F00E
:10352000FDBC000080B540F2D81045F20041C2F267
:103530000000C4F2000148F2A06200234FF4804C66
:10354000C0F2010280E80E00C0E9033CC0E9053387
:10355000C0E90733FDF7C6FF002808BF80BDBDE8FE
:103560008040FDF77FBE000080B540F2B44041F2DC
:103570000001C2F20000C4F2010100234FF00C0C64
:103580004FF4E13280E80E00C0E90333C0E905C31F
:10359000C361FFF71BFF002818BFFDF763FE25205E
:1035A00002210022FEF72AF92520BDE88040FEF71F
:1035B00013B90000FEE70000FEE7000080B501F04F
:1035C000C7F902F04FF9BDE8804001F0CFB9000023
:1035D00070B592B006AC20463021FDF74AF80025C0
:1035E00043F640000595CDE90355CDE90155009519
:1035F000C4F202000168022641F0805101600068B7
:1036000000F080500090009847F200000095C4F24E
:103610000000016841F480410160006800F48040CE
:10362000009000980120099010200A9008200E9028
:10363000A820CDE90F060420119020460696CDE97A
:103640000C65FEF747FA28B1EFF3108072B600BFA1
:10365000FEE700BF0F20CDE901064FF48050CDE911
:10366000040001A805210395FEF704F920B1EFF34A
:10367000108072B6FEE700BF12B070BD80B543F691
:103680000400C4F20200416801F00C0242F2004161
:10369000082AC0F2F40107D0042A21D147F64001DC
:1036A000C0F27D111CE000BFD0F800C003680268C2
:1036B00003F03F03C2F3881E5FEA4C2247F6400244
:1036C000C0F27D1258BF0A46B2FBF3F10268022332
:1036D000C2F301420EFB01F103EB4202B1FBF2F136
:1036E00040F22802C2F200021160406847F26C63A7
:1036F000C0F30310C0F60003185C21FA00F010605C
:1037000080BD00004EF68850CEF20000016841F402
:10371000700101607047000080B540F22440C2F2A1
:103720000000FEF757FF40F20430C2F20000BDE88F
:103730008040FEF74FBF000040F22440C2F200007C
:10374000FEF748BF10B540F6FF3E0368C4F2000E16
:1037500040F2004C7045C4F2010C25DCB0F1804F02
:103760002FD040F20042C4F20002904229D040F62D
:103770000002C4F20002904223D041F6FF72C4F26C
:103780000002904227DC70453ADCB0F1804F5BD0FC
:1037900040F20042C4F20002904255D040F60002CE
:1037A000C4F200024EE000BF40F60042C4F2000244
:1037B000904206D0604504D00022C4F2010290423B
:1037C000DBD14A6823F07003134341F6FF72C4F261
:1037D00000029042D7DD43F6FF72C4F2010290422C
:1037E00020DC42F20002C4F2000290422CD00022FF
:1037F000C4F20102904227D0604525D028E000BFE6
:1038000040F60042C4F2000290421DD041F6000290
:10381000C4F20002904217D041F60042C4F2000206
:1038200010E000BF44F20002C4F2010290420BD04B
:1038300044F60002C4F20102904205D044F2004274
:10384000C4F20102904203D1CA6823F440731343C7
:1038500023F080024B69D1F800E08C681A430260C3
:10386000C46240F48062C0F828E0624504BF096980
:1038700001630121416110BD806B0021C185C184BC
:10388000FFF7EEBA81B090F83E10222921D183686B
:103890000246B3F5805F09D152F8281F52F8183C50
:1038A000002B63D003685B680AE000BF52F8281F52
:1038B00013B90369002BF5D003685B6803F07F033D
:1038C0000B70116801311160C18D01390A04C18585
:1038D00002D001B0704700BF0168CA6822F0200220
:1038E000CA60CA6822F48072CA604A6922F0010282
:1038F0004A61202180F83E10016B01293ED1002150
:10390000016300BF016851E8031F026821F0100144
:1039100042E80313DBB1016851E8031F026821F09C
:10392000100142E8031393B1016851E8031F0268D4
:1039300021F0100142E803134BB1016851E8031F65
:10394000026821F0100142E80313002BDAD101686C
:103950000A68D20606D5002200920A6800924968D9
:1039600000910099818D01B0FFF778BA0268526822
:103970006FF35F2221F8022B8162A5E701B0FFF708
:1039800099BD0000B0B50446006804F108030ECBF1
:103990000569194325F440552A4302616269E369C8
:1039A0001143C268194349F20C639A431143C16041
:1039B0004169A26921F4407141F20043114340F48E
:1039C0008062C4F201039A42416103D1FEF738F8E4
:1039D00002E000BFFEF720F8E1694FF69C756368CE
:1039E0001922C0F6FF75B1F5004FA0FB02011FD1EF
:1039F0005A00DB0FFCF7F4FC48F21F51C5F2EB1143
:103A0000A0FB01235A0905F1805302FB0300322376
:103A100003EBC000A0FB01014FF4F87000EA1110A5
:103A200000EB0210C1F34211084421688860B0BD68
:103A30009A009B0FFCF7D4FC48F21F51C5F2EB1122
:103A4000A0FB01235A0902FB0500322303EB0010FF
:103A5000A0FB0101F02000EA511000EB0210C1F3BD
:103A60004311084421688860B0BD000040F2B440B2
:103A7000C2F20000FFF7F6B9FEE70000002804BF1D
:103A800000207047C1B209B101200CE010F47F4161
:103A900002D0090A092006E010F47F0107BF010ED9
:103AA0001920090C112047F28462C0F60002515C13
:103AB000084470472DE9F04F99B040F2F0004AF603
:103AC0008B614BF62F2240F60008C2F20000C4F2D0
:103AD0004E01CAF2E822C4F20208C0E90221FDF751
:103AE000FBFDFFF775FD002443F630000594CDE99A
:103AF0000344CDE901440E94CDE90C44CDE90A44D8
:103B00001594C4F20200016808F5006541F0100147
:103B100001600168002201F01001159115991594BA
:103B200001684FF0060A41F020010160016801F0D0
:103B30002001159115991594016841F080010160EB
:103B4000016801F08001159115991594016841F003
:103B500004010160016801F00401159115991594A3
:103B6000016841F001010160016801F00101159156
:103B700015991594016841F008010160016801F090
:103B80000801159115991594016841F00201016031
:103B9000016801F00201159115991594016841F031
:103BA000400101600068062100F040001590159862
:103BB0002846FDF78BFC08F5406630461E210022A2
:103BC0004FF01E0BFDF782FC404606210022FDF758
:103BD0007DFC0DF10409012728464946CDF804A0D3
:103BE000CDE902770494FDF79DFB30464946CDE9C7
:103BF00001B7CDE90374FDF795FB40464946CDE991
:103C000001A7CDE90374FDF78DFB4FF440400A9006
:103C10004FF44410CDE90B0408F580600AA9FDF7C4
:103C200081FB282000210022FDF7E8FD2820FDF778
:103C3000D3FD40F2DC30A8F50031C2F200004FF6AF
:103C4000FF72C0E900148021C0E9024281610321B2
:103C500001AA92C201A9CDE90A440461CDE9044454
:103C6000CDE90647CDE90844FEF742FB20B1EFF36A
:103C7000108072B6FEE700BF40F2DC30C2F20000F6
:103C80000AA9FEF727F928B1EFF3108072B600BF3A
:103C9000FEE700BF40F224400021A8F58232C2F2C4
:103CA0000000A72341F2883780261891CDE916112C
:103CB000CDE912110791C0E90023C0E90217C0E95C
:103CC00004118661FEF764F920B1EFF3108072B63B
:103CD000FEE700BF4FF48050159040F22440C2F23E
:103CE000000015A9FEF734FA20B1EFF3108072B688
:103CF000FEE700BF40F22440C2F20000FEF7C4FE1F
:103D000020B1EFF3108072B6FEE700BF40F224400E
:103D1000C2F2000012A9FEF7DDF828B1EFF310801F
:103D200072B600BFFEE700BF60200A9040F2244058
:103D30000024C2F200000AA90022CDE90B44CDE91B
:103D40000D44CDE90F44FEF78FFD28B1EFF310804D
:103D500072B600BFFEE700BF4FF40050069040F27D
:103D60002440C2F2000001A90594CDE90344CDE945
:103D700001440894FEF788F820B1EFF3108072B682
:103D8000FEE700BF40F22440C2F20000FEF7DAFC7A
:103D900040F26C40A8F54841C2F2000000245322D2
:103DA0004FF47A7380E816008021CDE90644CDE90E
:103DB0000444C0E903348161FEF766FE20B1EFF3ED
:103DC000108072B6FEE700BF6020CDE9010440F22A
:103DD0006C40C2F2000001A9002203940594FEF792
:103DE00043FD28B1EFF3108072B600BFFEE700BFBD
:103DF00040F26C40C2F20000FEF7A4FC40F27420D6
:103E00000021C2F200004FF47A77CDE90611CDE926
:103E10000411A8F54442A723C0E9021701618021DB
:103E2000C0E900238161FEF7B3F818B1EFF3108009
:103E300072B6FEE740F27420C2F20000FEF724FEE4
:103E400020B1EFF3108072B6FEE700BF6020019052
:103E500040F274200024C2F2000001A90022CDE942
:103E600002440594FEF700FD20B1EFF3108072B616
:103E7000FEE700BF40F27420C2F20000FEF762FCD1
:103E800040F2BC20A8F54041C2F200004FF47A7322
:103E9000CDE90644CDE90444532280E81600C0E988
:103EA00003348461FEF774F820B1EFF3108072B62A
:103EB000FEE700BF40F2BC20C2F20000FEF7E4FDC6
:103EC00020B1EFF3108072B6FEE700BF60200190D2
:103ED0000020CDE90200059040F2BC20C2F20000B3
:103EE00001A90022FEF7C0FC20B1EFF3108072B6EA
:103EF000FEE700BF40F2BC20C2F20000FEF722FC49
:103F0000FFF732FBFFF70EFB40F22440C2F2000045
:103F1000FEF7C8F840F2DC30C2F200003C21FEF7A8
:103F2000F9FA02F05DFA002019B0BDE8F08F000048
:103F3000B0B547F6280447F62400C0F60004C0F6E2
:103F40000000A04209D247F62405C0F6000500BFD4
:103F500055F8040B8047A542FAD3BDE8B040FFF7FF
:103F6000A9BD00002DE9F04F87B0DDE911890FF2FE
:103F700050565FEA49670FF25C5758BF37465FEA11
:103F8000C96648BF29F001095FEAC9764FF0300ED3
:103F900008BF4FF0200E5FEA897667D400260196AD
:103FA0000126029600260096002A00F09E804FF01F
:103FB000000B0A2B71D149F69A160DF10C08C1F6C7
:103FC000991600BF4CF6CD43CCF6CC43A2FB03348C
:103FD000E30803EB8304A2EB44043C5D0A2A08F8DF
:103FE0000B40C0F08980A3FB064505EB8505A3EBDC
:103FF0004503FB5C08EB0B0C642A8CF80130C0F025
:10400000858048F21F53C5F2EB13A2FB033463090A
:10401000A3FB064505EB8504A3EB4403FB5CB2F56B
:104020007A7F8CF8023077D344F6D353C1F262031F
:10403000A2FB0334A309A3FB064541F25974CDF258
:10404000B714A2FB044A05EB8504A3EB440342F238
:104050001074FB5CA2424FEA5A320BF1040B8CF84D
:104060000330AFD2DDF844805AE000BFB2F1FF3F29
:1040700008DD5FEA49762FD45FEA09768ED52026DF
:104080002BE000BF01260196002602962D26524203
:1040900000964FF0000B0A2B8DD003AE02F00F03F9
:1040A000FD5C130906F80B5028D003F00F03FC5CED
:1040B00006EB0B05130A6C7024D003F00F03FC5CB5
:1040C000130BAC702AD003F00F03FB5C120C0BF146
:1040D000040BEB70E2D123E02B260096002602961B
:1040E00001260196002A7FF462AF30228DF80C2061
:1040F0004FF0010B14E000BFDDF844800BF1010B21
:104100000EE000BF0BF1020B0AE000BFDDF84480B7
:104110000BF1020B04E000BFDDF844800BF1030B50
:10412000109AC345C246C8BFDA4619F0110FA2EB78
:104130000A0C67D00546029830B98D423CBF009802
:104140002870ACF1010C01355FEAC96034D4BCF1D0
:104150000107C0F291801CF0030600F09B808D42A5
:1041600038BF85F800E0012E05F1010040F09C8089
:10417000ACF102070546BCF1040FC0F08F80381D7A
:104180008D4205F1010238BF85F800E08A4238BF50
:1041900082F800E0AA1C8A4238BF82F800E0EA1CDC
:1041A0008A42A0F1040038BF82F800E0032805F13C
:1041B0000405E5DC4FF0FF3C2846C34560DAAAEB76
:1041C0000B0212F003025DD08842AAF101073CBF46
:1041D00030230370012A00F1010E0AD08E45AAF1A6
:1041E00002073CBF30238EF80030022A00F1020E95
:1041F00074D17046ABEB0A0212F1040F40F27C80DE
:1042000095E000BF0022BCF1000FC8BF0122019B56
:104210001A40ACEB0207B7F1010C8BDB17F0030679
:1042200052D088423CBF20220270012E00F10105CD
:1042300040F01C81A7F1020C2846042F46D30CF154
:1042400004022027884200F1010338BF07708B4227
:1042500038BF1F70831C8B4238BF1F70C31C8B423A
:10426000A2F1040238BF1F70032A00F10400E9DC48
:104270004FF0FF3C5EE700BF2846BC46C3459EDBCF
:10428000864654E05746ABEB0A0212F1040F33D9CD
:104290004DE000BFBCF1040FBFF471AF4FF0FF3C25
:1042A000C345FFF68CAFEBE7884238BF80F800E0EB
:1042B000022E05F1020040F0E980ACF1030705464B
:1042C000BCF1040FEAD35AE7042FB8D24FF0FF3CF9
:1042D000029800283FF431AF36E700BF03308E4527
:1042E000AAF103073CBF30228EF800208646ABEBD4
:1042F0000A0212F1040F1AD8302286468E450EF1BA
:10430000010038BF8EF80020884238BF02700EF1DD
:104310000200884238BF02700EF103008842A7F104
:10432000040738BF0270BB450EF1040EE6DBB8F19E
:10433000000F44D003AACBF10000023A002704E0AA
:104340000437C319ABF1040B60D00EEB07048C42A9
:1043500003D202EB0B035B782370BBF1020F04F175
:1043600001031DDB8B423CBF12F80B501D70C319BB
:10437000023304F102061BD08E4204D202EB0B037F
:1043800013F8013C3370BBF1040F04F1030515D39E
:104390008D42D5D202EB0B0313F8023C2B70CFE712
:1043A0009E46BCF1010F0DDA704607B0BDE8F08FF4
:1043B000B646BCF1010F05DAF6E700BFAE46BCF128
:1043C000010FF1DB1CF003071AD08E453CBF202003
:1043D0008EF80000ACF10102012F0EF1010009D0AE
:1043E0008842ACF102023CBF20230370022F0EF181
:1043F000020011D18646BCF1040F19D233E000BF90
:104400006246BCF1040F2ED312E000BFBE44BCF1E3
:10441000010FD7DAC8E700BF0EF1030E8842ACF1F6
:1044200003023CBF202303707046BCF1040F1AD373
:10443000013A2027704600BF884200F1010338BFCF
:1044400007708B4238BF1F70831C8B4238BF1F70B0
:10445000C31C8B42A2F1040238BF1F7012F1020F7D
:1044600000F10400E8D307B0BDE8F08F8D423CBFF7
:1044700020222A70022E00F1020515D1A7F1030CAB
:104480002846042FFFF422AFD9E600BF0335884247
:1044900038BF80F800E0ACF104072846BCF1040FF7
:1044A000BFF46DAEFAE600BF03308D423CBF202260
:1044B0002A70A7F1040C0546042FBFF4C0AE05E72F
:1044C000303132333435363738396162636465668A
:1044D000000000003031323334353637383941424C
:1044E0004344454600000000B0B547F6240447F6B3
:1044F0002000C0F60004C0F60000A04228BFB0BDF6
:10450000051F00BF55F8040F8047281DA042F9D3AE
:10451000B0BD000080B5FBF7C9FE40F2A811C2F2A1
:1045200000014A8801324A80BDE88040FBF7C2BEE4
:10453000B0B5FBF7BBFE40F2A814C2F200046188DC
:1045400001390AB2002A618004DDBDE8B040FBF702
:10455000B1BE00BF00216180FBF7ACFE606800289F
:1045600008BFB0BDFBF7A2FE61880029EDD105466A
:10457000A068FFF783FA421E41F21060C2F2000009
:1045800050F832106068A1F1140383420CD02270FD
:1045900041F288526360C2F2000212781C3001F1CD
:1045A00008013AB1FBF789FE2846BDE8B040FBF7A9
:1045B00081BE00BFFBF781FE2846BDE8B040FBF797
:1045C00079BE00002DE9F041002855D040F2701767
:1045D000C2F2000704467868A0424DD8B868A042ED
:1045E00098BFBDE8F08107F1180840464FF0FF3151
:1045F000A4F10C0600F0B0FC34F80A0C18B13088B5
:10460000B0F5F55F0AD024A000F0BEF934F80A2C0A
:1046100034F80C3C27A0314600F0B6F94FF4F550C1
:1046200044F80C0CD7F80CC066453CBFFE60B4469D
:1046300054F8082C78683D691318F11A2944396137
:104640000ED0598861B9B9688B4209D09C4504BF26
:10465000FE60B4465A68311A831844F8082C9960F1
:1046600054F8043CC518B54201D0698831B14046C0
:10467000BDE8F04100F052BCBDE8F081B44508BF90
:10468000FD606A6054F8081C084483604046BDE839
:10469000F04100F043BC00BF746F20667265652076
:1046A0006120626164206461746120626C6F636B7D
:1046B0003A0A00006D656D3A203078253038782C44
:1046C000207573656420666C61673A2025642C2030
:1046D0006D6167696320636F64653A2030782530C7
:1046E00034780A0040F28450C2F2000070470000A3
:1046F00040F28450C2F2000000F580507047000084
:1047000010B5FEF7BBFF40F22800C2F200000068BF
:1047100044F6D351C1F26201A0FB01014FF0FF301A
:1047200000EB91110020B0EB116F0DD14EF2100291
:10473000CEF2000251604EF62351CEF20001FF236B
:104740000B70906007201060FFF7CEFEFFF7CAFFE6
:104750000446FFF7CDFF01462046BDE8104000F0BB
:104760002DBD00007047000010B540F28051C2F22C
:1047700000010968044629B104F12800884700288F
:1047800008BF10BD616C47F60F00C0F6000000F0D6
:10479000FBF8A16A47F2CE70C0F6000000F0F4F812
:1047A000E16A47F2DB70C0F6000000F0EDF8216B23
:1047B00047F2E870C0F6000000F0E6F8616B47F2DF
:1047C000F570C0F6000000F0DFF8A16847F60200BF
:1047D000C0F6000000F0D8F8E16824A000F0D4F89A
:1047E000216926A000F0D0F8616928A000F0CCF87B
:1047F000A1692AA000F0C8F8E1692CA000F0C4F873
:10480000216A2EA000F0C0F8616A30A000F0BCF868
:10481000A16B32A000F0B8F8E16B34A000F0B4F85E
:10482000216C36A000F0B0F8207840070AD447F297
:104830008970C0F6000000F0A7F82078C00613D4F5
:104840000CE000BF00F02EFF014647F2A370C0F657
:10485000000000F099F82078C00605D447F2C07037
:10486000C0F6000000F090F8FEE700BF7230353A65
:10487000203078253038780A000000007230363A4F
:10488000203078253038780A000000007230373A3E
:10489000203078253038780A000000007230383A2D
:1048A000203078253038780A000000007230393A1C
:1048B000203078253038780A000000007231303A14
:1048C000203078253038780A000000007231313A03
:1048D000203078253038780A000000007231323AF2
:1048E000203078253038780A00000000206C723AB9
:1048F000203078253038780A000000002070633AB4
:10490000203078253038780A0000000080B5043265
:1049100022F007024FF0000C4BF6EF6E42F844CD48
:10492000CDF6AD6EC2E901EEC2E903EEC2E905EED5
:10493000C2E907EE4FF0807ED0631046C2E9091C41
:10494000C2E90BCCC2E90DC3C2F840E080BD000053
:1049500080B5FBF7ABFC41F28851C2F200010A7846
:1049600001320A70BDE88040FBF7A4BC80B5FBF7BC
:104970009DFC41F28851C2F200010A78013A0A70A6
:10498000BDE88040FBF796BC83B010B581B041F222
:104990009054844603A8C2F200040EC003AB204624
:1049A0007F216246009301F085F82046FFF7DAFE8A
:1049B00001B0BDE8104003B070470000002804BFFC
:1049C000002070472DE9F04381B040F27019C2F227
:1049D00000090330D9F8001020F003078F425ED899
:1049E00009F1180840464FF0FF310C2F98BF0C27F3
:1049F00000F0B2FAD9E900C1D9F80CE0ACEB070439
:104A0000AEEB0103A34247D2CE187288706822B978
:104A100003F10C05421BBA4246D2A0423CD20E180A
:104A20007288736822B900F10C055A1BBA4216D27B
:104A3000A34231D2CE187288706822B903F10C05F6
:104A4000421BBA4230D2A04226D20E187288736836
:104A5000002AD7D100F10C055A1BBA42D2D3044622
:104A6000184607F118039A4223D3EB1907F10C02F9
:104A7000CD184FF4F557CF50C5E90104736068684D
:104A800001240CF10C07B84274801CBF08448360F9
:104A9000D9E9040312E000BF404600F03FFA0020CD
:104AA00001B0BDE8F08300BF1C4607F118039A422D
:104AB000DBD201227280D9E90423001B1044834217
:104AC000C9F8100038BFC9F814004FF4F550764506
:104AD000308030D1BEF8020068B3D9F8082096457E
:104AE00029D0DEF8040001EB000EBEF80200002819
:104AF00018BF96451DD0DEF8040001EB000EBEF88D
:104B00000200002818BF964513D0DEF8040001EB20
:104B1000000EBEF80200002818BF964509D0DEF846
:104B2000040001EB000EBEF80200002818BF9645F5
:104B3000D7D1C9F80CE0404600F0F0F906F10C00BE
:104B400001B0BDE8F083000010B5042A1ED310F0B8
:104B500003031BD1CBB24FF00134102A03FB04FC3A
:104B600016D3A2F11004012303EB141313F0030373
:104B700010D0012BC0E900CCC0F808C0C0F80CC0B0
:104B80000CD100F1100322461BE000BF864656E020
:104B9000864631E00346302C16D22BE0022BC0E9CA
:104BA00004CCC0F818C0C0F81CC003D100F1200329
:104BB000203A06E000F13003303AC0E908CCC0E901
:104BC0000ACC9E46302C15D303F1400E403AC3E97F
:104BD00000CCC3E902CCC3E904CCC3E906CCC3E9E9
:104BE00008CCC3E90ACCC3E90CCCC3E90ECC0F2A2C
:104BF0007346E9D8042A22D3734600BF141F042C3D
:104C00004EF804CB1AD3A2F10804042CC3F804C054
:104C10000ED3A2F10C04042CC3F808C00CD303F18A
:104C2000100E103AC3F80CC0032A7346E6D806E00B
:104C300003F1080E02E000BF03F10C0E2246002A29
:104C400008BF10BD5FFA81FC0446704611466246FB
:104C5000FBF7E5FC204610BD2DE9F041884640F207
:104C60004C01C2F200010A78054682420F460FD07D
:104C70000F4617F8100FA8420AD00F4617F8200F5A
:104C8000A84205D011F8300FA84218BF00210F46E6
:104C9000F868FFF793FE0646C0B1FA683046002177
:104CA0000024FFF751FF30464146082235727472E6
:104CB00000F038FAFBF7FAFA57F8041F324642F8C8
:104CC0000C1F4A603A605760FBF7F4FA3046BDE8C3
:104CD000F081000010B5044600202072FBF7E6FAD0
:104CE0002246216952F80C3F59600B602261126024
:104CF000FBF7E0FA2046BDE81040FFF763BC000078
:104D000010B5044600202072FBF7D0FA54F80C1FAF
:104D100062684A601160C4E90044BDE81040FBF7D6
:104D2000C9BA0000F0B581B00E4640F24C01C2F2A3
:104D3000000115460A780446B2420F460FD00F46CE
:104D400017F8100FB0420AD00F4617F8200FB042E4
:104D500005D011F8300FB04218BF00210F46FFF701
:104D6000D9FB0437384600BF0068B84208D0006855
:104D7000B84205D00068B84202D00068B842F3D10A
:104D8000FFF7D6FB46F08000207220462946082215
:104D900000F0C8F9FBF78AFA396844F80C1F4C6038
:104DA0003C60676001B0BDE8F040FBF783BA0000EB
:104DB000007AC0097047000070B5FBF777FA40F23F
:104DC000A815C2F20005698821B1BDE87040FBF763
:104DD00071BA00BFA96806460846FEF74FFE0146B5
:104DE0004A1E41F21061C2F2000151F832106B68A4
:104DF000A1F1140430469C42E7D041F288502A7059
:104E00006C60C2F20000027803F11C0001F108019D
:104E100032B1FBF752FA3046BDE87040FBF74ABAB0
:104E2000FBF74BFA3046BDE87040FBF743BA000091
:104E300010B50446FBF73AFA94F8341094F835208C
:104E400001F0F001013184F8341041F21061C2F236
:104E5000000101EBC2014A6840F2A81C04F11403EE
:104E6000C2F2000C1360A2614B60A26BDCF8083048
:104E7000616143EA0201CCF80810BDE81040FBF77D
:104E800019BA0000B0B50546FBF710FA294651F8EB
:104E9000142F4B6853601A6091F8212041F210637F
:104EA0000960C2F2000353F8324003EBC20294429D
:104EB000496003D0BDE8B040FBF7FCB940F2A8124E
:104EC000C2F20002A96B936823EA01019160BDE878
:104ED000B040FBF7EFB90000B0B50D460146022027
:104EE0001446FFF7B9FE002808BFB0BD00F1140159
:104EF000C0E9051185834472B0BD000070B5154648
:104F00000A4602211C460646FFF70CFF06F1140074
:104F1000C6E905000020B583747270BD10B5044663
:104F2000FBF7C4F9224652F8141F91420CD01439F1
:104F30000446084600F094FB2046FBF7BBF9FFF758
:104F40003BFF002010BD00BFA18B0131A183FBF707
:104F5000B1F9002010BD00002DE9F04381B00D46ED
:104F600006460091FBF7A2F9B18B39B10139B18343
:104F7000FBF7A0F9002001B0BDE8F083002D3FD081
:104F8000804600F08FFB044600202063777A20469D
:104F900006F1140900F0F6FBD7B3012F404640D1CB
:104FA00049460968494555D094F8352091F8213093
:104FB0009A421AD3096849454CD094F8352091F8A3
:104FC00021309A4211D30968494543D094F83520DD
:104FD00091F821309A4208D3096849453AD094F8AB
:104FE000352091F821309A42DBD24A6804F114034B
:104FF0001360A2614B606161012D14DA1EE000BFF5
:10500000FBF758F96FF0010001B0BDE8F08300BF75
:10501000B06904F114010160A061B161C4F8149099
:105020004046012D0ADB04F144056A46284600216A
:1050300000F072FC284600F0B5FC4046FBF73AF958
:10504000FFF7BAFE206B002808BF002001B0BDE8C2
:10505000F08300BFB16904F114020A60A161B2617A
:10506000C4F81490012DDEDAE8E7000080B582B0C4
:105070000AA0FFF789FC0CA0FFF786FC0FF24C0C8E
:1050800015A0032101220323CDF800C0FFF77CFC0B
:1050900019A002B0BDE88040FFF776BC0A205C2072
:1050A0007C202F0A000000002D205254202D2020AB
:1050B000202020546872656164204F7065726174AD
:1050C000696E672053797374656D0A004D617920AC
:1050D0002038203230323500202F207C205C2020E8
:1050E00020202025642E25642E2564206275696C9D
:1050F000642025730A0000002032303036202D2035
:105100003230313920436F70797269676874206278
:10511000792072742D746872656164207465616DA4
:105120000A000000002A08BF7047F0B581B0C2F144
:10513000000C00238646CC5CC454FCB10CEB030588
:105140006C1C16D2CE187778C4186770E7B1AF1C04
:105150000FD0B778A770EFB103350AD0F578E570B6
:10516000F5B104330EF1040E1CEB0304A2F10402AA
:10517000E1D101B0BDE8F040704700BF0EF101037E
:10518000511E11D1F5E700BF0EF10203013A511E85
:105190000AD1EEE70EF10303023A511E04D1E8E70B
:1051A000033A231D511EE4D004461846FBF73FFA8C
:1051B000204601B0BDE8F0407047000010B521F076
:1051C00003030A46192B014630D3C81C20F0030004
:1051D000A3F11804844229D3191A40F27014A1F1E2
:1051E0001802C2F20004C4E900204FF4F5520C3951
:1051F0004FF0000CC0E90021C0F808C041F6A060E3
:10520000C0F201001A4642F80C0D43F8081C206851
:10521000A2600C3043F8040C04F1180006A101222E
:105220000023FFF76BFE6068E06010BD04A0BDE8DE
:105230001040FFF7A9BB00BF686561700000000067
:105240006D656D20696E69742C206572726F7220B5
:10525000626567696E20616464726573732030787B
:1052600025782C20616E6420656E64206164647210
:1052700065737320307825780A00000010B541F27C
:105280001062C2F2000202F11800C2E9060002F147
:10529000200002F1080302F11001C2E9080002F146
:1052A0004000C2E90233C2E9041102F1280102F10F
:1052B000300302F13804C2E9100002F16000C2E9D3
:1052C0000A11C2E90C33C2E90E4402F1480102F1AD
:1052D000500302F15804C2E9180002F18000C2E94B
:1052E0001211C2E91433C2E9164402F1680102F155
:1052F000700302F17804C2E9200002F1A000C2E9C3
:105300001A11C2E91C33C2E91E4402F1880102F1FC
:10531000900302F19804C2E9280002F1C00040F2B3
:10532000A81EC2E92211C2E92433C2E9264402F1CF
:10533000A80102F1B00302F1B804C2E9300002F1A1
:10534000E000C2F2000EC2E92A11C2E92C33C2E920
:105350002E4402F1C80102F1D00302F1D804C2E9DF
:1053600038001F204FF0000CC2E93211C2E934337B
:10537000C2E9364402F1E80102F1F00302F1F80457
:105380008EF800000EF10C00AEF802C0C2E9002257
:10539000C2E93A11C2E93C33C2E93E44CEE901CC4C
:1053A000CEE9030010BD000010B540F2A814C2F20F
:1053B0000004A068FEF762FB41F21061C2F2000136
:1053C00001EBC00050F8080CA0F114010830616036
:1053D000BDE81040FAF7B7BF40F2BC10C2F20000BF
:1053E000011DC0E901117047704700002DE9F0432D
:1053F00083B00F46014601201D461646FFF72CFCE0
:1054000000283DD004462846FFF7D8FA00283DD0B2
:1054100004F11401DDE90A98C4E9051123212A46A3
:10542000C4E90876C4E90A05FFF78EFB04F12003FE
:105430000FCB1A4445F2A943043AC0F60003FFF724
:1054400065FA45F2C972E061002704F14400C0F634
:1054500000022146234684F8369084F83590C4E94A
:105460000E78C4F84080276384F83470C4E91C7750
:105470000097019700F07CFA204603B0BDE8F08366
:105480000024204603B0BDE8F08300BF2046FFF7AC
:1054900021FC0024204603B0BDE8F08380B500F075
:1054A00007F9002080BD0000B0B540F2AC10C2F298
:1054B00000000568FAF7FAFE04462846FFF7E2FC0A
:1054C000042085F8340005F1440000F03DFA284638
:1054D000FFF76EFC012801D1286F88B140F2B410AB
:1054E000C2F20000016845F8141F4D600560686055
:1054F0002046FAF7DFFEBDE8B040FFF75DBC00BF15
:105500002846FFF7FDFB2046FAF7D4FEBDE8B04081
:10551000FFF752BC40F2B416C2F2000608E000BF2A
:105520002846FFF7EDFBFFF703F82046FAF7C2FE27
:105530003068B042FCD0FAF7B9FE37680446B7428B
:10554000F3D0D7E90001A7F1140541600860C7E96D
:105550000077FEF7DFFFF96D09B128468847284636
:10556000FFF726FC0128DBD0FEF7E2FF2046FAF722
:10557000A1FE7869FFF726F82846FFF7ABFBD7E7CF
:1055800010B584B041F210724FF48071C2F2000283
:1055900040F2F8441F20CDE90021C2F2000445F298
:1055A00015524FF0200C029007A1C0F600022046D1
:1055B0000023CDF80CC000F00BF8204604B0BDE885
:1055C000104000F0B1B800BF7469646C6500000061
:1055D0002DE9F04782B00DF1280A16460A46DDF89B
:1055E00034909AE8800501211D460446FFF79AFB96
:1055F00004F11400C4E90500384623214246C4E9F9
:105600000865C4E90A78FFF79FFA04F120030FCB7D
:105610001A4445F2A943043AC0F60003FFF776F9AD
:1056200045F2C972E061002704F14400C0F60002AF
:105630002146234684F836A084F835A0C4E90E79C3
:10564000C4F84090276384F83470C4E91C7700974D
:10565000019700F08DF9002002B0BDE8F08700004E
:1056600090F8341001F00F0102291CBF4FF0FF30F9
:105670007047B0B50446FAF719FE2246A16952F800
:10568000143F054604F1440059600B60A2611260AA
:1056900000F0F4F92846FAF70DFE2046FFF7C8FBA4
:1056A0000020B0BD40F2AC10C2F2000000687047AC
:1056B000F0B581B00090FAF7F9FD40F2AC11C2F2FA
:1056C00000010C68054694F8341001F00F0101291F
:1056D00013D1FAF7EBFD94F83410064601F0F00010
:1056E000023084F834002046FFF7CCFB04F144007C
:1056F00000F0C4F93046FAF7DDFD04F144066A46CD
:1057000030460021002700F007F9304600F04AF942
:105710002846FAF7CFFDFFF74FFB206B023008BF9A
:105720002763002001B0F0BDB0B5044690F8360004
:10573000012184F8350001FA00F0A063022084F80A
:105740003400FAF7B3FD2246A16952F8143F05462A
:1057500004F1440059600B60A261126000F08EF900
:105760002846FAF7A7FD2046FFF762FB40F2AC108F
:10577000C2F200000068002818BFFFF71DFB0020E0
:10578000B0BD0000B0B5044690F8340000F00F0042
:1057900001281CBF4FF0FF30B0BDFAF787FD94F829
:1057A0003410054601F0F000023084F83400204641
:1057B000FFF768FB04F1440000F060F92846FAF7AF
:1057C00079FD0020B0BD000080B50346826953F822
:1057D000141F6FF0010CC0F830C04A601160836183
:1057E0001B60FFF725FBBDE88040FFF7E5BA00002E
:1057F00010B5FAF75BFD40F2AC11C2F20001096886
:1058000091F8342002F00F02012A21D10A4652F801
:1058100014CF53689C451BD091F835E041F21064D9
:10582000C2F2000404EBCE04CCF804308A61D4F850
:1058300004E0C3F800C0CEF80020C1F818E06260B0
:105840004C61FAF737FDFFF7B7FA002010BD00BF33
:10585000FAF730FD002010BD41F61400C2F200003E
:105860000068704780B541F61400C2F2000001687C
:1058700001310160FFF716FF016C0139016403D0AB
:10588000BDE8804000F008B8C16B0164FFF7B0FFCD
:10589000BDE88040AFF300802DE9F041FFF7DCFF69
:1058A0000546FAF703FD40F2BC16C2F20006314687
:1058B00051F8044F80468C4228D04FF6FE77C7F649
:1058C000FF7704E0304650F8044F84421ED06069F0
:1058D000281AB8421AD894E80E00E0684A601160AD
:1058E000C4E900449847FFF7B7FF14F80B1C0546BE
:1058F00001F0030001F0FE01032804F80B1CE1D1C4
:10590000A4F1140000F04EF8DCE700BF4046BDE80B
:10591000F041FAF7CFBC000003290FD8DFE801F00F
:105920000210060A1168416200207047417A01F0B6
:10593000FD0102E0417A41F002014172002070470E
:10594000406A10600020704710B50446FAF7AEFCBC
:105950002246A16952F8143F59600B60A26112609F
:10596000FAF7A8FC2046FFF7CBF9002010BD000095
:105970002DE9F04115460A46DDE906870A211C4655
:105980000646FFF7CFF907F0FE007072002006F11F
:105990001401C6E90511C6E90754C6E90980BDE846
:1059A000F08100002DE9F0410446FAF77FFC25461E
:1059B00055F8141F6A684A60116015F80B1C2D60B9
:1059C00001F0FE016D6005F80B1CFAF773FCFFF7A0
:1059D00043FF296908446861FAF768FC40F2BC1C7F
:1059E000C2F2000CDCF808304FF6FE7E0CF1040623
:1059F0006FF00048C7F6FF7E9E4223D03268A16A4E
:105A000057697F1A01D0474520D39A421AD01668A9
:105A1000A76A7169CF1B01D047451BD39E4211D0A5
:105A20003268A76A5169CF1B01D047450ED39A420D
:105A300008D01668A76A7169CF1BDDD07745374655
:105A4000DAD808E01F681A4605E000BF174632465C
:105A500001E000BF3746DCF800107D600131CCF872
:105A60000010617A676141F001011560A261617205
:105A7000FAF720FC0020BDE8F081000010B50446D4
:105A8000407AC00704BF4FF0FF3010BDFAF70EFC9C
:105A900054F8141F62684A601160C4E90044FAF7C0
:105AA00009FC14F80B0C00F0FE0004F80B0C0020AD
:105AB00010BD00002DE9F04F85B09B46144600EB69
:105AC00001084FF020090391002948BF4FF0FF382B
:105AD000049009E00BF1040BF7B2CDE9001C41463C
