:020000040800F2
:10000000102300205D020008E93E00087F0300087D
:10001000E53E000845080008B54300080000000060
:100020000000000000000000000000006F02000857
:10003000ED08000800000000CB020008ED3E0008BB
:1000400077020008770200087702000877020008AC
:10005000770200087702000877020008770200089C
:100060007702000877020008E90B00087702000811
:10007000770200087702000877020008770200087C
:10008000770200087702000877020008770200086C
:10009000770200087702000877020008010C0008C8
:1000A000770200084940000877020008770200083C
:1000B000770200087702000877020008770200083C
:1000C000770200087702000877020008770200082C
:1000D00077020008A94300087702000877020008A9
:1000E000F10800087702000877020008770200088C
:1000F00075400008554000087702000877020008A4
:1001000077020008770200087702000877020008EB
:1001100077020008770200087702000877020008DB
:1001200077020008770200087702000877020008CB
:1001300077020008770200087702000877020008BB
:1001400077020008770200087702000877020008AB
:10015000770200087702000877020008770200089B
:10016000770200087702000877020008770200088B
:1001700077020008770200087702000800000000FC
:10018000770200087702000800F002F800F057F844
:1001900014A696E8000CB244B344DA4501D100F04D
:1001A0004EF8BAE80F000FA696E83000A5EB04055C
:1001B00004EB0607AAEB0704A7F101074FEA1515A0
:1001C0004FEA3414A4F10104AC4201D300F037F833
:1001D00013F0010F18BFFB1A43F0010300F001F800
:1001E000DBE71847287F0000487F0000103A24BF53
:1001F00078C878C1FAD8520724BF30C830C144BF8C
:1002000004680C6070470000704700000023002461
:1002100000250026103A28BF78C1FBD8520728BF16
:1002200030C148BF0B607047642900F09D810020F9
:1002300070471FB507F07CFE1FBD10B510BD00F064
:10024000A1FA1146FFF7F5FF00F0D2FA00F0BFFA6D
:1002500003B4FFF7F2FF03BC00F0C2FA094880477D
:1002600009480047FEE7FEE7FEE7FEE7FEE7FEE798
:10027000FEE7FEE7FEE7FEE704480549054A064BB0
:10028000704700003540000889010008101D00205B
:1002900010230020101F0020101F0020EFF31080FB
:1002A00072B6704780F310887047434A1368012B79
:1002B00004D04FF001031360404A1060404A1160BF
:1002C00040484FF0805101607047EFF3108272B6E2
:1002D0003948016851B34FF00001016037480168A7
:1002E00091B1EFF309811EF0100F08BF21ED108BC3
:1002F00021E9F00F4FF000041EF0100F08BF012499
:1003000041F8044D006801602D490968096808C971
:10031000B1E8F00F002B18BFB1EC108B81F3098806
:100320004EF0100E002B18BF2EF0100E82F3108826
:100330004EF0040E704722490860EFF3148222F059
:10034000040282F314881D494FF0000008601A4926
:100350004FF0010008601C484FF47F01D0F80020E6
:1003600041EA0201016017484FF0805101601748CF
:100370000068006880F3088861B662B670471EF0B6
:10038000040F0CBFEFF30880EFF3098020E9F00FB2
:1003900040F804ED40F804ED1EF0040F0CBF80F3AC
:1003A000088880F3098800B505F03AF85DF804EB99
:1003B0004EF0040E7047000088180020FC15002045
:1003C0000416002004ED00E020ED00E008ED00E060
:1003D00053EA020C00F069802DE9F04B4FF0000663
:1003E000002B1FBFB3FA83F503FA05F424FA05F6D0
:1003F0005E4012BF1643B2FA82F502FA05F4C5F167
:1004000020051EBF22FA05FC44EA0C04203556EAFA
:10041000044C4FEA144418BF641C4FF000084FF01E
:100420000009904271EB030C39D3002919BFB1FACE
:1004300081F701FA07F6B0FA80F700FA07F6C7F17C
:1004400020071EBF20FA07FC46EA0C062037B6FB41
:10045000F4FCA7EB0507103F07F01F0BCBF12006BC
:100460002CFA06F60CFA0BFB44BFB3460026202FED
:10047000A4BF5E464FF0000B5BEA060C08BF4FF0CE
:10048000010B19EB0B0948EB0608ABFB027C06FBE2
:1004900002CC0BFB03CCC01B71EB0C01C1E70B467C
:1004A000024641464846BDE8F08B13B5084318BFE5
:1004B0004FF0FF300146AFF30080BDE81C407047AD
:1004C0000FB41CB50C0007AA009007D04142A1420E
:1004D00002D32044401E01E04FF0FF30074B7B4425
:1004E00069460190069800F02EF90021002C01D0F9
:1004F000009A11701CBC5DF814FB00008B02000018
:100500002DE9F0410E460446002020622046E168B5
:10051000884730B3252805D0D4E901219047206AC7
:10052000401CF2E7E168204600278847050018D004
:10053000A5F14100192802D820354FF40067324652
:10054000294620462760FFF76FFE40B1012804D0FE
:10055000F61D26F007060836D8E7361DD6E72846EA
:10056000DAE7206ABDE8F0812DE9F0410646002473
:1005700010687529314616A510D0AFF30080002809
:1005800002DA404213A507E031688A0701D512A5B7
:1005900002E0490704D511A5012401E0AFF3008072
:1005A00000210A2206F1240709E0B0FBF2FCB0FBAF
:1005B000F2F302FB1C00303078541846491C002826
:1005C000F3D123462A463046BDE8F04100F05CB83E
:1005D000000000002D0000002B00000020000000A3
:1005E00002F0FF0343EA032242EA024200F002B8AB
:1005F0004FF000020429C0F0128010F0030C00F04C
:100600001B80CCF1040CBCF1020F18BF00F8012BC9
:10061000A8BF20F8022BA1EB0C0100F00DB85FEA97
:10062000C17C24BF00F8012B00F8012B48BF00F863
:10063000012B70474FF0000200B5134694469646D2
:10064000203922BFA0E80C50A0E80C50B1F12001E5
:10065000BFF4F7AF090728BFA0E80C5048BF0CC093
:100660005DF804EB890028BF40F8042B08BF7047F1
:1006700048BF20F8022B11F0804F18BF00F8012B63
:1006800070477047704770472DE9F0470D4699460F
:100690009246044600F124080168880604D5E06902
:1006A00021F01001216000E00120A84201DD471B7C
:1006B00000E00027A1697A1902EB0900081AA0617D
:1006C0002078C00602D42046AFF30080002608E060
:1006D000D4E901211AF806009047206A401C761CD4
:1006E00020624E45F4DB2078C0060AD52046AFF3E1
:1006F000008006E0D4E9012130209047206A401CA8
:100700002062381EA7F10107F4DC07E0D4E90121DB
:1007100018F805009047206A401C2062281EA5F1A9
:100720000105F3DC2046AFF300802078000602D5F7
:100730000220BDE8F0870120FBE7000001694A1CA8
:1007400002610878704700B58FB0CDE90131002112
:10075000059105497944CDE9031011466846FFF734
:10076000CFFE0FB000BD0000E5FFFFFFD1E9002381
:100770009A4202D2531C0B601070704700487047B9
:10078000800000207546FFF7F9FFAE460500694678
:10079000534620F00700854618B020B5FFF76CFDE2
:1007A000BDE820404FF000064FF000074FF0000872
:1007B0004FF0000BAC46ACE8C009ACE8C009ACE8AF
:1007C000C009ACE8C00921F007018D46704710B59B
:1007D0000446AFF300802046BDE81040FFF738BD67
:1007E00001491820ABBEFEE726000200704700005A
:1007F00080B582B0FFF752FD04F0DEFD05F092FAFD
:1008000005F046FC05F096FB48F2620044F6E9313B
:100810004FF0140C4FF00A0EC0F60000C0F60001B5
:1008200000224FF48063CDE900EC05F03BFC05F0BD
:10083000D7FD05F035FC05F0FFFC05F011FC0020AC
:1008400002B080BDFEE700002DE9F04381B02DED40
:10085000028BB0EE408AF0EE608A9FED150B884661
:10086000814651EC110B53EC102B07F04BF99FED27
:10087000120B53EC102B07F045F955EC184B2246A0
:100880002B4606460F4606F037FE41EC100B20467D
:10089000294632463B4689ED000B07F031FA41EC20
:1008A000100B88ED000BBDEC028B01B0BDE8F083AE
:1008B00014AE47E17A14CE3F000000000000E03F94
:1008C00040F22C0220EAE070C2F20002B0F57A7F1A
:1008D000A8BF4FF47A7052F8212040F2E853126812
:1008E000C2F2000343F821005063704770470000D4
:1008F0002DE9F04381B043F61447C4F2010738688C
:1009000040F2E85840F2E0064004C2F20008C2F2A9
:10091000000605D43868C00467D401B0BDE8F08390
:100920003868400444BF4FF480403860EFF31080D3
:1009300072B6D8F80800002846D040F20C40C2F247
:1009400000000068D0F82490B068A9EB0000B06106
:10095000B06907F04CF89FED580B02460B4651EC7E
:10096000100B06F07DFE9FED560B54EC105B2A46F3
:10097000234607F0C7F841EC100B4CF6002286ED39
:10098000140B9FED510BC3F69A32B26153EC102B4E
:1009900006F066FE2A46234607F0B4F89FED4C0B9E
:1009A00053EC102B07F0AEF89FED4B0B53EC102BD4
:1009B00007F0A8F802460B4606F09EFD41EC100B2E
:1009C00086ED0C0B0BE000BF9FED450B40F20C4099
:1009D00086ED0C0BC2F200000068D0F82490C6F837
:1009E000089062B63868C00497D53868C00444BF20
:1009F0004FF480503860EFF3108072B6D8F80C00D6
:100A0000002847D040F20C40C2F200000068476A5C
:100A1000F068381AF061F06906F0E9FF9FED260BE7
:100A200002460B4651EC100B06F01AFE9FED240B0C
:100A300054EC105B2A46234607F064F841EC100B97
:100A40004CF6002286ED160B9FED1F0BC3F69A3273
:100A5000F26153EC102B06F003FE2A46234607F002
:100A600051F89FED1B0B53EC102B07F04BF89FED4B
:100A70001A0B53EC102B07F045F802460B4606F014
:100A80003BFD41EC100B86ED0E0BF76062B601B03A
:100A9000BDE8F0839FED120B40F20C4086ED0E0B8B
:100AA000C2F200000068476AF76062B601B0BDE8B4
:100AB000F08300BF00BF00BF000000000000F03F57
:100AC0000000000000408F400000000000607840FF
:100AD0000000000000002140192D4454FB21094072
:100AE0000000000000000000F0B581B0EFF31080BE
:100AF00072B640F2E850C2F20000006840F2E00630
:100B00000028C2F2000647D040F20C40C2F20000BA
:100B10000068476A3068381A3061306906F067FF4C
:100B20009FED250B02460B4651EC100B06F098FD8D
:100B30009FED230B54EC105B2A46234606F0E2FFA0
:100B400041EC100B4CF6002286ED100B9FED1E0BB6
:100B5000C3F69A32326153EC102B06F081FD2A461F
:100B6000234606F0CFFF9FED1A0B53EC102B06F037
:100B7000C9FF9FED190B53EC102B06F0C3FF024683
:100B80000B4606F0B9FC41EC100B86ED080B376004
:100B900062B601B0F0BD00BF9FED110B40F20C40FA
:100BA00086ED080BC2F200000068476A376062B643
:100BB00001B0F0BD00BF00BF000000000000F03F2A
:100BC0000000000000408F400000000000607840FE
:100BD0000000000000002140192D4454FB21094071
:100BE000000000000000000043F61440C4F20100C1
:100BF0000168C90644BF10210160FFF775BF0000FE
:100C000043F61440C4F201000168090644BF802184
:100C10000160F0B581B0EFF3108072B640F2E85099
:100C2000C2F20000406840F2E0060028C2F200066E
:100C300046D040F20C40C2F200000068476A70687B
:100C4000381A7061706906F0D2FE9FED250B0246DE
:100C50000B4651EC100B06F003FD9FED230B54ECFB
:100C6000105B2A46234606F04DFF41EC100B4CF674
:100C7000002286ED120B9FED1E0BC3F69A327261B5
:100C800053EC102B06F0ECFC2A46234606F03AFF04
:100C90009FED190B53EC102B06F034FF9FED180B52
:100CA00053EC102B06F02EFF02460B4606F024FCF8
:100CB00041EC100B86ED0A0B776062B601B0F0BD17
:100CC0009FED110B40F20C4086ED0A0BC2F20000C2
:100CD0000068476A776062B601B0F0BD00BF00BF30
:100CE000000000000000F03F0000000000408F40C6
:100CF000000000000060784000000000000021407B
:100D0000192D4454FB2109400000000000000000A0
:100D1000EFF3108072B600BFFEE7000070B5866D7D
:100D2000044600F03DF994F83510022928D1054613
:100D30002068216C026822F016020260426922F0EB
:100D40008002426109B9A16C19B1016821F0080162
:100D50000160016821F00101016000BF20680068A6
:100D6000C00715D000F01CF9401B0628F6D3202040
:100D70006065032084F83500002184F8341070BDCC
:100D8000802060650120002184F8341070BD00BF10
:100D9000E06D3F2101FA00F0B060012084F83500D9
:100DA0000020002184F8341070BD000090F8351048
:100DB000022909D1052180F835100068016821F069
:100DC00001010160002070478021416501207047CA
:100DD000B0B5044600F0E4F8054640F22000C2F247
:100DE00000000078611C18BF044400BF00F0D8F870
:100DF000401BA042FAD3B0BD2DE9F04F83B000F103
:100E0000200200F13E4741F60045009207F1FF77CE
:100E1000C4F2020508224FEAB726A84208BF0722FB
:100E200000254FF000084FF00009072E38BF4FEAA9
:100E3000B72201920AE000BF09F1010908F1020896
:100E4000B9F1100F05F1040500F0A0800F68012230
:100E500002FA09FE17EA0E0AEED0D1F804C0032206
:100E60000CF003077E1E02FA08F4012E6FEA040B51
:100E700012D88468CE6804EA0B0406FA08F63443F4
:100E80008460446824EA0E06CCF3001404FA09F4E2
:100E90002643466004E000BF032F01D103271EE074
:100EA000C6688C6806EA0B0604FA08F42643022F8B
:100EB000C66014D16FF00302009E02EA590756F88B
:100EC00007C005F01C040F220B69A2402CEA0202A5
:100ED000A3401A43F251D1F804C00CF00307026892
:100EE00007FA08F302EA0B021A431CF4403F0260BF
:100EF000A2D0002243F644030292C4F202031A680D
:100F000043F6004442F480421A601A68C4F20104B5
:100F100002F480420292029A29F003024FF6084C32
:100F20002244CFF6FF7C52F80C3005F00C070F2658
:100F3000BE40B343019E06FA07F73B4342F80C302C
:100F400022684B6842EA0A07DE0358BF22EA0A0712
:100F5000276062689E0342EA0A0758BF22EA0A072E
:100F60006760A268DE0242EA0A0743F60C4658BFF1
:100F700022EA0A07A760C4F2010632689B0242EA2D
:100F80000A0758BF22EA0A07376055E703B0BDE8F1
:100F9000F08F0000002A08BF09048161704700003B
:100FA00041F60C50C2F2000000687047002804BFF0
:100FB00001207047F0B581B0044690F83D0028B993
:100FC000002084F83C00204600F09EFE242084F897
:100FD0003D002068016821F001010160016841F4D1
:100FE00000410160016821F40041016001F0A2F8B4
:100FF000636848F2A16CC0F2010C40F60011C0F227
:101000003D0163453CBF48F28041C0F21E01884269
:1010100002D2012001B0F0BD4DF68361C4F21B3154
:10102000A0FB01122168970CD1F804E04FF49676EA
:101030002EF03F0545EA92454D60774348F6381655
:101040000D6AC0F24106A7FB067625F03F0763450F
:1010500038BF960C721C3A430A62CA6948F2A0660D
:101060004CF6FF77C0F20106B34222EA07020BD822
:1010700001385B00B0FBF3F001306FF31F30042840
:1010800098BF04201BE000BFA768013857B119279B
:101090007B43B0FBF3F001306FF31F3070B100F50C
:1010A000804007E003EB4303B0FBF3F001306FF344
:1010B0001F3018B100F5004001E000BF01201043CF
:1010C000C8610868D4E9072320F0C0001043184322
:1010D0000860886848F2FF3204F10C0790438CCF17
:1010E00018431043A6698860C86820F0FF003843A1
:1010F0003043C860086840F00100086000202021EB
:10110000206484F83D10206384F83E0001B0F0BDF7
:101110002DE9F04182B01F46164688460446FFF787
:101120003FFF94F83D1020291ED1054620688169B3
:10113000890715D5FFF734FF401B1928F6D9002081
:101140002021206384F83D1084F83E00216C41F09A
:101150002001216484F83C00022002B0BDE8F08147
:1011600094F83C10012903D1022002B0BDE8F081BF
:10117000012184F83C100168C90703D1016841F0DE
:1011800001010160016821F400610160222184F8FD
:101190003D10102184F83E100021216466626785AD
:1011A000618D21850021CFF6FF71E162E16A02685D
:1011B00011F5803F42F48062026018BF012919D105
:1011C000016841F4807101604169089EC90724D11A
:1011D000711C18D0002E00F0C58000BFFFF7E0FEA4
:1011E000401BB04200F2C08020684169C907F5D0B9
:1011F00013E000BF0829E3D0216B1129E0D0E3E719
:101200004169C90709D14169C90706D14169C907BF
:1012100004BF41695FEAC171F2D02169B1F5804F25
:1012200008D148F00101C9B201614169890740F163
:10123000C68001E1062101EAD81707F1F00101613A
:101240004169090732D44169721C14D0490500F183
:10125000E980002E00F01082FFF7A2FE401BB04292
:1012600000F20C822068416909071FD441694905D1
:10127000F2D5D7E04169490500F1D48041690907F9
:1012800014D44169490500F1CD80416909070DD4A5
:101290004169490500F1C6804169090706D44169E1
:1012A000490500F1BF8041690907E3D55FFA88F17C
:1012B00001614169890739D44169721C4FEA415182
:1012C00014D0002900F1AE80002E00F0D581FFF788
:1012D00067FE401BB04200F2D18120684169890756
:1012E00024D441694905F2D59CE000BF002900F1F2
:1012F00099804169890719D44169490500F19280B3
:101300004169890712D44169490500F18B8041691F
:1013100089070BD44169490500F184804169890737
:1013200004D441694905E4D57CE000BF0021019166
:1013300041690191816901910199016841F48071CC
:1013400001604169C90734D1711C28D056B1FFF73B
:1013500027FE401BB04207D820684169C907F6D074
:1013600027E000BFFFF71CFE00202021206384F847
:101370003D1084F83E00216C41F020012164216879
:1013800084F83C000868C00544BF4FF40070206436
:10139000012002B0BDE8F0814169C90709D1416966
:1013A000C90706D14169C90704BF41695FEAC17134
:1013B000F2D047F0F1010161416989073CD44169EC
:1013C000721C4FEA415113D000292BD4002E00F09B
:1013D0005381FFF7E5FD401BB04200F24F812068CA
:1013E0004169890728D441694905F2D51AE000BF4F
:1013F000002917D4416989071ED44169490511D4D0
:101400004169890718D4416949050BD441698907A5
:1014100012D44169490505D4416989070CD4416951
:101420004905E7D5016841F4007101606FF48061FE
:101430004161042023E100BF218DD9B1022911D0DF
:1014400001292DD1026822F48062026000220192FB
:101450004269019282690192019A026842F4007223
:10146000026028E0026822F480620260026842F4AE
:10147000006218E0002101914169019181690191A7
:101480000199016841F400710160202084F83D0059
:10149000002084F83E0084F83C0002B0BDE8F081F2
:1014A000026842F480620260002201924269019265
:1014B00080690190019888B2032817D802283FD08C
:1014C000012851D1002E00F099802068014651F882
:1014D000142F520600F196800868C00600F1F280D1
:1014E000FFF75EFD401BB042EFD9E0E086B100BFE0
:1014F0002068014651F8142F52060ED40868C00621
:1015000000F1E080FFF74CFD401BB042F0D9CEE087
:1015100020684169490640F1C3800069616A08702A
:10152000606A218D01300139606221852268638DF6
:10153000013B638553695B0770D51169017064E0F5
:1015400020684169490745D4711C6BD0002E00F01A
:10155000CD80FFF725FD401BB04200F2C980206816
:1015600041694907F5D535E02068416949070ED43E
:10157000711C65D0002E00F0B980FFF711FD401BF3
:10158000B04200F2B580206841694907F5D501688D
:1015900021F4806101600069616A0870606A218DD0
:1015A00001300139606221852068618D01396185D2
:1015B000416949070ED4711C50D0002E00F096806E
:1015C000FFF7EEFC401BB04200F2928020684169B8
:1015D0004907F5D5016841F4007101600069616A4D
:1015E0000870606A2268411C6162218D0139218581
:1015F000618D013961851169417006E0206841699A
:1016000049064DD50069616A0870606A218D013014
:10161000013960622185608D0138608508047FF49E
:101620004AAF32E741694907D4D4416949075CBFF1
:1016300041695FEA4171CDD441694907F2D5C9E7F3
:1016400041694907A3D4416949075CBF41695FEA21
:1016500041719CD441694907F2D598E7416949072E
:10166000B8D4416949075CBF41695FEA4171B1D4AF
:1016700041694907F2D5ADE7FFF792FC2020002130
:101680002022216384F83D2084F83E10226C104310
:10169000206484F83C10012002B0BDE8F08100BF56
:1016A00050F8141FC90601460CD4FFF779FC00203E
:1016B0002021206384F83D1084F83E00206C40F027
:1016C00020000AE06FF01000086000202021206355
:1016D00084F83D1084F83E00206C2064002084F8DB
:1016E0003C00012002B0BDE8F08100BFFFF758FCCC
:1016F00000202021206384F83D1084F83E00216CF6
:1017000041F02001216484F83C00012002B0BDE8D2
:10171000F08100002DE9F04381B01F46164688464F
:101720000446FFF73DFC94F83D1020291ED10546E4
:1017300021688869800715D5FFF732FC401B1928FE
:10174000F6D900202021206384F83D1084F83E0063
:10175000216C41F02001216484F83C00022001B09A
:10176000BDE8F08394F83C00012803D1022001B0C9
:10177000BDE8F083012084F83C000868C00703D16D
:10178000086840F001000860086820F40060086004
:10179000212084F83D00102084F83E0000202064C1
:1017A00066626785608D20850020CFF6FF70E0625D
:1017B000E06A10F5803F18BF012819D1086840F48D
:1017C000807008604869DDF82090C00723D119F1C6
:1017D000010016D0B9F1000F00F07E80FFF7E0FBAA
:1017E000401B48457AD821684869C007F6D012E006
:1017F0000828E3D0206B1228E0D0E3E74869C0074F
:1018000009D14869C00706D14869C00704BF4869C3
:101810005FEAC070F2D02069B0F5804F02D1FE209F
:1018200039E000BF062000EAD810F03008614869AE
:1018300000072FD4486919F1010214D040057DD466
:10184000B9F1000F00F03681FFF7AAFB401B4845B5
:1018500000F232812168486900071BD448694005BD
:10186000F2D56BE04869400568D44869000711D497
:101870004869400562D4486900070BD448694005AF
:101880005CD44869000705D44869400556D44869C6
:101890000007E7D5FF2000EA0800086148698007D3
:1018A00056D4486919F101024FEA40502CD0002863
:1018B00044D4B9F1000F00F0FD80FFF771FB401B2D
:1018C000484500F2F98021684869800740D448699A
:1018D0004005F2D532E000BFFFF762FB0020202177
:1018E000206384F83D1084F83E00216C41F0200113
:1018F0002164216884F83C000868C00544BF4FF4A7
:10190000007020640EE100BF002817D448698007EA
:101910001ED44869400511D44869800718D4486925
:1019200040050BD44869800712D44869400505D4A6
:10193000486980070CD448694005E7D5086840F439
:10194000007008606FF4806048610420B5E000BF5B
:10195000002000904A6900928A690092009A228DC4
:10196000002A00F0998009F101080A4652F8143F54
:101970001B0637D4B8F1000F18D0B9F1000F00F0F2
:10198000AD8000BF1068400500F1B080FFF708FB94
:10199000401B484500F2A78021680A4652F8140F00
:1019A00000064FF00000EDD51CE000BF13685B059A
:1019B00000F19C8013681B0614D413685B0500F1CA
:1019C000958013681B060DD413685B0500F18E80AB
:1019D00013681B0606D413685B0500F18780136843
:1019E0001B06E3D5676A3A4612F8013B0B61626257
:1019F000628D013A6285268D0A46A6F1010CA4F893
:101A000028C052F8143F5B070DD55FEA0C430AD09B
:101A10007B78A6F1020C0B61BB1C6362638D013BFA
:101A20006385A4F828C013685B0731D4B8F1000FB0
:101A300016D0B9F1000F51D01068400556D4FFF709
:101A4000AFFA401B48454ED821680A4652F8140F99
:101A500040074FF00000EFD5B4F828C018E000BFF1
:101A600013685B0542D413685B0711D413685B05E8
:101A70003CD413685B070BD413685B0536D413683A
:101A80005B0705D413685B0530D413685B07E7D5A3
:101A90005FEA0C427FF469AF0A6842F400720A60A0
:101AA000202184F83D1084F83E0084F83C0001B009
:101AB000BDE8F083FFF774FA202000212022216383
:101AC00084F83D2084F83E10226C1043206484F892
:101AD0003C10012001B0BDE8F08300BF1068400554
:101AE00004D4FFF75DFA202004E000BF6FF48060AB
:101AF0001060042000212022216384F83D2084F816
:101B00003E10226C1043206484F83C10206C0428A2
:101B100008D12068016841F400710160012001B022
:101B2000BDE8F083012001B0BDE8F0832DE9F0436A
:101B300083B0994616460F460446FFF731FA94F8EB
:101B40003D1020291ED1054620688169890715D5D9
:101B5000FFF726FA401B1928F6D900202021206320
:101B600084F83D1084F83E00216C41F0200121648E
:101B700084F83C00022003B0BDE8F08394F83C10E8
:101B8000012903D1022003B0BDE8F083012284F8CB
:101B90003C200368DDE90B180A9ADB0703D10368D0
:101BA00043F001030360036823F400630360212012
:101BB00084F83D00402084F83E00002020646262EA
:101BC0006185608D394620850020CFF6FF70E06288
:101BD000204632464B46CDE9008501F03BFF18B167
:101BE000012003B0BDE8F083208D002850D020688C
:101BF00008F10106014651F8142F12062CD49EB1AB
:101C0000B8F1000F5AD000BF086840055ED4FFF756
:101C1000C7F9401B404556D82068014651F8142F9B
:101C20001206F1D518E000BF0A6852054ED40A68C2
:101C3000120611D40A68520548D40A6812060BD459
:101C40000A68520542D40A68120605D40A68520589
:101C50003CD40A681206E7D5626A114611F8013BC6
:101C60000361238D6162591E2185678D013F678560
:101C700047697F070AD50F0408D051780161911C8C
:101C80006162991E2185628D013A62850904B1D194
:101C9000204641462A4602F015F838BB2068016804
:101CA00041F400710160202084F83D00002084F898
:101CB0003E0084F83C0003B0BDE8F08308684005AE
:101CC00004D4FFF76DF9202004E000BF6FF48060BA
:101CD0000860042000212022216384F83D2084F83C
:101CE0003E10226C1043206484F83C10206C0428C1
:101CF0007FF476AF2068016841F400710160012033
:101D000003B0BDE8F0830000B0B586B0006845F6CA
:101D10000001C4F2000100248842CDE90444CDE969
:101D2000024401942CD045F20041C4F200018842E3
:101D30004FD143F630050094C4F20205286801A98A
:101D400040F002002860286800F00200009000982F
:101D5000C02001901220CDE9020403200490042049
:101D6000059040F20040C4F20200FFF745F80094ED
:101D7000286940F400102861286900F4001026E06A
:101D800043F630050094C4F20205286801A940F02A
:101D900002002860286800F00200009000984FF4CC
:101DA000406001901220CDE9020403200490042039
:101DB000059040F20040C4F20200FFF71DF80094C5
:101DC000286940F480002861286900F480000090B0
:101DD000009806B0B0BD000040F2200041F60C5162
:101DE000C2F20000C2F2000100780A6810440860E4
:101DF0007047000080B543F60040C4F2020001685D
:101E000041F400710160016841F480610160016882
:101E100041F480710160032000F0AAF80F2000F067
:101E200005F800F04BF8002080BD000010B586B02A
:101E300001462D200022002400F06EF82D2000F035
:101E400059F843F640000194C4F20200016841F4DD
:101E5000807101600068694600F48070019001980B
:101E600001A800F047F900F065F94DF683614000E4
:101E7000C4F21B31A0FB01014FF0FF3000EB914198
:101E800040F2C43042F20002C2F20000C4F200028A
:101E900040F2E733C0E90021C0E90243046100F0E9
:101EA00005FC18B1012006B010BD00BF40F2C430DF
:101EB000C2F2000000F00AFD06B010BD82B00020A2
:101EC00043F640010190C4F202014A6842F48042A4
:101ED0004A604A6802F480420192019A00900868C0
:101EE00040F080500860086800F080500090009832
:101EF00002B07047002848BF704700F01F01012260
:101F000002FA01F11C2202EAD0004EF20012CEF2D7
:101F1000000281507047000010B54EF60C5CCEF206
:101F2000000CDCF80030C3F3022E8EF00704042C02
:101F300028BF0424BEF103034FF0FF3E0EFA04F461
:101F400038BF0023A14399400EFA03F39A4311438B
:101F500000F00F0200F160430901043A03F5644305
:101F60006244002848BF02F10C03197010BD000044
:101F70004EF60C51CEF200010A684FF6FF031A40EC
:101F800060F30A2242F0806040F0FD700860704704
:101F9000002804BF012070472DE9F04143F60808EE
:101FA000C4F202080446D8F8F8030D4600F0070012
:101FB000884207D288F8F853D8F8F80300F00700F1
:101FC000A84277D12068810717D5410705D5D8F8F1
:101FD000001041F4E051C8F80010010705D5D8F809
:101FE000001041F46041C8F80010D8F80010A26851
:101FF00021F0F0011143C8F80010C00740D1D8F813
:10200000F80300F00700A84207D988F8F853D8F879
:10201000F80300F00700A8424CD12068410707D51B
:10202000D8F80010E26821F4E0511143C8F800101C
:10203000000708D5D8F80000216920F4604040EA84
:10204000C100C8F8000000F09DF8D8F8001047F66D
:102050004A72C1F30311C0F60002515C40F228023B
:1020600020FA01F140F22400C2F200000068C2F23E
:1020700000021160FFF7DAFE0020BDE8F08100BF2A
:102080006068811E022907D258F8081C89015CBFCC
:102090000120BDE8F08111E0012807D158F8081CA3
:1020A00089035CBF0120BDE8F08107E058F8081CF7
:1020B000890703D40120BDE8F08100BFD8F80010E3
:1020C00021F003010843C8F80000FEF769FF064647
:1020D00041F28837D8F80000616800F00C00B0EBDE
:1020E000810F8CD0FEF75CFF801BB842F2D9032031
:1020F000BDE8F0810F22026043F60802C4F202023A
:10210000136803F003034360136803F0F003836074
:10211000136803F4E053C360D2F800C04FF4E053F7
:1021200003EADC030361D2F8F80300F0070008605B
:102130007047000040F2280043F60801C2F2000098
:10214000C4F202010068096847F65A72C1F382219D
:10215000C0F60002515CC8407047000040F2280001
:1021600043F60801C2F20000C4F2020100680968E7
:1021700047F65A72C1F34231C0F60002515CC840C2
:102180007047000010B543F60404C4F2020460680E
:1021900000F00C0008280BD0042819BF42F20040C0
:1021A000C0F2F40047F64000C0F27D1010BD00BF41
:1021B000206821682368490247F64001C0F27D117A
:1021C00000F03F02C3F388105CBF42F20041C0F24E
:1021D000F401A1FB00010023FEF7FAF821680222B6
:1021E000C1F3014102EB4101B0FBF1F010BD000071
:1021F000002804BF012070472DE9F04182B0044659
:10220000007843F60006C007C4F202060CD0B0689E
:1022100000F00C00042840F081803068800303D572
:102220006068002800F06881207880071BD5B068BE
:1022300010F00C0F09D0B06800F00C00082840F036
:1022400087807068400200F183803068800703D582
:10225000E068012840F050813068216920F0F800E2
:1022600040EAC10030602078000713D4207840078E
:102270002AD4A569002D00F03A81B06800F00C0066
:10228000082840F0A580012D40F00E81012002B009
:10229000BDE8F0816069002800F082800020C4F26F
:1022A00047200121C0F8801EFEF77AFE054600BFD8
:1022B000706F8007DAD4FEF773FE401B0228F7D94F
:1022C000032002B0BDE8F081306C5FEAC0080AD498
:1022D00000200190306C40F080503064306C00F091
:1022E00080500190019847F20007C4F20007386857
:1022F000C00547D4386840F480703860FEF750FE5F
:10230000054600BF3868C0053CD4FEF749FE401BB7
:102310000228F7D9032002B0BDE8F081B06800F0D0
:102320000C00082803D1706840023FF576AF616861
:102330003068B1F5803F07D0B1F5A02F40F09A800A
:1023400040F480203060306840F4803030609AE0A3
:10235000E068002840F20000C4F247205CD0012170
:102360000160FEF71DFE0546306880073FF574AF3B
:10237000FEF716FE401B0228F6D9032002B0BDE886
:10238000F08100BFA168306F012905D0052955D122
:1023900040F004003067306F40F00100306756E0D5
:1023A0000020C4F247200021C0F8801EFEF7F8FD8F
:1023B000054600BF706F80077FF558AFFEF7F0FD50
:1023C000401B0228F6D9032002B0BDE8F08100BF0F
:1023D0000027C4F2472700203866FEF7E1FD022DF2
:1023E00005460DD13068800140F18A80FEF7D8FDA6
:1023F000401B02284FF00300F4D902B0BDE8F08181
:102400003068800173D5FEF7CBFD401B02284FF0EA
:102410000300F5D9F1E700BF00210160FEF7C0FD20
:10242000054600BF306880077FF51DAFFEF7B8FD99
:10243000401B02284FF00300F4D9DEE720F0010032
:102440003067306F002920F0040030677AD0FEF743
:10245000A7FD054641F28837306F800700F1848080
:10246000FEF79EFD401BB842F6D9032002B0BDE83E
:10247000F08100BF20F4803030603068002920F403
:10248000802030607AD0FEF78BFD054630688003EF
:102490003FF5CAAEFEF784FD401B6428F6D9032041
:1024A00002B0BDE8F08100BF7068E16900F480020D
:1024B0008A4221D1216A00F03F028A421CD147F6AC
:1024C000C071626A0140B1EB821F15D1A16A4FF65B
:1024D000FF73C903994300F44032A1F580318A4269
:1024E0000AD1E16A00F07060B0EB016F04D1002006
:1024F00002B0BDE8F08100BF012002B0BDE8F0816C
:1025000004F11C052FCD084340EA8210D9034FF691
:10251000FF729143A1F5803140EA05600843706085
:1025200001203866FEF73CFD044600BF306880019C
:10253000DDD4FEF735FD001B02284FF00300F5D96E
:102540005BE700BFFEF72CFD054641F2883700BF70
:10255000306F800708D5FEF723FD401BB8424FF0CF
:102560000300F5D949E700BFB8F1000F3FF581AE90
:10257000306C20F0805030647BE600BFFEF710FD29
:10258000054600BF306880037FF54EAEFEF708FDBC
:10259000401B64284FF00300F4D92EE77047000079
:1025A0007047000090F83C20012A04BF02207047C9
:1025B000B0B501F108053CCDD1E900CE23F47C5340
:1025C00022F470521A432EF4F0431A432CF4E043E1
:1025D0001A4324F4C0431A432A43C96922F48042AF
:1025E000036811435964002180F83C100020B0BDFD
:1025F00090F83C20012A4FF0020254D010B580F828
:102600003D200268D2F804E0D2F808C00C682EF031
:102610007003234341F2FF74C4F20004A2425360EA
:102620000EDC40F2FF73C4F200039A4216DCB2F1F2
:10263000804F2BD040F20043C4F2000324E000BFDF
:1026400040F2FF33C4F201039A4213DC41F6000367
:10265000C4F200039A4219D0002313E040F60003AD
:10266000C4F200039A4211D040F60043C4F20003C2
:102670000AE000BF44F20003C4F201039A4205D00D
:1026800040F20043C4F201039A4204D149682CF09D
:102690008003194391600121002280F83D1080F8E9
:1026A0003C20BDE81040104670470000002804BFE1
:1026B0000120704710B5044690F83D0028B900206D
:1026C00084F83C00204600F01FF8022084F83D000A
:1026D0002068211D01F0D4FC012084F8460084F814
:1026E0003E0084F83F0084F8400084F8410084F8FC
:1026F000420084F8430084F8440084F8450084F8DC
:102700003D00002010BD000080B582B0006840F29E
:10271000FF31C4F20101884220DD40F20041C4F2E1
:10272000010188423CD044F20041C4F201018842D8
:1027300058D044F60001C4F20101884272D1002051
:10274000019043F64400C4F20200016841F4802184
:102750000160006800F4802062E000BFB0F1804FAB
:102760004ED00021C4F2010188425BD100200190CB
:1027700043F64400C4F202000168002241F0010166
:1027800001600068012100F001000190019819200A
:10279000FFF7C2FB192002B0BDE88040FFF7AABBDB
:1027A0000020019043F64400C4F2020001680022B8
:1027B00041F0020101600068002100F00200019078
:1027C00001982C20FFF7A8FB2C20FFF793FB2D206E
:1027D0000F210022FFF7A0FB2D2002B0BDE88040B2
:1027E000FFF788BB0020019043F64400C4F20200CA
:1027F000016841F400310160006800F400300FE02E
:102800000020019043F64400C4F2020050F8041C7A
:1028100041F0010140F8041C50F8040C00F00100E4
:102820000190019802B080BD90F83D1001291CBFB5
:1028300001207047022180F83D10006841F2FF71CD
:10284000C4F2000188420DDC40F2FF71C4F20001C5
:10285000884215DCB0F1804F2AD040F20041C4F22A
:10286000000123E040F2FF31C4F20101884213DC91
:1028700041F60001C4F20001884219D0002113E0A2
:1028800040F60001C4F20001884211D040F6004138
:10289000C4F200010AE000BF44F20001C4F20101E9
:1028A000884205D040F20041C4F20101884206D1BD
:1028B000816801F00701062904BF00207047016804
:1028C00041F00101016000207047000090F83D10C8
:1028D00001291CBF01207047022180F83D100068CB
:1028E00041F2FF72C168C4F20002904241F001015E
:1028F000C1600DDC40F2FF71C4F20001884215DCBA
:10290000B0F1804F2AD040F20041C4F2000123E030
:1029100040F2FF31C4F20101884213DC41F60001AC
:10292000C4F20001884219D0002113E040F60001F2
:10293000C4F20001884211D040F60041C4F2000107
:102940000AE000BF44F20001C4F20101884205D050
:1029500040F20041C4F20101884206D1816801F0D1
:102960000701062904BF00207047016841F00101FA
:10297000016000207047000090F83C20012A4FF0D1
:1029800002026CD080B580F83D20D0F800C04FF630
:102990007772DCF8083023EA0202CCF808200B68D2
:1029A0004F2B29DC1F2B45DD202B46D0302B44D06C
:1029B000402B40F0AF80D1F804E0C968DCF820304B
:1029C000DCF8202022F00102CCF82020DCF81820CE
:1029D00022F0F00242EA011123F00A0242EA0E025A
:1029E000CCF81810CCF82020DCF8081041F0470192
:1029F00021F0300128E000BF6F2B33DDB3F5005F1D
:102A000074D0B3F5805F21D0702B40F08380D1E982
:102A100001E3C968DCF8082043EA0E0322F47F4290
:102A200043EA01211143CCF80810DCF8081041F00A
:102A3000770109E00BB1102B6CD1DCF8081021F004
:102A40007001194341F00701CCF808100022012160
:102A500080F83D10002180F83C10BDE88040104611
:102A6000704700BF502B21D0602B53D1D1F804E028
:102A7000C968DCF8203023F01003CCF82030DCF8F3
:102A80001830DCF8202023F4704322F0A00243EA3F
:102A9000013142EA0E12CCF81810CCF82020DCF8F4
:102AA000081041F0670121F01001CDE7D1F804E0F2
:102AB000C968DCF82030DCF8202022F00102CCF8D4
:102AC0002020DCF8182022F0F00242EA011123F065
:102AD0000A0242EA0E02CCF81810CCF82020DCF8EA
:102AE000081041F0570121F02001ADE7D1E901E3E1
:102AF000C968DCF8082043EA0E0322F47F4243EA67
:102B000001211143CCF80810DCF8081041F4804191
:102B10009AE700BF01229AE780B590F83E2090F82E
:102B20003F3090F842E090F843C004290AD0B9B988
:102B3000012A4FF0010208BFBEF1010F34D0104648
:102B400080BD00BF012B4FF0010208BFBCF1010F97
:102B5000F5D1022180F83F1080F8431000681EE094
:102B6000012A4FF0010208BF012BE8D1BEF1010F8D
:102B7000E5D1BCF1010FE2D1022280F83E2080F8BD
:102B80003F2080F8422080F8432091B10068016A1C
:102B900021F001010162016A41F00101016210218D
:102BA0006FF0100209E000BF022180F83E1080F8AB
:102BB0004210006801216FF00102036A1A400262AC
:102BC000026A114301620168002241F001010160C3
:102BD000104680BD7047000010B5016804460869C2
:102BE000800744BFC8685FEA807039D4086940072D
:102BF00044BFC8685FEA40703ED40869000744BF1C
:102C0000C8685FEA007045D40869C00644BFC86858
:102C10005FEAC0604AD40869C0071CBFC8685FEAA1
:102C2000C07051D10869000644BFC8685FEA0060FF
:102C300052D40869400644BFC8685FEA406053D474
:102C40000869800646BFC8685FEA806010BD6FF003
:102C5000200220460A61BDE81040FFF7A1BC00BF7A
:102C60006FF002000861012020778869800743D057
:102C70002046FFF7AFFF45E06FF004000861022037
:102C80002077886910F4407F40D02046FFF7A2FFEC
:102C900042E000BF6FF00800086104202077C86997
:102CA00080073DD02046FFF795FF3FE06FF0100012
:102CB000086108202077C86910F4407F3AD0204688
:102CC000FFF788FF3CE000BF6FF00100086120467D
:102CD00000F0AEFA2168A5E76FF080000861204699
:102CE000FFF75CFC2168A4E76FF040000861204614
:102CF00000F04AFB2168A3E7204600F0B5F8204623
:102D000000F00CFA2168002020776FE7204600F0E1
:102D1000ABF8204600F002FA2168002020776CE72B
:102D2000204600F0A1F8204600F0F8F921680020C4
:102D3000207769E7204600F097F8204600F0EEF98A
:102D400021680020207766E780B586B0006844F2ED
:102D5000FF31C4F2010188424FF000010591CDE935
:102D60000311CDE9011125DC40F20041C4F201015B
:102D700088423DD044F20001C4F20101884270D182
:102D80000020009043F63000C4F20200016841F0D8
:102D9000100101600068022100F01000009000980E
:102DA0002020019041F20040C4F20200A0F58060B2
:102DB0004EE000BF44F20041C4F20101884231D02C
:102DC00044F60001C4F2010188424AD1002000907B
:102DD00043F63000C4F20200016841F020010160B6
:102DE0000068022100F020000090009880202AE076
:102DF0000020009043F63000C4F20200016841F068
:102E0000040101600068022100F0040000900098B5
:102E10004020019041F20040C4F20200A0F5406061
:102E200016E000BF0020009043F63000C4F202001C
:102E3000016841F0200101600068032100F02000DA
:102E4000009000984020019041F20040C4F202003E
:102E5000049103210222059101A9CDE90222FDF787
:102E6000CBFF06B080BD00007047000090F83C30FA
:102E7000012B04BF022070474FEAB202032A00F27E
:102E8000FF802DE9F043DFE802F003B13F7F00BF90
:102E9000036840F200461A6A43F4806522F001029A
:102EA0001A621C6A1A46D3F804C052F818EF8F68E9
:102EB00024F00204C4F20106B54244EA070405D135
:102EC000CF6824F00C0427F004073C430F68B54298
:102ED00006D1D1E905582CF440762E4346EA080C79
:102EE0002EF073063743C3F804C09F614F68096929
:102EF0005F631C629F6947F008079F619F6927F025
:102F000004079F61B1E000BF036840F200481A6AFD
:102F100043F4806522F480721A621C6A1A46D3F860
:102F200004C052F81CEF8F6824F40074C4F2010846
:102F3000454544EA072408D1CF6840F2FF463F02E6
:102F400024F4406427EA06063443D1F8009045454E
:102F500006D1D1E905562CF440572E4347EA061C0A
:102F60002EF0730747EA0907C3F804C0DF614F6812
:102F70000969DF631C62DF6947F00807DF61DF6909
:102F800027F00407DF6170E0036840F200451A6A29
:102F900043F4806722F480521A621A46D3F820C0A4
:102FA0005C6852F81C8FD1F800E08E68C4F201050D
:102FB000AF4204D14D6924F4804444EA85142CF4D2
:102FC000005747EA063728F4E64646EA0E265C60D4
:102FD000DE614E6809691E641F62DF6947F400679D
:102FE000DF61DF6927F48067DF613DE0036840F25D
:102FF00000481A6A43F4806522F010021A621C6AC3
:103000001A46D3F804C052F818EF8F6824F0200451
:10301000C4F20108454544EA071407D1CF686FF0B0
:10302000400624F0C00406EA07163443D1F80090A5
:10303000454506D1D1E905562CF440672E4347EAB1
:10304000860C2EF4E64747EA0927C3F804C09F61BF
:103050004F6809699F631C629F6947F400679F611D
:103060009F6927F480679F61090213681943116003
:103070000021BDE8F043002280F83C20084670475C
:103080000121002280F83C2008467047002804BF38
:103090000120704710B5044690F83D0028B9002083
:1030A00084F83C00204600F01FF8022084F83D0020
:1030B0002068211D00F0E4FF012084F8460084F818
:1030C0003E0084F83F0084F8400084F8410084F812
:1030D000420084F8430084F8440084F8450084F8F2
:1030E0003D00002010BD0000006844F20001C4F261
:1030F0000101884218BF704781B00020009043F65C
:103100004400C4F20200016841F4803101600068AB
:1031100000F480300090009801B0704770470000C4
:10312000C1B1042908D0082914BF41224022825C81
:10313000012A05D016E000BF3F22825C012A11D18E
:103140000222082910D0042914BF80F8412080F8F9
:103150003F200BE090F83E20012A03D1022280F8A4
:103160003E2003E00120704780F84020006801F015
:103170001F010122036A02FA01F123EA010202623D
:10318000026A114341F2FF72C4F2000290420162EE
:103190000CDC40F2FF71C4F20001884214DCB0F193
:1031A000804F37D040F2004116E000BF40F2FF31BF
:1031B000C4F20101884215DC41F60001C4F20001AD
:1031C000884227D0002115E040F60001C4F200013A
:1031D00088421FD040F60041C4F20001884219D055
:1031E0001FE000BF44F20001C4F20101884211D087
:1031F00040F20041C4F20101884212D1416C40F218
:10320000004340F48062C4F2010341F400419A4259
:10321000416406D1816801F00701062904BF00203E
:103220007047016841F00101016000207047000013
:1032300000680021C4F20101884209D042F2000175
:10324000C4F20001884218BF7047FEF7C5BD00BF39
:10325000B0B52DED048BEFF3108072B640F20C4048
:10326000C2F20000006840F2F005C2F200054CF620
:10327000FF13406A2968C3F69A3348F29F62994265
:1032800040F2E001C0F20102C2F200010CD90C6868
:10329000041B944208D99FED380B40F20014C2F28F
:1032A0000004086084ED000B6C689C420CD94C68EB
:1032B000041B944208D99FED300B40F20014C2F277
:1032C0000004486084ED020BAC689C420CD98C6809
:1032D000041B944208D99FED280B40F20014C2F25F
:1032E0000004886084ED040BED689D420CD9CB6826
:1032F000C31A934208D9C8609FED1F0B40F200101B
:10330000C2F2000080ED060B40F24012C2F2000251
:1033100092ED100B92ED129B51EC100B9FED180BE0
:1033200055EC104B22462B4604F0ECFB41EC180BFD
:1033300051EC190B22462B4604F0E4FB41EC110B37
:10334000B0EE480AF0EE680A03F03CFF41F6085080
:10335000C2F2000001684CF2503201310160016894
:103360009142BDEC048BBDE8B040A4BF00210160D8
:1033700062B6704700BF00BF000000000000000000
:103380000000000000005940704700007047000036
:1033900070470000B0B582B001680A68CC684B691C
:1033A00002F02F05202D04F0200505D125B102B033
:1033B000BDE8B04000F004BF5FEA027C1EBF03F02E
:1033C000010E04F4907313EB0E0341D1036BD50689
:1033D00018D5012B16D114F0100313D0002201923E
:1033E0000A6801924A680192019A496949064BD4D8
:1033F000818DC28DC38D002B18BF914240F0F281A8
:1034000002B0B0BD13062DD514F080032AD090F879
:103410003D20212AF4D18268B2F5805F03D1026990
:10342000002A00F06382026A531C036212784A6029
:10343000C28C013A1304C284E2D1C86820F0800033
:10344000C860C86840F04000C86002B0B0BD00BFAE
:10345000D30718BF14F4807340F0CE80530700F1F7
:10346000D180D6E05206CBD514F04002C8D0CA684D
:1034700022F04002CA60202180F83D1002B0BDE871
:10348000B04000F0D7BA00BF826B11684B689DB2A4
:10349000002DB5D0818D8D42B2D2C385D269B2F5EF
:1034A000807F00F0A180016851E8031F026821F4C9
:1034B000807142E80313DBB1016851E8031F026821
:1034C00021F4807142E8031393B1016851E8031FAE
:1034D000026821F4807142E803134BB1016851E89E
:1034E000031F026821F4807142E80313002BDAD134
:1034F000016851E8051F026821F0010142E8051347
:10350000BBB3016851E8051F026821F0010142E8E0
:10351000051373B3016851E8051F026821F001012A
:1035200042E805132BB3016851E8051F026821F03A
:10353000010142E80513002BDAD11AE0016851E8D5
:10354000051F026821F0400142E80513DBB1016864
:1035500051E8051F026821F0400142E8051393B1CC
:10356000016851E8051F026821F0400142E8051397
:103570004BB1016851E8051F026821F0400142E8A3
:103580000513002BDAD1202180F83E1000210163C1
:10359000016851E8031F026821F0100142E803139B
:1035A000DBB1016851E8031F026821F0100142E815
:1035B000031393B1016851E8031F026821F0100161
:1035C00042E803134BB1016851E8031F026821F080
:1035D000100142E80313002BDAD1816B0446084640
:1035E000FDF79CFBA18D2046C28D891A89B202B0DD
:1035F000BDE8B040FFF7CABE036C43F001030364AB
:10360000530706D5BEF1000F03D0036C43F002034D
:103610000364930706D5BEF1000F03D0036C43F09B
:1036200004030364BCF1000F06D55EEA050303D072
:10363000036C43F008030364036C002B3FF4E0AE1B
:10364000920605D525B1044600F0BAFD2168204652
:103650004969026C01F0400102F00802891800F08B
:10366000B98000BF016851E8031F026821F490711E
:1036700042E80313BBB3016851E8031F026821F459
:10368000907142E8031373B3016851E8031F0268A5
:1036900021F4907142E803132BB3016851E8031F32
:1036A000026821F4907142E80313002BDAD11AE08A
:1036B000016851E8051F026821F0010142E8051385
:1036C000DBB1016851E8051F026821F0010142E801
:1036D000051393B1016851E8051F026821F001014B
:1036E00042E805134BB1016851E8051F026821F05B
:1036F000010142E80513002BDAD1016B012924D125
:10370000016851E8031F026821F0100142E8031329
:10371000DBB1016851E8031F026821F0100142E8A3
:10372000031393B1016851E8031F026821F01001EF
:1037300042E803134BB1016851E8031F026821F00E
:10374000100142E80313002BDAD1202180F83E104B
:103750000021016301684969490640F1C18001689F
:1037600051E8051F026821F0400142E80513DBB172
:10377000016851E8051F026821F0400142E8051385
:1037800093B1016851E8051F026821F0400142E849
:1037900005134BB1016851E8051F026821F0400193
:1037A00042E80513002BDAD1816B002900F09880E4
:1037B00044F2B512C0F60002044608460A65FDF759
:1037C000F5FA00283FF41CAEA06B016D02B0BDE815
:1037D000B04008470446FFF7DBFD0020206402B03C
:1037E000B0BD00BF891A00BF026852E8032F03680A
:1037F00022F4907243E80325BDB3026852E8032F18
:10380000036822F4907243E8032575B3026852E816
:10381000032F036822F4907243E803252DB3026856
:1038200052E8032F036822F4907243E80325002D29
:10383000DAD11AE0026852E8052F036822F001028B
:1038400043E80525DDB1026852E8052F036822F040
:10385000010243E8052595B1026852E8052F036887
:1038600022F0010243E805254DB1026852E8052F18
:10387000036822F0010243E80525002DDAD1202259
:1038800080F83E2000220263026852E8032F03689A
:1038900022F0100243E80325DDB1026852E8032F4D
:1038A000036822F0100243E8032595B1026852E84C
:1038B000032F036822F0100243E803254DB102688C
:1038C00052E8032F036822F0100243E80325002D7D
:1038D000DAD189B202B0BDE8B040FFF757BD00BFF2
:1038E00002B0BDE8B040FFF753BD00BF026A32F836
:1038F000023B6FF35F234B60026299E5002804BF2F
:103900000120704710B5044690F83D0028B900200A
:1039100084F83C00204600F021F8242084F83D0083
:103920002068C16821F40051C160204600F0C8FC45
:103930002068016921F490410161416921F02A0167
:103940004161C16841F40051C16000202021206420
:1039500084F83D1084F83E1010BD000080B586B09C
:1039600041F200010068C4F2010100228842059280
:10397000CDE903220292019202D006B080BD00BFC1
:1039800043F630000092C4F20200436943F0100392
:103990004361436903F010030093009B00920368A6
:1039A00043F001030360006800F0010000900098FC
:1039B0004FF4C06001900220CDE902020120049082
:1039C0000720059001F5704001A9FDF715FA2520A3
:1039D00018210022FEF7A0FA2520FEF78BFA06B088
:1039E00080BD00007047000090F83D30202B0BD1C7
:1039F00000294FF0010318BF002A01D11846704773
:103A000090F83C30012B03D102231846704700BFC9
:103A10000162002321218284C284036480F83D1066
:103A2000016880F83C30C86840F08000C8601846E3
:103A300070470000006841F20001C4F201018842B1
:103A400018BF704740F24010C2F20000C06802F098
:103A5000C1B800002DE9F04381B0044600689046EB
:103A60000268099D42F4807202604269089E99468C
:103A7000D2070F461DD1711C11D0002E00F0D0804E
:103A8000FDF78EFA401BB04200F2CC8020684169FD
:103A9000C907F5D00DE000BF4169C90709D14169E7
:103AA000C90706D14169C90704BF41695FEAC1710D
:103AB000F2D007F0FE0101614169890736D44169FE
:103AC000721C1CD0490510D4002E00F0E78000BF06
:103AD000FDF766FA401BB04200F2E28020684169BF
:103AE000890723D441694905F2D5016841F4007181
:103AF00001606FF4806141610420D2E041694905B1
:103B0000F3D44169890711D441694905EDD441696C
:103B100089070BD441694905E7D44169890705D470
:103B200041694905E1D441698907E7D50021009140
:103B3000014651F8142F00924A680092009A0A68D0
:103B400012061ED4002E00F08580721C53D10A6824
:103B5000520500F187800A68120612D40A685205DD
:103B600000F180800A6812060BD40A68520579D4E5
:103B70000A68120605D40A68520573D40A68120648
:103B8000E5D5B9F1010F23D04FEA182101610146B3
:103B900051F8142F12061BD4002E5BD0721C3AD1A0
:103BA0000A6852055ED40A68120611D40A685205E2
:103BB00058D40A6812060BD40A68520552D40A680F
:103BC000120605D40A6852054CD40A681206E7D5D5
:103BD0005FFA88F10161002001B0BDE8F08300BF09
:103BE000FDF7DEF9401BB04239D82068014651F894
:103BF000142F1206C5D408684005F1D532E000BF85
:103C0000FDF7CEF9401BB04229D82068014651F893
:103C1000142F1206DCD408684005F1D522E000BF5D
:103C2000FDF7BEF900202021206384F83D1084F8C0
:103C30003E00216C41F020012164216884F83C00A1
:103C40000868C00544BF4FF400702064032001B031
:103C5000BDE8F0830868400504D4FDF7A1F92020F1
:103C600004E000BF6FF4806008600420002120227F
:103C7000216384F83D2084F83E10226C10432064B8
:103C800084F83C10206C042817D12068016841F4A6
:103C900000710160012001B0BDE8F083FDF780F9FB
:103CA000202000212022216384F83D2084F83E104A
:103CB000226C1043206484F83C10012001B0BDE860
:103CC000F083000070B50368044653F8140F4007F2
:103CD00037D40E46F1B1701C24D100BF18684005DE
:103CE00032D4186840072CD4186840052CD41868C2
:103CF000400726D41868400526D41868400720D409
:103D00001868400520D4186840074FF0000048BFED
:103D100070BDE3E71868400516D4FDF741F920208F
:103D200016E000BF154600BF186840050CD4FDF72B
:103D300037F9401BB042F2D8236853F8140F4007FC
:103D4000F2D5002070BD00BF6FF4806018600420C1
:103D500000212022216384F83D2084F83E10226C4B
:103D600010432064012084F83C1070BD70B540F20F
:103D70009C40C2F2000000210026FFF7D1F940F27A
:103D8000E440C2F200000021FFF7CAF940F23430EB
:103D9000C2F200000021FFF7C3F940F27C30C2F20A
:103DA00000000021FFF7BCF940F2401043F233322B
:103DB00045F2555445F25655C2F200004FF080418D
:103DC000C3F6D3724FF03333C4F20104C5F2555534
:103DD000C0E90661C0E90832C0E90A543C2000216C
:103DE000582200F00DFC0A20FCF7F2FF3C200121D4
:103DF000002200F005FC0A20FCF7EAFF3C2002212B
:103E0000002200F0FDFB0A20BDE87040FCF7E0BF97
:103E100080B540F2442045F20041C2F20000C4F2F5
:103E2000000148F2A06200234FF4804CC0F201026E
:103E300080E80E00C0E9033CC0E90533C0E9073360
:103E4000FDF7B4F8002808BF80BDBDE88040FCF74E
:103E50005FBF000080B540F2982045F60001C2F235
:103E60000000C4F2000148F2A06200234FF4804C2D
:103E7000C0F2010280E80E00C0E9033CC0E905334E
:103E8000C0E90733FDF792F8002808BF80BDBDE800
:103E90008040FCF73DBF000080B540F22C5041F25D
:103EA0000001C2F20000C4F2010100234FF00C0C2B
:103EB0004FF4E13280E80E00C0E90333C0E905C3E6
:103EC000C361FFF71BFD002818BFFCF721FF252069
:103ED00002210022FEF720F82520BDE88040FEF7F1
:103EE00009B80000FEE70000FEE7000080B501F021
:103EF0008BFB02F013FBBDE8804001F093BB000098
:103F000070B592B006AC20463021FCF793FB00253B
:103F100043F640000595CDE90355CDE901550095DF
:103F2000C4F202000168022641F08051016000687D
:103F300000F080500090009847F200000095C4F215
:103F40000000016841F480410160006800F4804095
:103F5000009000980120099010200A9008200E90EF
:103F6000A820CDE90F060420119020460696CDE941
:103F70000C65FEF73DF928B1EFF3108072B600BF73
:103F8000FEE700BF0F20CDE901064FF48050CDE9D8
:103F9000040001A805210395FDF7FAFF20B1EFF316
:103FA000108072B6FEE700BF12B070BD80B543F658
:103FB0000400C4F20200416801F00C0242F2004128
:103FC000082AC0F2F40107D0042A21D147F64001A3
:103FD000C0F27D111CE000BFD0F800C00368026889
:103FE00003F03F03C2F3881E5FEA4C2247F640020B
:103FF000C0F27D1258BF0A46B2FBF3F102680223F9
:10400000C2F301420EFB01F103EB4202B1FBF2F1FC
:1040100040F22802C2F200021160406847F64A737B
:10402000C0F30310C0F60003185C21FA00F0106022
:1040300080BD00004EF68850CEF20000016841F4C9
:10404000700101607047000040F2EC20C2F20000F5
:10405000FEF7C2BD80B540F29C40C2F20000FEF700
:10406000BBFD40F2C430C2F20000BDE88040FEF764
:10407000B3BD000040F29C40C2F20000FEF7ACBDB0
:1040800010B540F6FF3E0368C4F2000E40F2004C4B
:104090007045C4F2010C25DCB0F1804F2FD040F206
:1040A0000042C4F20002904229D040F60002C4F25D
:1040B0000002904223D041F6FF72C4F20002904207
:1040C00027DC70453ADCB0F1804F5BD040F2004213
:1040D000C4F20002904255D040F60002C4F2000241
:1040E0004EE000BF40F60042C4F20002904206D00B
:1040F000604504D00022C4F201029042DBD14A683C
:1041000023F07003134341F6FF72C4F200029042A1
:10411000D7DD43F6FF72C4F20102904220DC42F286
:104120000002C4F2000290422CD00022C4F201022C
:10413000904227D0604525D028E000BF40F60042DD
:10414000C4F2000290421DD041F60002C4F2000207
:10415000904217D041F60042C4F2000210E000BFC6
:1041600044F20002C4F2010290420BD044F6000275
:10417000C4F20102904205D044F20042C4F20102AE
:10418000904203D1CA6823F44073134323F08002A2
:104190004B69D1F800E08C681A430260C46240F4B5
:1041A0008062C0F828E0624504BF0969016301210B
:1041B000416110BD806B0021C185C184FFF7E8B863
:1041C00081B090F83E10222921D183680246B3F5D0
:1041D000805F09D152F8281F52F8183C002B63D099
:1041E00003685B680AE000BF52F8281F13B903692F
:1041F000002BF5D003685B6803F07F030B70116838
:1042000001311160C18D01390A04C18502D001B0AC
:10421000704700BF0168CA6822F02002CA60CA68FD
:1042200022F48072CA604A6922F001024A612021A8
:1042300080F83E10016B01293ED10021016300BFCF
:10424000016851E8031F026821F0100142E80313DE
:10425000DBB1016851E8031F026821F0100142E858
:10426000031393B1016851E8031F026821F01001A4
:1042700042E803134BB1016851E8031F026821F0C3
:10428000100142E80313002BDAD101680A68D20654
:1042900006D5002200920A680092496800910099B0
:1042A000818D01B0FFF772B8026852686FF35F2228
:1042B00021F8022B8162A5E701B0FFF793BB000054
:1042C000B0B50446006804F108030ECB0569194334
:1042D00025F440552A4302616269E3691143C268CB
:1042E000194349F20C639A431143C1604169A269C1
:1042F00021F4407141F20043114340F48062C4F262
:1043000001039A42416103D1FDF728FF02E000BF9B
:10431000FDF710FFE1694FF69C7563681922C0F63E
:10432000FF75B1F5004FA0FB02011FD15A00DB0F52
:10433000FCF74EF848F21F51C5F2EB11A0FB012328
:104340005A0905F1805302FB0300322303EBC0003E
:10435000A0FB01014FF4F87000EA111000EB02100D
:10436000C1F34211084421688860B0BD9A009B0FD8
:10437000FCF72EF848F21F51C5F2EB11A0FB012308
:104380005A0902FB0500322303EB0010A0FB0101D8
:10439000F02000EA511000EB0210C1F34311084471
:1043A00021688860B0BD000040F22C50C2F20000CD
:1043B000FEF7F0BFFEE70000002804BF00207047B2
:1043C000C1B209B101200CE010F47F4102D0090A0A
:1043D000092006E010F47F0107BF010E1920090C27
:1043E000112047F66272C0F60002515C0844704723
:1043F00070B52DED028B84B040F24016B0EE418ACC
:10440000C2F20006F0EE618A86ED0E1B40F220201B
:104410009FED3B1BC2F200000021C0E90011C0E982
:104420000211C0E90411C0E90611C6E91411C6E978
:104430001611C6E91811C6E91A1151EC100B53EC0C
:10444000112B86ED0C0B03F00BF996ED040B53ECDE
:10445000102B03F057FB41EC110BB0EE480A06F1AC
:10446000400006F14801F0EE680AFCF7EDF996ED20
:10447000120B002000F04CF896ED120B012000F01A
:1044800047F896ED100B022000F042F896ED100B65
:10449000032000F03DF89FED1C0B96ED128B54ECC1
:1044A000105B51EC180B2A46234603F02CFD58B93B
:1044B0008DED028B9DF80F0080F080008DF80F00CD
:1044C0009DED020B86ED120B96ED108B2A4651ECFA
:1044D000180B234603F017FD58B98DED008B9DF89E
:1044E000070080F080008DF807009DED000B86ED41
:1044F000100B04B0BDEC028B70BD00BF00BF00BF4D
:104500000000000000806640000000000000000085
:104510002DE9F04F81B09FED381B55EC104B57EC57
:10452000116B82462046294632463B4603F0F2FC98
:10453000E0B940F20004C2F2000404EB8A0554F82A
:104540002A00298A40F210260122C2F20006FCF756
:1045500021FD54F82A00698A0022FCF71BFD4FF068
:10456000FF3046F82A0001B0BDE8F08F40F20000AD
:10457000C2F2000000EB8A0B50F82A803BF8109F33
:104580002046294632463B4603F0BDFCD0B940F2F6
:104590001024404649460022C2F20004FCF7FAFC0F
:1045A00040F20000C2F2000050F82A00BBF80210EE
:1045B00001220125FCF7EEFC44F82A5001B0BDE8C9
:1045C000F08F00BF4046494600220024FCF7E2FC81
:1045D00040F20000C2F2000050F82A00BBF80210BE
:1045E0000022FCF7D7FC40F21020C2F2000040F895
:1045F0002A4001B0BDE8F08F00000000000000007C
:1046000080B584B00B4601468DF80F2040F2982209
:1046100040F24420C2F20002C2F200003C2908BF6E
:1046200010464FF0010E0DF10F024FF0640CCDE972
:10463000002E1A460123CDF808C0FDF777FA04B022
:1046400080BD00002DE9F04F9FB040F208204AF6EF
:104650008B614BF62F2240F60008C2F20000C4F234
:104660004E01CAF2E822C4F20208C0E90021FDF7B7
:10467000C1FBFFF745FC002443F63000CDE91344AD
:10468000CDE911441C94CDE91A44CDE91844CDE993
:104690000F44CDE90D44CDE90B44CDE90944CDE902
:1046A0000744CDE90544CDE90344CDE90144009434
:1046B000C4F20200016808F5006B41F010010160CE
:1046C0000168002201F01001009100990094016836
:1046D0004FF0060941F020010160016801F020015E
:1046E000009100990094016841F080010160016827
:1046F00001F08001009100990094016841F00401EB
:104700000160016801F004010091009900940168C2
:1047100041F001010160016801F00101009100997F
:104720000094016841F008010160016801F008018E
:10473000009100990094016841F002010160016854
:1047400001F00201009100990094016841F04001DC
:1047500001600068062100F0400000900098584673
:10476000FCF718FC08F5406630461E2100224FF089
:104770001E0AFCF70FFC404606210022FCF70AFC4B
:1047800010AF012558463946CDF84090CDE9115576
:104790001394FCF731FB30463946CDE910A5CDE93D
:1047A0001254FCF729FB40463946CDE91095CDE976
:1047B0001254FCF721FB4FF4804008F580661890F6
:1047C0004FF4881718A93046CDE91974FCF714FB8B
:1047D000282000210022FDF79FFB2820FDF78AFBFF
:1047E0008020CDE90B070BA95846CDE90D44FCF715
:1047F00003FB172000210022FDF78EFB1720FDF799
:1048000079FB4FF0100A08F5805006A9CDE906A7FC
:10481000CDE90844FCF7F0FA0A2000210022FDF758
:104820007BFB0A20FDF766FB01AD4FF48059304653
:104830002946CDE90197CDE90344FCF7DDFA40466E
:104840002946CDE901A4CDE90344FCF7D5FA40F2AD
:10485000EC20A8F58431C2F2000041F288331394B1
:10486000CDE91144CDE91844A72280E81600C0E93B
:104870000334C0E90544FDF719FF28B1EFF31080B8
:1048800072B600BFFEE700BF40F2EC20C2F20000AB
:1048900010A9CDF84090FEF76FF828B1EFF3108023
:1048A00072B600BFFEE700BF40F2EC25C2F2000581
:1048B00018A92846FDF79CFE20B1EFF3108072B6D0
:1048C000FEE700BF28684FF08042C168532341F0E3
:1048D0000101C16040F20C400021C2F200004FF023
:1048E000FF371391CDE91111CDE91811C0E900236B
:1048F000C0E9021701618161FDF7D8FE20B1EFF335
:10490000108072B6FEE700BF4FF48050109040F266
:10491000EC20C2F2000010A9FEF72EF820B1EFF350
:10492000108072B6FEE700BF40F20C40C2F20000F9
:1049300018A9FDF75DFE28B1EFF3108072B600BF35
:10494000FEE700BF40F29C400021A8F58232C2F28F
:104950000000A7234FF47A7780260E91CDE90C1141
:10496000CDE906111691C0E90023C0E90217C0E99C
:1049700004118661FDF79AFE20B1EFF3108072B644
:10498000FEE700BF4FF480500B9040F29C40C2F213
:1049900000000BA9FDF7F0FF20B1EFF3108072B615
:1049A000FEE700BF40F29C40C2F20000FEF76EFB43
:1049B00020B1EFF3108072B6FEE700BF40F29C40DA
:1049C000C2F2000006A9FDF713FE28B1EFF3108034
:1049D00072B600BFFEE700BF6020189040F29C4016
:1049E0000024C2F2000018A90022CDE91944CDE943
:1049F0001B44CDE91D44FEF739FA18B1EFF31080DE
:104A000072B6FEE74FF40050159040F29C40C2F29F
:104A1000000010A91494CDE91244CDE91044179474
:104A2000FDF7C0FD20B1EFF3108072B6FEE700BFC6
:104A300040F29C40C2F20000FEF786F940F2E440EA
:104A4000A8F54841C2F20000002453224FF47A73C3
:104A500080E816008021CDE91544CDE91344C0E972
:104A600003348161FEF712FB20B1EFF3108072B6C0
:104A7000FEE700BF6020CDE9100440F2E440C2F23E
:104A8000000010A9002212941494FEF7EFF918B157
:104A9000EFF3108072B6FEE740F2E440C2F200008D
:104AA000FEF752F940F234300021C2F200004FF418
:104AB0007A77CDE91511CDE91311A8F54442A72362
:104AC000C0E9021701618021C0E900238161FDF77F
:104AD000EDFD18B1EFF3108072B6FEE740F234300E
:104AE000C2F20000FEF7D2FA20B1EFF3108072B6E6
:104AF000FEE700BF6020109040F234300024C2F284
:104B0000000010A90022CDE911441494FEF7AEF97B
:104B100020B1EFF3108072B6FEE700BF40F23430F0
:104B2000C2F20000FEF710F940F27C30A8F54041D7
:104B3000C2F200004FF47A73CDE91544CDE9134475
:104B4000532280E81600C0E903348461FDF7AEFD0E
:104B500020B1EFF3108072B6FEE700BF40F27C3068
:104B6000C2F20000FEF792FA20B1EFF3108072B6A5
:104B7000FEE700BF602010900020CDE911001490E6
:104B800040F27C30C2F2000010A90022FEF76EF95C
:104B900020B1EFF3108072B6FEE700BF40F27C3028
:104BA000C2F20000FEF7D0F8FFF776F9FFF730F910
:104BB000FFF750F940F2EC20C2F20000FDF786FE4C
:104BC00040F20C40C2F20000FDF72EFE40F25440CD
:104BD000C2F200003C21FDF79FFF02F089FA00209D
:104BE0001FB0BDE8F08F0000B0B548F2081448F2DD
:104BF0000410C0F60004C0F60000A04209D248F23A
:104C00000415C0F6000500BF55F8040B8047A54207
:104C1000FAD3BDE8B040FFF715BD00002DE9F04F15
:104C200087B0DDE911890FF250565FEA49670FF24C
:104C30005C5758BF37465FEAC96648BF29F001098B
:104C40005FEAC9764FF0300E08BF4FF0200E5FEAE2
:104C5000897667D4002601960126029600260096E2
:104C6000002A00F09E804FF0000B0A2B71D149F60C
:104C70009A160DF10C08C1F6991600BF4CF6CD43FB
:104C8000CCF6CC43A2FB0334E30803EB8304A2EB92
:104C900044043C5D0A2A08F80B40C0F08980A3FB5D
:104CA000064505EB8505A3EB4503FB5C08EB0B0C08
:104CB000642A8CF80130C0F0858048F21F53C5F299
:104CC000EB13A2FB03346309A3FB064505EB850444
:104CD000A3EB4403FB5CB2F57A7F8CF8023077D308
:104CE00044F6D353C1F26203A2FB0334A309A3FB2E
:104CF000064541F25974CDF2B714A2FB044A05EB04
:104D00008504A3EB440342F21074FB5CA2424FEA19
:104D10005A320BF1040B8CF80330AFD2DDF844802B
:104D20005AE000BFB2F1FF3F08DD5FEA49762FD4B9
:104D30005FEA09768ED520262BE000BF012601967A
:104D4000002602962D26524200964FF0000B0A2BA9
:104D50008DD003AE02F00F03FD5C130906F80B5073
:104D600028D003F00F03FC5C06EB0B05130A6C70F4
:104D700024D003F00F03FC5C130BAC702AD003F0BB
:104D80000F03FB5C120C0BF1040BEB70E2D123E080
:104D90002B2600960026029601260196002A7FF413
:104DA00062AF30228DF80C204FF0010B14E000BFF1
:104DB000DDF844800BF1010B0EE000BF0BF1020B9C
:104DC0000AE000BFDDF844800BF1020B04E000BFF5
:104DD000DDF844800BF1030B109AC345C246C8BFEF
:104DE000DA4619F0110FA2EB0A0C67D005460298BB
:104DF00030B98D423CBF00982870ACF1010C0135F0
:104E00005FEAC96034D4BCF10107C0F291801CF0A4
:104E1000030600F09B808D4238BF85F800E0012E2C
:104E200005F1010040F09C80ACF102070546BCF1A1
:104E3000040FC0F08F80381D8D4205F1010238BF8C
:104E400085F800E08A4238BF82F800E0AA1C8A4256
:104E500038BF82F800E0EA1C8A42A0F1040038BFA3
:104E600082F800E0032805F10405E5DC4FF0FF3C83
:104E70002846C34560DAAAEB0B0212F003025DD0AC
:104E80008842AAF101073CBF30230370012A00F1D8
:104E9000010E0AD08E45AAF102073CBF30238EF8DE
:104EA0000030022A00F1020E74D17046ABEB0A0208
:104EB00012F1040F40F27C8095E000BF0022BCF1AB
:104EC000000FC8BF0122019B1A40ACEB0207B7F1EB
:104ED000010C8BDB17F0030652D088423CBF202226
:104EE0000270012E00F1010540F01C81A7F1020CB7
:104EF0002846042F46D30CF104022027884200F1F3
:104F0000010338BF07708B4238BF1F70831C8B4270
:104F100038BF1F70C31C8B42A2F1040238BF1F7040
:104F2000032A00F10400E9DC4FF0FF3C5EE700BF1C
:104F30002846BC46C3459EDB864654E05746ABEB4D
:104F40000A0212F1040F33D94DE000BFBCF1040F87
:104F5000BFF471AF4FF0FF3CC345FFF68CAFEBE7FA
:104F6000884238BF80F800E0022E05F1020040F0D0
:104F7000E980ACF103070546BCF1040FEAD35AE718
:104F8000042FB8D24FF0FF3C029800283FF431AF15
:104F900036E700BF03308E45AAF103073CBF30223D
:104FA0008EF800208646ABEB0A0212F1040F1AD8E5
:104FB000302286468E450EF1010038BF8EF8002063
:104FC000884238BF02700EF10200884238BF02707A
:104FD0000EF103008842A7F1040738BF0270BB45F9
:104FE0000EF1040EE6DBB8F1000F44D003AACBF1BA
:104FF0000000023A002704E00437C319ABF1040BA8
:1050000060D00EEB07048C4203D202EB0B035B78FB
:105010002370BBF1020F04F101031DDB8B423CBF87
:1050200012F80B501D70C319023304F102061BD095
:105030008E4204D202EB0B0313F8013C3370BBF138
:10504000040F04F1030515D38D42D5D202EB0B03F7
:1050500013F8023C2B70CFE79E46BCF1010F0DDA2E
:10506000704607B0BDE8F08FB646BCF1010F05DA17
:10507000F6E700BFAE46BCF1010FF1DB1CF0030701
:105080001AD08E453CBF20208EF80000ACF1010202
:10509000012F0EF1010009D08842ACF102023CBFA1
:1050A00020230370022F0EF1020011D18646BCF1BD
:1050B000040F19D233E000BF6246BCF1040F2ED3B7
:1050C00012E000BFBE44BCF1010FD7DAC8E700BF51
:1050D0000EF1030E8842ACF103023CBF20230370A3
:1050E0007046BCF1040F1AD3013A2027704600BF66
:1050F000884200F1010338BF07708B4238BF1F7030
:10510000831C8B4238BF1F70C31C8B42A2F1040268
:1051100038BF1F7012F1020F00F10400E8D307B08E
:10512000BDE8F08F8D423CBF20222A70022E00F194
:10513000020515D1A7F1030C2846042FFFF422AF76
:10514000D9E600BF0335884238BF80F800E0ACF1F3
:1051500004072846BCF1040FBFF46DAEFAE600BFA9
:1051600003308D423CBF20222A70A7F1040C054673
:10517000042FBFF4C0AE05E7303132333435363753
:105180003839616263646566000000003031323393
:105190003435363738394142434445460000000033
:1051A000B0B548F2041448F20010C0F60004C0F68E
:1051B0000000A04228BFB0BD051F00BF55F8040F76
:1051C0008047281DA042F9D3B0BD000080B5FBF791
:1051D00065F840F2E811C2F200014A8801324A80C3
:1051E000BDE88040FBF75EB8B0B5FBF757F840F27A
:1051F000E814C2F20004618801390AB2002A618011
:1052000004DDBDE8B040FBF74DB800BF0021618070
:10521000FBF748F86068002808BFB0BDFBF73EF810
:1052200061880029EDD10546A068FFF7C5F8421E48
:1052300041F28860C2F2000050F832106068A1F1BB
:10524000140383420CD0227041F200626360C2F208
:10525000000212781C3001F108013AB1FBF725F881
:105260002846BDE8B040FBF71DB800BFFBF71DF8AE
:105270002846BDE8B040FBF715B800002DE9F04125
:10528000002855D040F2B017C2F2000704467868F3
:10529000A0424DD8B868A04298BFBDE8F08107F1A0
:1052A000180840464FF0FF31A4F10C0600F0B0FCA6
:1052B00034F80A0C18B13088B0F5F55F0AD024A094
:1052C00000F0BEF934F80A2C34F80C3C27A0314623
:1052D00000F0B6F94FF4F55044F80C0CD7F80CC0B8
:1052E00066453CBFFE60B44654F8082C78683D69BA
:1052F0001318F11A294439610ED0598861B9B96877
:105300008B4209D09C4504BFFE60B4465A68311AEE
:10531000831844F8082C996054F8043CC518B54229
:1053200001D0698831B14046BDE8F04100F052BC7F
:10533000BDE8F081B44508BFFD606A6054F8081C00
:10534000084483604046BDE8F04100F043BC00BF24
:10535000746F2066726565206120626164206461FB
:10536000746120626C6F636B3A0A00006D656D3A80
:10537000203078253038782C207573656420666C71
:1053800061673A2025642C206D6167696320636F33
:1053900064653A203078253034780A0040F2FC50B9
:1053A000C2F200007047000040F2FC50C2F2000060
:1053B00000F580507047000010B5FEF7F7FD40F291
:1053C0002800C2F20000006844F6D351C1F2620125
:1053D000A0FB01014FF0FF3000EB91110020B0EB7A
:1053E000116F0DD14EF21002CEF2000251604EF656
:1053F0002351CEF20001FF230B7090600720106054
:10540000FFF7CEFEFFF7CAFF0446FFF7CDFF0146C8
:105410002046BDE8104000F02DBD000070470000A0
:1054200010B540F2F851C2F200010968044629B1F2
:1054300004F128008847002808BF10BD616C48F2BD
:10544000ED00C0F6000000F0FBF8A16A48F2AC00E5
:10545000C0F6000000F0F4F8E16A48F2B900C0F6C6
:10546000000000F0EDF8216B48F2C600C0F6000025
:1054700000F0E6F8616B48F2D300C0F6000000F0DF
:10548000DFF8A16848F2E000C0F6000000F0D8F8AC
:10549000E16824A000F0D4F8216926A000F0D0F83B
:1054A000616928A000F0CCF8A1692AA000F0C8F832
:1054B000E1692CA000F0C4F8216A2EA000F0C0F829
:1054C000616A30A000F0BCF8A16B32A000F0B8F81F
:1054D000E16B34A000F0B4F8216C36A000F0B0F815
:1054E000207840070AD448F26700C0F6000000F0B8
:1054F000A7F82078C00613D40CE000BF00F02EFF00
:10550000014648F28100C0F6000000F099F82078CA
:10551000C00605D448F29E00C0F6000000F090F8E6
:10552000FEE700BF7230353A203078253038780AEF
:10553000000000007230363A203078253038780A82
:10554000000000007230373A203078253038780A71
:10555000000000007230383A203078253038780A60
:10556000000000007230393A203078253038780A4F
:10557000000000007231303A203078253038780A47
:10558000000000007231313A203078253038780A36
:10559000000000007231323A203078253038780A25
:1055A00000000000206C723A203078253038780AEC
:1055B000000000002070633A203078253038780AE7
:1055C0000000000080B5043222F007024FF0000C0A
:1055D0004BF6EF6E42F844CDCDF6AD6EC2E901EE6A
:1055E000C2E903EEC2E905EEC2E907EE4FF0807EA4
:1055F000D0631046C2E9091CC2E90BCCC2E90DC355
:10560000C2F840E080BD000080B5FAF747FE41F2E5
:105610000061C2F200010A7801320A70BDE88040E0
:10562000FAF740BE80B5FAF739FE41F20061C2F2E6
:1056300000010A78013A0A70BDE88040FAF732BEEC
:1056400083B010B581B041F20864844603A8C2F269
:1056500000040EC003AB20467F216246009301F098
:1056600085F82046FFF7DAFE01B0BDE8104003B030
:1056700070470000002804BF002070472DE9F04368
:1056800081B040F2B019C2F200090330D9F800101D
:1056900020F003078F425ED809F1180840464FF00A
:1056A000FF310C2F98BF0C2700F0B2FAD9E900C1E6
:1056B000D9F80CE0ACEB0704AEEB0103A34247D2F0
:1056C000CE187288706822B903F10C05421BBA42E9
:1056D00046D2A0423CD20E187288736822B900F1FB
:1056E0000C055A1BBA4216D2A34231D2CE18728888
:1056F000706822B903F10C05421BBA4230D2A042B5
:1057000026D20E1872887368002AD7D100F10C05D2
:105710005A1BBA42D2D30446184607F118039A42DC
:1057200023D3EB1907F10C02CD184FF4F557CF50E6
:10573000C5E901047360686801240CF10C07B842E4
:1057400074801CBF08448360D9E9040312E000BFE1
:10575000404600F03FFA002001B0BDE8F08300BFF2
:105760001C4607F118039A42DBD201227280D9E964
:105770000423001B10448342C9F8100038BFC9F845
:1057800014004FF4F5507645308030D1BEF8020059
:1057900068B3D9F80820964529D0DEF8040001EB5B
:1057A000000EBEF80200002818BF96451DD0DEF896
:1057B000040001EB000EBEF80200002818BF964559
:1057C00013D0DEF8040001EB000EBEF80200002842
:1057D00018BF964509D0DEF8040001EB000EBEF8B4
:1057E0000200002818BF9645D7D1C9F80CE0404602
:1057F00000F0F0F906F10C0001B0BDE8F083000004
:1058000010B5042A1ED310F003031BD1CBB24FF006
:105810000134102A03FB04FC16D3A2F11004012367
:1058200003EB141313F0030310D0012BC0E900CCD9
:10583000C0F808C0C0F80CC00CD100F1100322461B
:105840001BE000BF864656E0864631E00346302C1A
:1058500016D22BE0022BC0E904CCC0F818C0C0F867
:105860001CC003D100F12003203A06E000F1300310
:10587000303AC0E908CCC0E90ACC9E46302C15D39A
:1058800003F1400E403AC3E900CCC3E902CCC3E9BE
:1058900004CCC3E906CCC3E908CCC3E90ACCC3E90C
:1058A0000CCCC3E90ECC0F2A7346E9D8042A22D3C4
:1058B000734600BF141F042C4EF804CB1AD3A2F178
:1058C0000804042CC3F804C00ED3A2F10C04042C69
:1058D000C3F808C00CD303F1100E103AC3F80CC083
:1058E000032A7346E6D806E003F1080E02E000BF83
:1058F00003F10C0E2246002A08BF10BD5FFA81FC9E
:105900000446704611466246FAF76AFE204610BD0C
:105910002DE9F041884640F23C01C2F200010A78CC
:10592000054682420F460FD00F4617F8100FA842C7
:105930000AD00F4617F8200FA84205D011F8300FF3
:10594000A84218BF00210F46F868FFF793FE0646ED
:10595000C0B1FA68304600210024FFF751FF3046FD
:10596000414608223572747200F038FAFAF796FC54
:1059700057F8041F324642F80C1F4A603A605760DD
:10598000FAF790FC3046BDE8F081000010B50446FF
:1059900000202072FAF782FC2246216952F80C3F5F
:1059A00059600B6022611260FAF77CFC2046BDE86A
:1059B0001040FFF763BC000010B5044600202072C1
:1059C000FAF76CFC54F80C1F62684A601160C4E975
:1059D0000044BDE81040FAF765BC0000F0B581B0A6
:1059E0000E4640F23C01C2F2000115460A78044618
:1059F000B2420F460FD00F4617F8100FB0420AD030
:105A00000F4617F8200FB04205D011F8300FB04202
:105A100018BF00210F46FFF7D9FB0437384600BFF7
:105A20000068B84208D00068B84205D00068B842A3
:105A300002D00068B842F3D1FFF7D6FB46F08000F1
:105A4000207220462946082200F0C8F9FAF726FC01
:105A5000396844F80C1F4C603C60676001B0BDE8D9
:105A6000F040FAF71FBC0000007AC0097047000040
:105A700070B5FAF713FC40F2E815C2F20005698828
:105A800021B1BDE87040FAF70DBC00BFA968064619
:105A90000846FEF791FC01464A1E41F28861C2F2B7
:105AA000000151F832106B68A1F1140430469C4299
:105AB000E7D041F200602A706C60C2F20000027808
:105AC00003F11C0001F1080132B1FAF7EEFB304698
:105AD000BDE87040FAF7E6BBFAF7E7FB3046BDE8F1
